{
  "contractName": "Roulette",
  "abi": [
    {
      "inputs": [],
      "stateMutability": "payable",
      "type": "constructor",
      "payable": true
    },
    {
      "anonymous": false,
      "inputs": [
        {
          "indexed": false,
          "internalType": "uint256",
          "name": "number",
          "type": "uint256"
        }
      ],
      "name": "RandomNumber",
      "type": "event"
    },
    {
      "inputs": [
        {
          "internalType": "uint256",
          "name": "",
          "type": "uint256"
        }
      ],
      "name": "bets",
      "outputs": [
        {
          "internalType": "address",
          "name": "player",
          "type": "address"
        },
        {
          "internalType": "uint8",
          "name": "betType",
          "type": "uint8"
        },
        {
          "internalType": "uint8",
          "name": "number",
          "type": "uint8"
        },
        {
          "internalType": "uint256",
          "name": "betAmount",
          "type": "uint256"
        }
      ],
      "stateMutability": "view",
      "type": "function",
      "constant": true
    },
    {
      "inputs": [],
      "name": "latestWinningNumber",
      "outputs": [
        {
          "internalType": "uint256",
          "name": "",
          "type": "uint256"
        }
      ],
      "stateMutability": "view",
      "type": "function",
      "constant": true
    },
    {
      "inputs": [],
      "name": "numberOfWinners",
      "outputs": [
        {
          "internalType": "uint256",
          "name": "",
          "type": "uint256"
        }
      ],
      "stateMutability": "view",
      "type": "function",
      "constant": true
    },
    {
      "inputs": [
        {
          "internalType": "uint256",
          "name": "",
          "type": "uint256"
        }
      ],
      "name": "spinWinners",
      "outputs": [
        {
          "internalType": "address",
          "name": "winner",
          "type": "address"
        },
        {
          "internalType": "uint256",
          "name": "winnings",
          "type": "uint256"
        }
      ],
      "stateMutability": "view",
      "type": "function",
      "constant": true
    },
    {
      "inputs": [
        {
          "internalType": "address",
          "name": "",
          "type": "address"
        }
      ],
      "name": "winners",
      "outputs": [
        {
          "internalType": "bool",
          "name": "",
          "type": "bool"
        }
      ],
      "stateMutability": "view",
      "type": "function",
      "constant": true
    },
    {
      "inputs": [
        {
          "internalType": "address",
          "name": "",
          "type": "address"
        }
      ],
      "name": "winnings",
      "outputs": [
        {
          "internalType": "uint256",
          "name": "",
          "type": "uint256"
        }
      ],
      "stateMutability": "view",
      "type": "function",
      "constant": true
    },
    {
      "inputs": [],
      "name": "RedBlack",
      "outputs": [],
      "stateMutability": "nonpayable",
      "type": "function"
    },
    {
      "inputs": [],
      "name": "getStatus",
      "outputs": [
        {
          "internalType": "uint256",
          "name": "",
          "type": "uint256"
        },
        {
          "internalType": "uint256",
          "name": "",
          "type": "uint256"
        },
        {
          "internalType": "uint256",
          "name": "",
          "type": "uint256"
        },
        {
          "internalType": "uint256",
          "name": "",
          "type": "uint256"
        },
        {
          "internalType": "uint256",
          "name": "",
          "type": "uint256"
        }
      ],
      "stateMutability": "view",
      "type": "function",
      "constant": true
    },
    {
      "inputs": [],
      "name": "addEther",
      "outputs": [],
      "stateMutability": "payable",
      "type": "function",
      "payable": true
    },
    {
      "inputs": [],
      "name": "getBets",
      "outputs": [
        {
          "components": [
            {
              "internalType": "address",
              "name": "player",
              "type": "address"
            },
            {
              "internalType": "uint8",
              "name": "betType",
              "type": "uint8"
            },
            {
              "internalType": "uint8",
              "name": "number",
              "type": "uint8"
            },
            {
              "internalType": "uint256",
              "name": "betAmount",
              "type": "uint256"
            }
          ],
          "internalType": "struct Roulette.Bet[]",
          "name": "",
          "type": "tuple[]"
        }
      ],
      "stateMutability": "view",
      "type": "function",
      "constant": true
    },
    {
      "inputs": [],
      "name": "getCreator",
      "outputs": [
        {
          "internalType": "address",
          "name": "",
          "type": "address"
        }
      ],
      "stateMutability": "view",
      "type": "function",
      "constant": true
    },
    {
      "inputs": [
        {
          "internalType": "uint8",
          "name": "number",
          "type": "uint8"
        },
        {
          "internalType": "uint8",
          "name": "betType",
          "type": "uint8"
        }
      ],
      "name": "bet",
      "outputs": [],
      "stateMutability": "payable",
      "type": "function",
      "payable": true
    },
    {
      "inputs": [
        {
          "internalType": "address",
          "name": "player",
          "type": "address"
        }
      ],
      "name": "getWinnings",
      "outputs": [
        {
          "internalType": "uint256",
          "name": "",
          "type": "uint256"
        }
      ],
      "stateMutability": "view",
      "type": "function",
      "constant": true
    },
    {
      "inputs": [],
      "name": "spinWheel",
      "outputs": [],
      "stateMutability": "nonpayable",
      "type": "function"
    },
    {
      "inputs": [],
      "name": "getLatestWinningNumber",
      "outputs": [
        {
          "internalType": "uint256",
          "name": "",
          "type": "uint256"
        }
      ],
      "stateMutability": "view",
      "type": "function",
      "constant": true
    },
    {
      "inputs": [],
      "name": "getWinners",
      "outputs": [
        {
          "components": [
            {
              "internalType": "address",
              "name": "winner",
              "type": "address"
            },
            {
              "internalType": "uint256",
              "name": "winnings",
              "type": "uint256"
            }
          ],
          "internalType": "struct Roulette.Winner[]",
          "name": "",
          "type": "tuple[]"
        }
      ],
      "stateMutability": "view",
      "type": "function",
      "constant": true
    },
    {
      "inputs": [
        {
          "internalType": "uint256",
          "name": "number",
          "type": "uint256"
        }
      ],
      "name": "isRed",
      "outputs": [
        {
          "internalType": "bool",
          "name": "",
          "type": "bool"
        }
      ],
      "stateMutability": "view",
      "type": "function",
      "constant": true
    },
    {
      "inputs": [
        {
          "internalType": "uint256",
          "name": "number",
          "type": "uint256"
        }
      ],
      "name": "isBlack",
      "outputs": [
        {
          "internalType": "bool",
          "name": "",
          "type": "bool"
        }
      ],
      "stateMutability": "view",
      "type": "function",
      "constant": true
    },
    {
      "inputs": [],
      "name": "cashOut",
      "outputs": [],
      "stateMutability": "nonpayable",
      "type": "function"
    }
  ],
  "bytecode": "0x608060405233600360006101000a81548173ffffffffffffffffffffffffffffffffffffffff021916908373ffffffffffffffffffffffffffffffffffffffff1602179055506000600181905550426002819055506040518060600160405280600260ff168152602001600260ff168152602001602460ff1681525060099060036200008d92919062000458565b50604051806102400160405280602060ff168152602001601360ff168152602001601560ff168152602001601960ff168152602001602260ff168152602001601b60ff168152602001602460ff168152602001601e60ff168152602001601760ff168152602001600560ff168152602001601060ff168152602001600160ff168152602001600e60ff168152602001600960ff168152602001601260ff168152602001600760ff168152602001600c60ff168152602001600360ff16815250600b9060126200015e92919062000506565b50604051806102400160405280600f60ff168152602001600460ff168152602001600260ff168152602001601160ff168152602001600660ff168152602001600d60ff168152602001600b60ff168152602001600860ff168152602001600a60ff168152602001601860ff168152602001602160ff168152602001601460ff168152602001601f60ff168152602001601660ff168152602001601d60ff168152602001601c60ff168152602001602360ff168152602001601a60ff16815250600c9060126200022f92919062000506565b50620002406200029d60201b60201c565b6040518060600160405280600160ff168152602001600160ff168152602001602460ff16815250600a9060036200027992919062000458565b50662386f26fc100006000819055506729a2241af62c000060048190555062000688565b60005b600b80549050811015620003195762000302600b8281548110620002c957620002c8620005d3565b5b90600052602060002090602091828204019190069054906101000a900460ff1660ff16600e6200039960201b620013631790919060201c565b50808062000310906200063b565b915050620002a0565b5060005b600c8054905081101562000396576200037f600c8281548110620003465762000345620005d3565b5b90600052602060002090602091828204019190069054906101000a900460ff1660ff1660106200039960201b620013631790919060201c565b5080806200038d906200063b565b9150506200031d565b50565b6000620003b3836000018360001b620003bb60201b60201c565b905092915050565b6000620003cf83836200043560201b60201c565b6200042a5782600001829080600181540180825580915050600190039060005260206000200160009091909190915055826000018054905083600101600084815260200190815260200160002081905550600190506200042f565b600090505b92915050565b600080836001016000848152602001908152602001600020541415905092915050565b82805482825590600052602060002090601f01602090048101928215620004f35791602002820160005b83821115620004c257835183826101000a81548160ff021916908360ff160217905550926020019260010160208160000104928301926001030262000482565b8015620004f15782816101000a81549060ff0219169055600101602081600001049283019260010302620004c2565b505b509050620005029190620005b4565b5090565b82805482825590600052602060002090601f01602090048101928215620005a15791602002820160005b838211156200057057835183826101000a81548160ff021916908360ff160217905550926020019260010160208160000104928301926001030262000530565b80156200059f5782816101000a81549060ff021916905560010160208160000104928301926001030262000570565b505b509050620005b09190620005b4565b5090565b5b80821115620005cf576000816000905550600101620005b5565b5090565b7f4e487b7100000000000000000000000000000000000000000000000000000000600052603260045260246000fd5b7f4e487b7100000000000000000000000000000000000000000000000000000000600052601160045260246000fd5b6000819050919050565b6000620006488262000631565b91507fffffffffffffffffffffffffffffffffffffffffffffffffffffffffffffffff82036200067d576200067c62000602565b5b600182019050919050565b611fa880620006986000396000f3fe6080604052600436106101145760003560e01c8063793cd71e116100a0578063cac954c911610064578063cac954c91461038a578063d773f46e146103b5578063df15c37e146103d1578063ea3a1499146103fc578063f2abb6a51461043957610114565b8063793cd71e146102d65780638894dd2b146102ed5780638acfaca9146102f7578063a6afd5fd14610322578063ab561c161461034d57610114565b80631844989f116100e75780631844989f146101d657806322af00fa146101ed5780632858eff11461022d5780634e69d5601461026a5780636bd5450a1461029957610114565b80630dfcff62146101195780630ee2cb10146101575780631392e54f1461018257806315ecef92146101bf575b600080fd5b34801561012557600080fd5b50610140600480360381019061013b91906115e9565b610464565b60405161014e929190611666565b60405180910390f35b34801561016357600080fd5b5061016c6104b8565b604051610179919061168f565b60405180910390f35b34801561018e57600080fd5b506101a960048036038101906101a491906115e9565b6104e2565b6040516101b691906116c5565b60405180910390f35b3480156101cb57600080fd5b506101d46104ff565b005b3480156101e257600080fd5b506101eb610b49565b005b3480156101f957600080fd5b50610214600480360381019061020f91906115e9565b610c29565b60405161022494939291906116fc565b60405180910390f35b34801561023957600080fd5b50610254600480360381019061024f919061176d565b610ca3565b604051610261919061179a565b60405180910390f35b34801561027657600080fd5b5061027f610cec565b6040516102909594939291906117b5565b60405180910390f35b3480156102a557600080fd5b506102c060048036038101906102bb919061176d565b610d62565b6040516102cd91906116c5565b60405180910390f35b3480156102e257600080fd5b506102eb610d82565b005b6102f5610e75565b005b34801561030357600080fd5b5061030c610e77565b604051610319919061179a565b60405180910390f35b34801561032e57600080fd5b50610337610e7d565b6040516103449190611939565b60405180910390f35b34801561035957600080fd5b50610374600480360381019061036f91906115e9565b610f76565b60405161038191906116c5565b60405180910390f35b34801561039657600080fd5b5061039f610f93565b6040516103ac919061179a565b60405180910390f35b6103cf60048036038101906103ca9190611987565b610f9d565b005b3480156103dd57600080fd5b506103e6611286565b6040516103f39190611aa5565b60405180910390f35b34801561040857600080fd5b50610423600480360381019061041e919061176d565b611345565b604051610430919061179a565b60405180910390f35b34801561044557600080fd5b5061044e61135d565b60405161045b919061179a565b60405180910390f35b6013818154811061047457600080fd5b90600052602060002090600202016000915090508060000160009054906101000a900473ffffffffffffffffffffffffffffffffffffffff16908060010154905082565b6000600360009054906101000a900473ffffffffffffffffffffffffffffffffffffffff16905090565b60006104f882601061137d90919063ffffffff16565b9050919050565b60006012805490501161051157600080fd5b600254421161051f57600080fd5b426002819055506013600061053491906114b2565b600044905060006001436105489190611af6565b4090506000601260016012805490506105619190611af6565b8154811061057257610571611b2a565b5b90600052602060002090600202016040518060800160405290816000820160009054906101000a900473ffffffffffffffffffffffffffffffffffffffff1673ffffffffffffffffffffffffffffffffffffffff1673ffffffffffffffffffffffffffffffffffffffff1681526020016000820160149054906101000a900460ff1660ff1660ff1681526020016000820160159054906101000a900460ff1660ff1660ff16815260200160018201548152505090506000602542858585602001518660000151876040015160405160200161065296959493929190611c23565b6040516020818303038152906040528051906020012060001c6106759190611cc2565b905060005b601280549050811015610adb576000806012838154811061069e5761069d611b2a565b5b90600052602060002090600202016040518060800160405290816000820160009054906101000a900473ffffffffffffffffffffffffffffffffffffffff1673ffffffffffffffffffffffffffffffffffffffff1673ffffffffffffffffffffffffffffffffffffffff1681526020016000820160149054906101000a900460ff1660ff1660ff1681526020016000820160159054906101000a900460ff1660ff1660ff168152602001600182015481525050905060008403610780576002816020015160ff1614801561077957506000816040015160ff16145b9150610849565b6002816020015160ff16036107a05783816040015160ff16149150610848565b6001816020015160ff16036107fd576000816040015160ff16036107d55760006002856107cd9190611cc2565b1491506107f8565b6001816040015160ff16036107f75760016002856107f39190611cc2565b1491505b5b610847565b6000816020015160ff16036108465761081c816040015160ff166104e2565b1561082a5760019150610845565b61083a816040015160ff16610f76565b1561084457600191505b5b5b5b5b5b8115610ac657600081600001519050600660008273ffffffffffffffffffffffffffffffffffffffff1673ffffffffffffffffffffffffffffffffffffffff16815260200190815260200160002060009054906101000a900460ff16610970576000600560008154809291906108be90611cf3565b9190505590506001600660008473ffffffffffffffffffffffffffffffffffffffff1673ffffffffffffffffffffffffffffffffffffffff16815260200190815260200160002060006101000a81548160ff021916908315150217905550816007600083815260200190815260200160002060006101000a81548173ffffffffffffffffffffffffffffffffffffffff021916908373ffffffffffffffffffffffffffffffffffffffff160217905550505b600080546009846020015160ff168154811061098f5761098e611b2a565b5b90600052602060002090602091828204019190069054906101000a900460ff1660ff166109bc9190611d3b565b905080600860008473ffffffffffffffffffffffffffffffffffffffff1673ffffffffffffffffffffffffffffffffffffffff1681526020019081526020016000206000828254610a0d9190611d7d565b92505081905550600060405180604001604052808473ffffffffffffffffffffffffffffffffffffffff168152602001838152509050601381908060018154018082558091505060019003906000526020600020906002020160009091909190915060008201518160000160006101000a81548173ffffffffffffffffffffffffffffffffffffffff021916908373ffffffffffffffffffffffffffffffffffffffff1602179055506020820151816001015550505050505b50508080610ad390611cf3565b91505061067a565b5060126000610aea91906114d6565b6000600181905550600454471115610b0557610b04611397565b5b7fec6cdc8e735e4069f6e89062582f3e5532a8e71373e7ef2962fa916cf2af21f281604051610b34919061179a565b60405180910390a180600d8190555050505050565b60005b600b80549050811015610bb757610ba3600b8281548110610b7057610b6f611b2a565b5b90600052602060002090602091828204019190069054906101000a900460ff1660ff16600e61136390919063ffffffff16565b508080610baf90611cf3565b915050610b4c565b5060005b600c80549050811015610c2657610c12600c8281548110610bdf57610bde611b2a565b5b90600052602060002090602091828204019190069054906101000a900460ff1660ff16601061136390919063ffffffff16565b508080610c1e90611cf3565b915050610bbb565b50565b60128181548110610c3957600080fd5b90600052602060002090600202016000915090508060000160009054906101000a900473ffffffffffffffffffffffffffffffffffffffff16908060000160149054906101000a900460ff16908060000160159054906101000a900460ff16908060010154905084565b6000600860008373ffffffffffffffffffffffffffffffffffffffff1673ffffffffffffffffffffffffffffffffffffffff168152602001908152602001600020549050919050565b6000806000806000601280549050600054601280549050610d0d9190611d3b565b60025447600860003373ffffffffffffffffffffffffffffffffffffffff1673ffffffffffffffffffffffffffffffffffffffff16815260200190815260200160002054945094509450945094509091929394565b60066020528060005260406000206000915054906101000a900460ff1681565b60003390506000600860008373ffffffffffffffffffffffffffffffffffffffff1673ffffffffffffffffffffffffffffffffffffffff16815260200190815260200160002054905060008111610dd857600080fd5b47811115610de557600080fd5b6000600860008473ffffffffffffffffffffffffffffffffffffffff1673ffffffffffffffffffffffffffffffffffffffff168152602001908152602001600020819055508173ffffffffffffffffffffffffffffffffffffffff166108fc829081150290604051600060405180830381858888f19350505050158015610e70573d6000803e3d6000fd5b505050565b565b60055481565b60606012805480602002602001604051908101604052809291908181526020016000905b82821015610f6d57838290600052602060002090600202016040518060800160405290816000820160009054906101000a900473ffffffffffffffffffffffffffffffffffffffff1673ffffffffffffffffffffffffffffffffffffffff1673ffffffffffffffffffffffffffffffffffffffff1681526020016000820160149054906101000a900460ff1660ff1660ff1681526020016000820160159054906101000a900460ff1660ff1660ff16815260200160018201548152505081526020019060010190610ea1565b50505050905090565b6000610f8c82600e61137d90919063ffffffff16565b9050919050565b6000600d54905090565b6000543414610fe1576040517f08c379a0000000000000000000000000000000000000000000000000000000008152600401610fd890611e0e565b60405180910390fd5b60008160ff1610158015610ff9575060058160ff1611155b611038576040517f08c379a000000000000000000000000000000000000000000000000000000000815260040161102f90611e7a565b60405180910390fd5b60008260ff16101580156110885750600a8160ff168154811061105e5761105d611b2a565b5b90600052602060002090602091828204019190069054906101000a900460ff1660ff168260ff1611155b6110c7576040517f08c379a00000000000000000000000000000000000000000000000000000000081526004016110be90611ee6565b60405180910390fd5b60003460098360ff16815481106110e1576110e0611b2a565b5b90600052602060002090602091828204019190069054906101000a900460ff1660ff1661110e9190611d3b565b90506000816001546111209190611d7d565b9050478110611164576040517f08c379a000000000000000000000000000000000000000000000000000000000815260040161115b90611f52565b60405180910390fd5b81600160008282546111769190611d7d565b92505081905550600060405180608001604052803373ffffffffffffffffffffffffffffffffffffffff1681526020018560ff1681526020018660ff168152602001348152509050601281908060018154018082558091505060019003906000526020600020906002020160009091909190915060008201518160000160006101000a81548173ffffffffffffffffffffffffffffffffffffffff021916908373ffffffffffffffffffffffffffffffffffffffff16021790555060208201518160000160146101000a81548160ff021916908360ff16021790555060408201518160000160156101000a81548160ff021916908360ff1602179055506060820151816001015550505050505050565b60606013805480602002602001604051908101604052809291908181526020016000905b8282101561133c57838290600052602060002090600202016040518060400160405290816000820160009054906101000a900473ffffffffffffffffffffffffffffffffffffffff1673ffffffffffffffffffffffffffffffffffffffff1673ffffffffffffffffffffffffffffffffffffffff168152602001600182015481525050815260200190600101906112aa565b50505050905090565b60086020528060005260406000206000915090505481565b600d5481565b6000611375836000018360001b61141f565b905092915050565b600061138f836000018360001b61148f565b905092915050565b6000600454476113a79190611af6565b9050600081111561141c57600360009054906101000a900473ffffffffffffffffffffffffffffffffffffffff1673ffffffffffffffffffffffffffffffffffffffff166108fc829081150290604051600060405180830381858888f1935050505015801561141a573d6000803e3d6000fd5b505b50565b600061142b838361148f565b611484578260000182908060018154018082558091505060019003906000526020600020016000909190919091505582600001805490508360010160008481526020019081526020016000208190555060019050611489565b600090505b92915050565b600080836001016000848152602001908152602001600020541415905092915050565b50805460008255600202906000526020600020908101906114d391906114fa565b50565b50805460008255600202906000526020600020908101906114f79190611540565b50565b5b8082111561153c57600080820160006101000a81549073ffffffffffffffffffffffffffffffffffffffff02191690556001820160009055506002016114fb565b5090565b5b808211156115aa57600080820160006101000a81549073ffffffffffffffffffffffffffffffffffffffff02191690556000820160146101000a81549060ff02191690556000820160156101000a81549060ff0219169055600182016000905550600201611541565b5090565b600080fd5b6000819050919050565b6115c6816115b3565b81146115d157600080fd5b50565b6000813590506115e3816115bd565b92915050565b6000602082840312156115ff576115fe6115ae565b5b600061160d848285016115d4565b91505092915050565b600073ffffffffffffffffffffffffffffffffffffffff82169050919050565b600061164182611616565b9050919050565b61165181611636565b82525050565b611660816115b3565b82525050565b600060408201905061167b6000830185611648565b6116886020830184611657565b9392505050565b60006020820190506116a46000830184611648565b92915050565b60008115159050919050565b6116bf816116aa565b82525050565b60006020820190506116da60008301846116b6565b92915050565b600060ff82169050919050565b6116f6816116e0565b82525050565b60006080820190506117116000830187611648565b61171e60208301866116ed565b61172b60408301856116ed565b6117386060830184611657565b95945050505050565b61174a81611636565b811461175557600080fd5b50565b60008135905061176781611741565b92915050565b600060208284031215611783576117826115ae565b5b600061179184828501611758565b91505092915050565b60006020820190506117af6000830184611657565b92915050565b600060a0820190506117ca6000830188611657565b6117d76020830187611657565b6117e46040830186611657565b6117f16060830185611657565b6117fe6080830184611657565b9695505050505050565b600081519050919050565b600082825260208201905092915050565b6000819050602082019050919050565b61183d81611636565b82525050565b61184c816116e0565b82525050565b61185b816115b3565b82525050565b6080820160008201516118776000850182611834565b50602082015161188a6020850182611843565b50604082015161189d6040850182611843565b5060608201516118b06060850182611852565b50505050565b60006118c28383611861565b60808301905092915050565b6000602082019050919050565b60006118e682611808565b6118f08185611813565b93506118fb83611824565b8060005b8381101561192c57815161191388826118b6565b975061191e836118ce565b9250506001810190506118ff565b5085935050505092915050565b6000602082019050818103600083015261195381846118db565b905092915050565b611964816116e0565b811461196f57600080fd5b50565b6000813590506119818161195b565b92915050565b6000806040838503121561199e5761199d6115ae565b5b60006119ac85828601611972565b92505060206119bd85828601611972565b9150509250929050565b600081519050919050565b600082825260208201905092915050565b6000819050602082019050919050565b604082016000820151611a096000850182611834565b506020820151611a1c6020850182611852565b50505050565b6000611a2e83836119f3565b60408301905092915050565b6000602082019050919050565b6000611a52826119c7565b611a5c81856119d2565b9350611a67836119e3565b8060005b83811015611a98578151611a7f8882611a22565b9750611a8a83611a3a565b925050600181019050611a6b565b5085935050505092915050565b60006020820190508181036000830152611abf8184611a47565b905092915050565b7f4e487b7100000000000000000000000000000000000000000000000000000000600052601160045260246000fd5b6000611b01826115b3565b9150611b0c836115b3565b9250828203905081811115611b2457611b23611ac7565b5b92915050565b7f4e487b7100000000000000000000000000000000000000000000000000000000600052603260045260246000fd5b6000819050919050565b611b74611b6f826115b3565b611b59565b82525050565b6000819050919050565b6000819050919050565b611b9f611b9a82611b7a565b611b84565b82525050565b60008160f81b9050919050565b6000611bbd82611ba5565b9050919050565b611bd5611bd0826116e0565b611bb2565b82525050565b60008160601b9050919050565b6000611bf382611bdb565b9050919050565b6000611c0582611be8565b9050919050565b611c1d611c1882611636565b611bfa565b82525050565b6000611c2f8289611b63565b602082019150611c3f8288611b63565b602082019150611c4f8287611b8e565b602082019150611c5f8286611bc4565b600182019150611c6f8285611c0c565b601482019150611c7f8284611bc4565b600182019150819050979650505050505050565b7f4e487b7100000000000000000000000000000000000000000000000000000000600052601260045260246000fd5b6000611ccd826115b3565b9150611cd8836115b3565b925082611ce857611ce7611c93565b5b828206905092915050565b6000611cfe826115b3565b91507fffffffffffffffffffffffffffffffffffffffffffffffffffffffffffffffff8203611d3057611d2f611ac7565b5b600182019050919050565b6000611d46826115b3565b9150611d51836115b3565b9250828202611d5f816115b3565b91508282048414831517611d7657611d75611ac7565b5b5092915050565b6000611d88826115b3565b9150611d93836115b3565b9250828201905080821115611dab57611daa611ac7565b5b92915050565b600082825260208201905092915050565b7f496e636f72726563742062657420616d6f756e74000000000000000000000000600082015250565b6000611df8601483611db1565b9150611e0382611dc2565b602082019050919050565b60006020820190508181036000830152611e2781611deb565b9050919050565b7f496e76616c696420626574207479706500000000000000000000000000000000600082015250565b6000611e64601083611db1565b9150611e6f82611e2e565b602082019050919050565b60006020820190508181036000830152611e9381611e57565b9050919050565b7f496e76616c6964206e756d626572000000000000000000000000000000000000600082015250565b6000611ed0600e83611db1565b9150611edb82611e9a565b602082019050919050565b60006020820190508181036000830152611eff81611ec3565b9050919050565b7f496e73756666696369656e742062616c616e6365000000000000000000000000600082015250565b6000611f3c601483611db1565b9150611f4782611f06565b602082019050919050565b60006020820190508181036000830152611f6b81611f2f565b905091905056fea26469706673582212205322f50cfbf626ad535b99da5a99aff247439eea08239498d50bdd78aa7b332164736f6c63430008110033",
  "immutableReferences": {},
  "source": "// SPDX-License-Identifier: MIT\npragma solidity >=0.4.22 <0.9.0;\nimport \"@openzeppelin/contracts/utils/structs/EnumerableSet.sol\";\n\n\ncontract Roulette {\n  \n  uint betAmount;\n  uint necessaryBalance;\n  uint nextRoundTimestamp;\n  address creator;\n  uint256 maxAmountAllowedInTheBank;\n  uint public numberOfWinners;\n  mapping(address => bool) public winners;\n  mapping(uint => address) private lutWinners;\n  mapping(address => uint) public winnings;\n  uint8[] payouts;\n  uint8[] numberRange;\n  uint8[] red;\n  uint8[] black;\n  uint256 public latestWinningNumber;\n    \n  using EnumerableSet for EnumerableSet.UintSet;\n\n    EnumerableSet.UintSet reds;\n    EnumerableSet.UintSet blacks;\n  \n  /*\n    BetTypes are as follow:\n      0: color\n      1: odd/even\n      2: number\n      \n    Depending on the BetType, number will be:\n      color: 0 for black, 1 for red\n      odd/even: 0 for even, 1 for odd\n      number: number\n  */\n  \n  struct Bet {\n    address player;\n    uint8 betType;\n    uint8 number;\n    uint256 betAmount;\n  }\n  Bet[] public bets;\n\n\n\n    struct Winner {\n    address winner;\n    uint winnings;\n}\n\nWinner[] public spinWinners;\n  \n  constructor()  payable {\n    creator = msg.sender;\n    necessaryBalance = 0;\n    nextRoundTimestamp = block.timestamp;\n    payouts = [2,2,36];\n    red = [32,19,21,25,34,27,36,30,23,5,16,1,14,9,18,7,12,3];\n    black = [15, 4, 2, 17, 6, 13, 11, 8, 10, 24, 33, 20, 31, 22, 29, 28, 35, 26];\n    RedBlack();\n    \n\n    \n    \n\n\n\n    \n\n    //times payout for each win type\n\n   numberRange = [1,1,36];\n\n    // Bet type 0: black/red (1=black, 2=red)\n    // Bet type 1: even/odd (1=odd, 2=even)\n    // Bet type 2: number (1-36)\n\n     betAmount = 10000000000000000; /* 0.01 ether */\n     maxAmountAllowedInTheBank = 3000000000000000000; /* 3 ether */\n  }\n\n  \n\n  event RandomNumber(uint256 number);\n  \n  function RedBlack() public{\n\n    for (uint i = 0; i < red.length; i++) {\n            reds.add(red[i]);\n    }\n\n    for (uint i = 0; i < black.length; i++) {\n            blacks.add(black[i]);\n    }\n\n  }\n\n  function getStatus() public view returns(uint, uint, uint, uint, uint) {\n    return (\n      bets.length,             // number of active bets\n      bets.length * betAmount, // value of active bets\n      nextRoundTimestamp,      // when can we play again\n      address(this).balance,   // roulette balance\n      winnings[msg.sender]     // winnings of player\n    ); \n  }\n\n\n  //must run when start server in order to have eth in contract  \n   function addEther() payable public {}\n\n\n  \n  function getBets() public view returns (Bet[] memory) {\n    return bets;\n}\n\n\nfunction getCreator() public view returns (address) {\n    return creator;\n}\n\n\n\n\n   \n  function bet(uint8 number, uint8 betType) payable public {\n\n\n       /* \n       A bet is valid when:\n       1 - the value of the bet is correct (=betAmount)\n       2 - betType is kblock.timestampn (between 0 and 5)\n       3 - the option betted is valid (don't bet on 37!)\n       4 - the bank has sufficient funds to pay the bet\n    */\n\n    require(msg.value == betAmount, \"Incorrect bet amount\"); // Check that the bet value is correct\n    require(betType >= 0 && betType <= 5, \"Invalid bet type\"); // Check that the bet type is valid\n    require(number >= 0 && number <= numberRange[betType], \"Invalid number\"); // Check that the number is valid\n    uint payoutForThisBet = payouts[betType] * msg.value;\n    uint provisionalBalance = necessaryBalance + payoutForThisBet;\n    require(provisionalBalance < address(this).balance, \"Insufficient balance\"); // Check that the bank has sufficient funds to pay the bet\n    necessaryBalance += payoutForThisBet;\n    Bet memory newBet = Bet({\n      betType: betType,\n      player: msg.sender,\n      number: number,\n      betAmount : msg.value\n    });\n    bets.push(newBet);\n  }\n\n\n  function getWinnings(address player) public view returns (uint) {\n    return winnings[player];\n}\n\n\n\n\n  function spinWheel() public {\n    /* are there any bets? */\n    require(bets.length > 0);\n    /* are we allowed to spin the wheel? */\n    require(block.timestamp > nextRoundTimestamp);\n    /* next time we are allowed to spin the wheel again */\n    nextRoundTimestamp = block.timestamp;\n    /* delete privious spin list of winners*/\n    delete spinWinners;\n\n\n    /* calculate 'random' number */\n    uint diff = block.difficulty;\n    bytes32 hash = blockhash(block.number-1);\n    Bet memory lb = bets[bets.length-1];\n    uint number = uint(keccak256(abi.encodePacked(block.timestamp, diff, hash, lb.betType, lb.player, lb.number))) % 37;\n    /* check every bet for this number */\n    for (uint i = 0; i < bets.length; i++) {\n      bool won = false;\n      Bet memory b = bets[i];\n      if (number == 0) {\n        won = (b.betType == 2 && b.number == 0);                   /* bet on 0 */\n      } else {\n        if (b.betType == 2) { \n          won = (b.number == number);                              /* bet on number */\n        } \n        else if (b.betType == 1) {\n          if (b.number == 0){ \n          won = (number % 2 == 0);\n          }              /* bet on even */\n          else if (b.number == 1){ \n          won = (number % 2 == 1);\n          }              /* bet on odd */\n         }\n          else if (b.betType == 0) {                   \n            if (isBlack(b.number)) {                     /* bet on black */\n              won = true;\n          } else {                                                 /* bet on red */\n            if (isRed(b.number)) {\n              won = true;\n          }\n        }\n      }\n    }\n  \n      /* if winning bet, add to player winnings balance */\n      if (won) \n      {\n        address winner = b.player;\n       if(!winners[winner]){\n        uint index = numberOfWinners++;\n\n        winners[winner] = true;\n        lutWinners[index] = winner;\n\n        }\n        uint payout = payouts[b.betType] * betAmount;\n       winnings[winner] += payout;\n        Winner memory newWinner = Winner({\n          winner : winner,\n          winnings : payout\n          });\n          spinWinners.push(newWinner);\n        }\n    }\n    \n\n    /* delete all bets */\n    delete bets;\n    /* reset necessaryBalance */\n    necessaryBalance = 0;\n    /* check if to much money in the bank */\n    if (address(this).balance > maxAmountAllowedInTheBank) takeProfits();\n    /* returns 'random' number to UI */\n    emit RandomNumber(number);\n    latestWinningNumber = number;\n  }\n\n\nfunction getLatestWinningNumber() public view returns (uint256) {\n        return latestWinningNumber;\n    }\n\n\nfunction getWinners() public view returns (Winner[] memory) {\n    //Winner[] memory winnerList = new Winner[](spinWinners.length);\n    // for (uint i = 0; i < spinWinners.length; i++) {\n    //     winnerList[i].winner = spin[i];\n    //     winnerList[i].winnings = spinWinnings[winnerList[i].winner];\n    // }\n    return spinWinners;\n}\n\n\n\n\n\n\n  \n\n    function isRed(uint number) public view returns (bool) {\n        return reds.contains(number);\n    }\n\n    function isBlack(uint number) public view returns (bool) {\n        return blacks.contains(number);\n    }\n\n  function cashOut() public {\n    address player = msg.sender;\n    uint256 amount = winnings[player];\n    require(amount > 0);\n    require(amount <= address(this).balance);\n    winnings[player] = 0;\n    payable(player).transfer(amount);\n  }\n  \n  function takeProfits() internal {\n    uint amount = address(this).balance - maxAmountAllowedInTheBank;\n    if (amount > 0) payable(address(creator)).transfer(amount);\n  }\n  \n\n\n  \n \n}\n\n\n\n\n\n",
  "sourcePath": "/Users/epushett/Desktop/solidity_proj/final/contracts/Roulette.sol",
  "compiler": {
    "name": "solc",
    "version": "0.8.17+commit.8df45f5f.Emscripten.clang"
  },
  "schemaVersion": "3.4.11",
  "updatedAt": "2023-04-01T20:09:26.747Z",
  "networkType": "ethereum",
  "devdoc": {
    "kind": "dev",
    "methods": {},
    "version": 1
  },
  "userdoc": {
    "kind": "user",
    "methods": {},
    "version": 1
  }
}