{
  "contractName": "Roulette",
  "abi": [
    {
      "inputs": [],
      "stateMutability": "payable",
      "type": "constructor",
      "payable": true
    },
    {
      "anonymous": false,
      "inputs": [
        {
          "indexed": false,
          "internalType": "uint256",
          "name": "number",
          "type": "uint256"
        }
      ],
      "name": "RandomNumber",
      "type": "event"
    },
    {
      "inputs": [
        {
          "internalType": "uint256",
          "name": "",
          "type": "uint256"
        }
      ],
      "name": "bets",
      "outputs": [
        {
          "internalType": "address",
          "name": "player",
          "type": "address"
        },
        {
          "internalType": "uint8",
          "name": "betType",
          "type": "uint8"
        },
        {
          "internalType": "uint8",
          "name": "number",
          "type": "uint8"
        },
        {
          "internalType": "uint256",
          "name": "betAmount",
          "type": "uint256"
        }
      ],
      "stateMutability": "view",
      "type": "function",
      "constant": true
    },
    {
      "inputs": [],
      "name": "numberOfWinners",
      "outputs": [
        {
          "internalType": "uint256",
          "name": "",
          "type": "uint256"
        }
      ],
      "stateMutability": "view",
      "type": "function",
      "constant": true
    },
    {
      "inputs": [
        {
          "internalType": "address",
          "name": "",
          "type": "address"
        }
      ],
      "name": "winners",
      "outputs": [
        {
          "internalType": "bool",
          "name": "",
          "type": "bool"
        }
      ],
      "stateMutability": "view",
      "type": "function",
      "constant": true
    },
    {
      "inputs": [
        {
          "internalType": "address",
          "name": "",
          "type": "address"
        }
      ],
      "name": "winnings",
      "outputs": [
        {
          "internalType": "uint256",
          "name": "",
          "type": "uint256"
        }
      ],
      "stateMutability": "view",
      "type": "function",
      "constant": true
    },
    {
      "inputs": [],
      "name": "RedBlack",
      "outputs": [],
      "stateMutability": "nonpayable",
      "type": "function"
    },
    {
      "inputs": [],
      "name": "getStatus",
      "outputs": [
        {
          "internalType": "uint256",
          "name": "",
          "type": "uint256"
        },
        {
          "internalType": "uint256",
          "name": "",
          "type": "uint256"
        },
        {
          "internalType": "uint256",
          "name": "",
          "type": "uint256"
        },
        {
          "internalType": "uint256",
          "name": "",
          "type": "uint256"
        },
        {
          "internalType": "uint256",
          "name": "",
          "type": "uint256"
        }
      ],
      "stateMutability": "view",
      "type": "function",
      "constant": true
    },
    {
      "inputs": [],
      "name": "addEther",
      "outputs": [],
      "stateMutability": "payable",
      "type": "function",
      "payable": true
    },
    {
      "inputs": [],
      "name": "getBets",
      "outputs": [
        {
          "components": [
            {
              "internalType": "address",
              "name": "player",
              "type": "address"
            },
            {
              "internalType": "uint8",
              "name": "betType",
              "type": "uint8"
            },
            {
              "internalType": "uint8",
              "name": "number",
              "type": "uint8"
            },
            {
              "internalType": "uint256",
              "name": "betAmount",
              "type": "uint256"
            }
          ],
          "internalType": "struct Roulette.Bet[]",
          "name": "",
          "type": "tuple[]"
        }
      ],
      "stateMutability": "view",
      "type": "function",
      "constant": true
    },
    {
      "inputs": [
        {
          "internalType": "uint8",
          "name": "number",
          "type": "uint8"
        },
        {
          "internalType": "uint8",
          "name": "betType",
          "type": "uint8"
        }
      ],
      "name": "bet",
      "outputs": [],
      "stateMutability": "payable",
      "type": "function",
      "payable": true
    },
    {
      "inputs": [],
      "name": "spinWheel",
      "outputs": [],
      "stateMutability": "nonpayable",
      "type": "function"
    },
    {
      "inputs": [],
      "name": "getWinners",
      "outputs": [
        {
          "components": [
            {
              "internalType": "address",
              "name": "winner",
              "type": "address"
            },
            {
              "internalType": "uint256",
              "name": "winnings",
              "type": "uint256"
            }
          ],
          "internalType": "struct Roulette.Winner[]",
          "name": "",
          "type": "tuple[]"
        }
      ],
      "stateMutability": "view",
      "type": "function",
      "constant": true
    },
    {
      "inputs": [
        {
          "internalType": "uint256",
          "name": "number",
          "type": "uint256"
        }
      ],
      "name": "isRed",
      "outputs": [
        {
          "internalType": "bool",
          "name": "",
          "type": "bool"
        }
      ],
      "stateMutability": "view",
      "type": "function",
      "constant": true
    },
    {
      "inputs": [
        {
          "internalType": "uint256",
          "name": "number",
          "type": "uint256"
        }
      ],
      "name": "isBlack",
      "outputs": [
        {
          "internalType": "bool",
          "name": "",
          "type": "bool"
        }
      ],
      "stateMutability": "view",
      "type": "function",
      "constant": true
    },
    {
      "inputs": [],
      "name": "cashOut",
      "outputs": [],
      "stateMutability": "nonpayable",
      "type": "function"
    },
    {
      "inputs": [],
      "name": "creatorKill",
      "outputs": [],
      "stateMutability": "nonpayable",
      "type": "function"
    }
  ],
  "bytecode": "0x608060405233600360006101000a81548173ffffffffffffffffffffffffffffffffffffffff021916908373ffffffffffffffffffffffffffffffffffffffff1602179055506000600181905550426002819055506040518060600160405280600260ff168152602001600260ff168152602001602460ff1681525060099060036200008d92919062000459565b50604051806102400160405280602060ff168152602001601360ff168152602001601560ff168152602001601960ff168152602001602260ff168152602001601b60ff168152602001602460ff168152602001601e60ff168152602001601760ff168152602001600560ff168152602001601060ff168152602001600160ff168152602001600e60ff168152602001600960ff168152602001601260ff168152602001600760ff168152602001600c60ff168152602001600360ff16815250600b9060126200015e92919062000507565b50604051806102400160405280600f60ff168152602001600460ff168152602001600260ff168152602001601160ff168152602001600660ff168152602001600d60ff168152602001600b60ff168152602001600860ff168152602001600a60ff168152602001601860ff168152602001602160ff168152602001601460ff168152602001601f60ff168152602001601660ff168152602001601d60ff168152602001601c60ff168152602001602360ff168152602001601a60ff16815250600c9060126200022f92919062000507565b50620002406200029e60201b60201c565b6040518060600160405280600160ff168152602001600160ff168152602001602460ff16815250600a9060036200027992919062000459565b50662386f26fc100006000819055506801158e460913d0000060048190555062000689565b60005b600b805490508110156200031a5762000303600b8281548110620002ca57620002c9620005d4565b5b90600052602060002090602091828204019190069054906101000a900460ff1660ff16600d6200039a60201b620012091790919060201c565b50808062000311906200063c565b915050620002a1565b5060005b600c80549050811015620003975762000380600c8281548110620003475762000346620005d4565b5b90600052602060002090602091828204019190069054906101000a900460ff1660ff16600f6200039a60201b620012091790919060201c565b5080806200038e906200063c565b9150506200031e565b50565b6000620003b4836000018360001b620003bc60201b60201c565b905092915050565b6000620003d083836200043660201b60201c565b6200042b57826000018290806001815401808255809150506001900390600052602060002001600090919091909150558260000180549050836001016000848152602001908152602001600020819055506001905062000430565b600090505b92915050565b600080836001016000848152602001908152602001600020541415905092915050565b82805482825590600052602060002090601f01602090048101928215620004f45791602002820160005b83821115620004c357835183826101000a81548160ff021916908360ff160217905550926020019260010160208160000104928301926001030262000483565b8015620004f25782816101000a81549060ff0219169055600101602081600001049283019260010302620004c3565b505b509050620005039190620005b5565b5090565b82805482825590600052602060002090601f01602090048101928215620005a25791602002820160005b838211156200057157835183826101000a81548160ff021916908360ff160217905550926020019260010160208160000104928301926001030262000531565b8015620005a05782816101000a81549060ff021916905560010160208160000104928301926001030262000571565b505b509050620005b19190620005b5565b5090565b5b80821115620005d0576000816000905550600101620005b6565b5090565b7f4e487b7100000000000000000000000000000000000000000000000000000000600052603260045260246000fd5b7f4e487b7100000000000000000000000000000000000000000000000000000000600052601160045260246000fd5b6000819050919050565b6000620006498262000632565b91507fffffffffffffffffffffffffffffffffffffffffffffffffffffffffffffffff82036200067e576200067d62000603565b5b600182019050919050565b611d7780620006996000396000f3fe6080604052600436106100e85760003560e01c80638894dd2b1161008a578063ab561c1611610059578063ab561c1614610292578063d773f46e146102cf578063df15c37e146102eb578063ea3a149914610316576100e8565b80638894dd2b1461021b5780638acfaca9146102255780638c0e554f14610250578063a6afd5fd14610267576100e8565b806322af00fa116100c657806322af00fa146101585780634e69d560146101985780636bd5450a146101c7578063793cd71e14610204576100e8565b80631392e54f146100ed57806315ecef921461012a5780631844989f14610141575b600080fd5b3480156100f957600080fd5b50610114600480360381019061010f91906113cd565b610353565b6040516101219190611415565b60405180910390f35b34801561013657600080fd5b5061013f610370565b005b34801561014d57600080fd5b506101566108e3565b005b34801561016457600080fd5b5061017f600480360381019061017a91906113cd565b6109c3565b60405161018f949392919061149c565b60405180910390f35b3480156101a457600080fd5b506101ad610a3d565b6040516101be9594939291906114e1565b60405180910390f35b3480156101d357600080fd5b506101ee60048036038101906101e99190611560565b610ab3565b6040516101fb9190611415565b60405180910390f35b34801561021057600080fd5b50610219610ad3565b005b610223610bc6565b005b34801561023157600080fd5b5061023a610bc8565b604051610247919061158d565b60405180910390f35b34801561025c57600080fd5b50610265610bce565b005b34801561027357600080fd5b5061027c610c68565b60405161028991906116d9565b60405180910390f35b34801561029e57600080fd5b506102b960048036038101906102b491906113cd565b610d61565b6040516102c69190611415565b60405180910390f35b6102e960048036038101906102e49190611727565b610d7e565b005b3480156102f757600080fd5b50610300611067565b60405161030d9190611845565b60405180910390f35b34801561032257600080fd5b5061033d60048036038101906103389190611560565b6111f1565b60405161034a919061158d565b60405180910390f35b600061036982600f61122390919063ffffffff16565b9050919050565b60006011805490501161038257600080fd5b600254421161039057600080fd5b42600281905550600044905060006001436103ab9190611896565b4090506000601160016011805490506103c49190611896565b815481106103d5576103d46118ca565b5b90600052602060002090600202016040518060800160405290816000820160009054906101000a900473ffffffffffffffffffffffffffffffffffffffff1673ffffffffffffffffffffffffffffffffffffffff1673ffffffffffffffffffffffffffffffffffffffff1681526020016000820160149054906101000a900460ff1660ff1660ff1681526020016000820160159054906101000a900460ff1660ff1660ff1681526020016001820154815250509050600060254285858560200151866000015187604001516040516020016104b5969594939291906119c3565b6040516020818303038152906040528051906020012060001c6104d89190611a62565b905060005b60118054905081101561088f5760008060118381548110610501576105006118ca565b5b90600052602060002090600202016040518060800160405290816000820160009054906101000a900473ffffffffffffffffffffffffffffffffffffffff1673ffffffffffffffffffffffffffffffffffffffff1673ffffffffffffffffffffffffffffffffffffffff1681526020016000820160149054906101000a900460ff1660ff1660ff1681526020016000820160159054906101000a900460ff1660ff1660ff1681526020016001820154815250509050600084036105e3576002816020015160ff161480156105dc57506000816040015160ff16145b91506106ac565b6002816020015160ff16036106035783816040015160ff161491506106ab565b6001816020015160ff1603610660576000816040015160ff16036106385760006002856106309190611a62565b14915061065b565b6001816040015160ff160361065a5760016002856106569190611a62565b1491505b5b6106aa565b6000816020015160ff16036106a95761067f816040015160ff16610353565b1561068d57600191506106a8565b61069d816040015160ff16610d61565b156106a757600191505b5b5b5b5b5b811561087a57600081600001519050600660008273ffffffffffffffffffffffffffffffffffffffff1673ffffffffffffffffffffffffffffffffffffffff16815260200190815260200160002060009054906101000a900460ff166107d35760006005600081548092919061072190611a93565b9190505590506001600660008473ffffffffffffffffffffffffffffffffffffffff1673ffffffffffffffffffffffffffffffffffffffff16815260200190815260200160002060006101000a81548160ff021916908315150217905550816007600083815260200190815260200160002060006101000a81548173ffffffffffffffffffffffffffffffffffffffff021916908373ffffffffffffffffffffffffffffffffffffffff160217905550505b600080546009846020015160ff16815481106107f2576107f16118ca565b5b90600052602060002090602091828204019190069054906101000a900460ff1660ff1661081f9190611adb565b905080600860008473ffffffffffffffffffffffffffffffffffffffff1673ffffffffffffffffffffffffffffffffffffffff16815260200190815260200160002060008282546108709190611b1d565b9250508190555050505b5050808061088790611a93565b9150506104dd565b506011600061089e91906112d0565b60006001819055507fec6cdc8e735e4069f6e89062582f3e5532a8e71373e7ef2962fa916cf2af21f2816040516108d5919061158d565b60405180910390a150505050565b60005b600b805490508110156109515761093d600b828154811061090a576109096118ca565b5b90600052602060002090602091828204019190069054906101000a900460ff1660ff16600d61120990919063ffffffff16565b50808061094990611a93565b9150506108e6565b5060005b600c805490508110156109c0576109ac600c8281548110610979576109786118ca565b5b90600052602060002090602091828204019190069054906101000a900460ff1660ff16600f61120990919063ffffffff16565b5080806109b890611a93565b915050610955565b50565b601181815481106109d357600080fd5b90600052602060002090600202016000915090508060000160009054906101000a900473ffffffffffffffffffffffffffffffffffffffff16908060000160149054906101000a900460ff16908060000160159054906101000a900460ff16908060010154905084565b6000806000806000601180549050600054601180549050610a5e9190611adb565b60025447600860003373ffffffffffffffffffffffffffffffffffffffff1673ffffffffffffffffffffffffffffffffffffffff16815260200190815260200160002054945094509450945094509091929394565b60066020528060005260406000206000915054906101000a900460ff1681565b60003390506000600860008373ffffffffffffffffffffffffffffffffffffffff1673ffffffffffffffffffffffffffffffffffffffff16815260200190815260200160002054905060008111610b2957600080fd5b47811115610b3657600080fd5b6000600860008473ffffffffffffffffffffffffffffffffffffffff1673ffffffffffffffffffffffffffffffffffffffff168152602001908152602001600020819055508173ffffffffffffffffffffffffffffffffffffffff166108fc829081150290604051600060405180830381858888f19350505050158015610bc1573d6000803e3d6000fd5b505050565b565b60055481565b600360009054906101000a900473ffffffffffffffffffffffffffffffffffffffff1673ffffffffffffffffffffffffffffffffffffffff163373ffffffffffffffffffffffffffffffffffffffff1614610c2857600080fd5b6000600360009054906101000a900473ffffffffffffffffffffffffffffffffffffffff1690508073ffffffffffffffffffffffffffffffffffffffff16ff5b60606011805480602002602001604051908101604052809291908181526020016000905b82821015610d5857838290600052602060002090600202016040518060800160405290816000820160009054906101000a900473ffffffffffffffffffffffffffffffffffffffff1673ffffffffffffffffffffffffffffffffffffffff1673ffffffffffffffffffffffffffffffffffffffff1681526020016000820160149054906101000a900460ff1660ff1660ff1681526020016000820160159054906101000a900460ff1660ff1660ff16815260200160018201548152505081526020019060010190610c8c565b50505050905090565b6000610d7782600d61122390919063ffffffff16565b9050919050565b6000543414610dc2576040517f08c379a0000000000000000000000000000000000000000000000000000000008152600401610db990611bae565b60405180910390fd5b60008160ff1610158015610dda575060058160ff1611155b610e19576040517f08c379a0000000000000000000000000000000000000000000000000000000008152600401610e1090611c1a565b60405180910390fd5b60008260ff1610158015610e695750600a8160ff1681548110610e3f57610e3e6118ca565b5b90600052602060002090602091828204019190069054906101000a900460ff1660ff168260ff1611155b610ea8576040517f08c379a0000000000000000000000000000000000000000000000000000000008152600401610e9f90611c86565b60405180910390fd5b60003460098360ff1681548110610ec257610ec16118ca565b5b90600052602060002090602091828204019190069054906101000a900460ff1660ff16610eef9190611adb565b9050600081600154610f019190611b1d565b9050478110610f45576040517f08c379a0000000000000000000000000000000000000000000000000000000008152600401610f3c90611cf2565b60405180910390fd5b8160016000828254610f579190611b1d565b92505081905550600060405180608001604052803373ffffffffffffffffffffffffffffffffffffffff1681526020018560ff1681526020018660ff168152602001348152509050601181908060018154018082558091505060019003906000526020600020906002020160009091909190915060008201518160000160006101000a81548173ffffffffffffffffffffffffffffffffffffffff021916908373ffffffffffffffffffffffffffffffffffffffff16021790555060208201518160000160146101000a81548160ff021916908360ff16021790555060408201518160000160156101000a81548160ff021916908360ff1602179055506060820151816001015550505050505050565b6060600060055467ffffffffffffffff81111561108757611086611d12565b5b6040519080825280602002602001820160405280156110c057816020015b6110ad6112f4565b8152602001906001900390816110a55790505b50905060005b6005548110156111e9576007600082815260200190815260200160002060009054906101000a900473ffffffffffffffffffffffffffffffffffffffff16828281518110611117576111166118ca565b5b60200260200101516000019073ffffffffffffffffffffffffffffffffffffffff16908173ffffffffffffffffffffffffffffffffffffffff16815250506008600083838151811061116c5761116b6118ca565b5b60200260200101516000015173ffffffffffffffffffffffffffffffffffffffff1673ffffffffffffffffffffffffffffffffffffffff168152602001908152602001600020548282815181106111c6576111c56118ca565b5b6020026020010151602001818152505080806111e190611a93565b9150506110c6565b508091505090565b60086020528060005260406000206000915090505481565b600061121b836000018360001b61123d565b905092915050565b6000611235836000018360001b6112ad565b905092915050565b600061124983836112ad565b6112a25782600001829080600181540180825580915050600190039060005260206000200160009091909190915055826000018054905083600101600084815260200190815260200160002081905550600190506112a7565b600090505b92915050565b600080836001016000848152602001908152602001600020541415905092915050565b50805460008255600202906000526020600020908101906112f19190611324565b50565b6040518060400160405280600073ffffffffffffffffffffffffffffffffffffffff168152602001600081525090565b5b8082111561138e57600080820160006101000a81549073ffffffffffffffffffffffffffffffffffffffff02191690556000820160146101000a81549060ff02191690556000820160156101000a81549060ff0219169055600182016000905550600201611325565b5090565b600080fd5b6000819050919050565b6113aa81611397565b81146113b557600080fd5b50565b6000813590506113c7816113a1565b92915050565b6000602082840312156113e3576113e2611392565b5b60006113f1848285016113b8565b91505092915050565b60008115159050919050565b61140f816113fa565b82525050565b600060208201905061142a6000830184611406565b92915050565b600073ffffffffffffffffffffffffffffffffffffffff82169050919050565b600061145b82611430565b9050919050565b61146b81611450565b82525050565b600060ff82169050919050565b61148781611471565b82525050565b61149681611397565b82525050565b60006080820190506114b16000830187611462565b6114be602083018661147e565b6114cb604083018561147e565b6114d8606083018461148d565b95945050505050565b600060a0820190506114f6600083018861148d565b611503602083018761148d565b611510604083018661148d565b61151d606083018561148d565b61152a608083018461148d565b9695505050505050565b61153d81611450565b811461154857600080fd5b50565b60008135905061155a81611534565b92915050565b60006020828403121561157657611575611392565b5b60006115848482850161154b565b91505092915050565b60006020820190506115a2600083018461148d565b92915050565b600081519050919050565b600082825260208201905092915050565b6000819050602082019050919050565b6115dd81611450565b82525050565b6115ec81611471565b82525050565b6115fb81611397565b82525050565b60808201600082015161161760008501826115d4565b50602082015161162a60208501826115e3565b50604082015161163d60408501826115e3565b50606082015161165060608501826115f2565b50505050565b60006116628383611601565b60808301905092915050565b6000602082019050919050565b6000611686826115a8565b61169081856115b3565b935061169b836115c4565b8060005b838110156116cc5781516116b38882611656565b97506116be8361166e565b92505060018101905061169f565b5085935050505092915050565b600060208201905081810360008301526116f3818461167b565b905092915050565b61170481611471565b811461170f57600080fd5b50565b600081359050611721816116fb565b92915050565b6000806040838503121561173e5761173d611392565b5b600061174c85828601611712565b925050602061175d85828601611712565b9150509250929050565b600081519050919050565b600082825260208201905092915050565b6000819050602082019050919050565b6040820160008201516117a960008501826115d4565b5060208201516117bc60208501826115f2565b50505050565b60006117ce8383611793565b60408301905092915050565b6000602082019050919050565b60006117f282611767565b6117fc8185611772565b935061180783611783565b8060005b8381101561183857815161181f88826117c2565b975061182a836117da565b92505060018101905061180b565b5085935050505092915050565b6000602082019050818103600083015261185f81846117e7565b905092915050565b7f4e487b7100000000000000000000000000000000000000000000000000000000600052601160045260246000fd5b60006118a182611397565b91506118ac83611397565b92508282039050818111156118c4576118c3611867565b5b92915050565b7f4e487b7100000000000000000000000000000000000000000000000000000000600052603260045260246000fd5b6000819050919050565b61191461190f82611397565b6118f9565b82525050565b6000819050919050565b6000819050919050565b61193f61193a8261191a565b611924565b82525050565b60008160f81b9050919050565b600061195d82611945565b9050919050565b61197561197082611471565b611952565b82525050565b60008160601b9050919050565b60006119938261197b565b9050919050565b60006119a582611988565b9050919050565b6119bd6119b882611450565b61199a565b82525050565b60006119cf8289611903565b6020820191506119df8288611903565b6020820191506119ef828761192e565b6020820191506119ff8286611964565b600182019150611a0f82856119ac565b601482019150611a1f8284611964565b600182019150819050979650505050505050565b7f4e487b7100000000000000000000000000000000000000000000000000000000600052601260045260246000fd5b6000611a6d82611397565b9150611a7883611397565b925082611a8857611a87611a33565b5b828206905092915050565b6000611a9e82611397565b91507fffffffffffffffffffffffffffffffffffffffffffffffffffffffffffffffff8203611ad057611acf611867565b5b600182019050919050565b6000611ae682611397565b9150611af183611397565b9250828202611aff81611397565b91508282048414831517611b1657611b15611867565b5b5092915050565b6000611b2882611397565b9150611b3383611397565b9250828201905080821115611b4b57611b4a611867565b5b92915050565b600082825260208201905092915050565b7f496e636f72726563742062657420616d6f756e74000000000000000000000000600082015250565b6000611b98601483611b51565b9150611ba382611b62565b602082019050919050565b60006020820190508181036000830152611bc781611b8b565b9050919050565b7f496e76616c696420626574207479706500000000000000000000000000000000600082015250565b6000611c04601083611b51565b9150611c0f82611bce565b602082019050919050565b60006020820190508181036000830152611c3381611bf7565b9050919050565b7f496e76616c6964206e756d626572000000000000000000000000000000000000600082015250565b6000611c70600e83611b51565b9150611c7b82611c3a565b602082019050919050565b60006020820190508181036000830152611c9f81611c63565b9050919050565b7f496e73756666696369656e742062616c616e6365000000000000000000000000600082015250565b6000611cdc601483611b51565b9150611ce782611ca6565b602082019050919050565b60006020820190508181036000830152611d0b81611ccf565b9050919050565b7f4e487b7100000000000000000000000000000000000000000000000000000000600052604160045260246000fdfea264697066735822122008c0a5ae9a653a18010640f53ac66878b8a310bc5d569f475a035421090837a564736f6c63430008110033",
  "immutableReferences": {},
  "source": "// SPDX-License-Identifier: MIT\npragma solidity >=0.4.22 <0.9.0;\nimport \"@openzeppelin/contracts/utils/structs/EnumerableSet.sol\";\n\n\ncontract Roulette {\n  \n  uint betAmount;\n  uint necessaryBalance;\n  uint nextRoundTimestamp;\n  address creator;\n  uint256 maxAmountAllowedInTheBank;\n  uint public numberOfWinners;\n  mapping(address => bool) public winners;\n  mapping(uint => address) private lutWinners;\n  mapping(address => uint) public winnings;\n  uint8[] payouts;\n  uint8[] numberRange;\n  uint8[] red;\n  uint8[] black;\n    \n  using EnumerableSet for EnumerableSet.UintSet;\n\n    EnumerableSet.UintSet reds;\n    EnumerableSet.UintSet blacks;\n  \n  /*\n    BetTypes are as follow:\n      0: color\n      1: odd/even\n      2: number\n      \n    Depending on the BetType, number will be:\n      color: 0 for black, 1 for red\n      odd/even: 0 for even, 1 for odd\n      number: number\n  */\n  \n  struct Bet {\n    address player;\n    uint8 betType;\n    uint8 number;\n    uint256 betAmount;\n  }\n  Bet[] public bets;\n\n\n\n    struct Winner {\n    address winner;\n    uint winnings;\n}\n  \n  constructor()  payable {\n    creator = msg.sender;\n    necessaryBalance = 0;\n    nextRoundTimestamp = block.timestamp;\n    payouts = [2,2,36];\n    red = [32,19,21,25,34,27,36,30,23,5,16,1,14,9,18,7,12,3];\n    black = [15, 4, 2, 17, 6, 13, 11, 8, 10, 24, 33, 20, 31, 22, 29, 28, 35, 26];\n    RedBlack();\n\n    \n    \n\n\n\n    \n\n    //times payout for each win type\n\n   numberRange = [1,1,36];\n\n    // Bet type 0: black/red (1=black, 2=red)\n    // Bet type 1: even/odd (1=odd, 2=even)\n    // Bet type 2: number (1-36)\n\n     betAmount = 10000000000000000; /* 0.01 ether */\n     maxAmountAllowedInTheBank = 20000000000000000000; /* 20 ether */\n  }\n\n  \n\n  event RandomNumber(uint256 number);\n  \n  function RedBlack() public{\n\n    for (uint i = 0; i < red.length; i++) {\n            reds.add(red[i]);\n    }\n\n    for (uint i = 0; i < black.length; i++) {\n            blacks.add(black[i]);\n    }\n\n  }\n\n  function getStatus() public view returns(uint, uint, uint, uint, uint) {\n    return (\n      bets.length,             // number of active bets\n      bets.length * betAmount, // value of active bets\n      nextRoundTimestamp,      // when can we play again\n      address(this).balance,   // roulette balance\n      winnings[msg.sender]     // winnings of player\n    ); \n  }\n\n\n  //must run when start server in order to have eth in contract  \n   function addEther() payable public {}\n\n  \n  function getBets() public view returns (Bet[] memory) {\n    return bets;\n}\n\n\n\n   \n  function bet(uint8 number, uint8 betType) payable public {\n\n       /* \n       A bet is valid when:\n       1 - the value of the bet is correct (=betAmount)\n       2 - betType is kblock.timestampn (between 0 and 5)\n       3 - the option betted is valid (don't bet on 37!)\n       4 - the bank has sufficient funds to pay the bet\n    */\n\n    require(msg.value == betAmount, \"Incorrect bet amount\"); // Check that the bet value is correct\n    require(betType >= 0 && betType <= 5, \"Invalid bet type\"); // Check that the bet type is valid\n    require(number >= 0 && number <= numberRange[betType], \"Invalid number\"); // Check that the number is valid\n    uint payoutForThisBet = payouts[betType] * msg.value;\n    uint provisionalBalance = necessaryBalance + payoutForThisBet;\n    require(provisionalBalance < address(this).balance, \"Insufficient balance\"); // Check that the bank has sufficient funds to pay the bet\n    necessaryBalance += payoutForThisBet;\n    Bet memory newBet = Bet({\n      betType: betType,\n      player: msg.sender,\n      number: number,\n      betAmount : msg.value\n    });\n    bets.push(newBet);\n  }\n\n\n  function spinWheel() public {\n    /* are there any bets? */\n    require(bets.length > 0);\n    /* are we allowed to spin the wheel? */\n    require(block.timestamp > nextRoundTimestamp);\n    /* next time we are allowed to spin the wheel again */\n    nextRoundTimestamp = block.timestamp;\n    /* calculate 'random' number */\n    uint diff = block.difficulty;\n    bytes32 hash = blockhash(block.number-1);\n    Bet memory lb = bets[bets.length-1];\n    uint number = uint(keccak256(abi.encodePacked(block.timestamp, diff, hash, lb.betType, lb.player, lb.number))) % 37;\n    /* check every bet for this number */\n    for (uint i = 0; i < bets.length; i++) {\n      bool won = false;\n      Bet memory b = bets[i];\n      if (number == 0) {\n        won = (b.betType == 2 && b.number == 0);                   /* bet on 0 */\n      } else {\n        if (b.betType == 2) { \n          won = (b.number == number);                              /* bet on number */\n        } \n        else if (b.betType == 1) {\n          if (b.number == 0){ \n          won = (number % 2 == 0);\n          }              /* bet on even */\n          else if (b.number == 1){ \n          won = (number % 2 == 1);\n          }              /* bet on odd */\n         }\n          else if (b.betType == 0) {                   \n            if (isBlack(b.number)) {                     /* bet on black */\n              won = true;\n          } else {                                                 /* bet on red */\n            if (isRed(b.number)) {\n              won = true;\n          }\n        }\n      }\n    }\n  \n      /* if winning bet, add to player winnings balance */\n      if (won) \n      {\n        address winner = b.player;\n       if(!winners[winner]){\n        uint index = numberOfWinners++;\n        winners[winner] = true;\n        lutWinners[index] = winner;\n        }\n        uint payout = payouts[b.betType] * betAmount;\n       winnings[winner] += payout;\n       }\n    }\n    \n\n    /* delete all bets */\n    delete bets;\n    /* reset necessaryBalance */\n    necessaryBalance = 0;\n    /* check if to much money in the bank */\n    //if (address(this).balance > maxAmountAllowedInTheBank) takeProfits();\n    /* returns 'random' number to UI */\n    emit RandomNumber(number);\n  }\n\n\n\nfunction getWinners() public view returns (Winner[] memory) {\n    Winner[] memory winnerList = new Winner[](numberOfWinners);\n    for (uint i = 0; i < numberOfWinners; i++) {\n        winnerList[i].winner = lutWinners[i];\n        winnerList[i].winnings = winnings[winnerList[i].winner];\n    }\n    return winnerList;\n}\n\n  \n\n    function isRed(uint number) public view returns (bool) {\n        return reds.contains(number);\n    }\n\n    function isBlack(uint number) public view returns (bool) {\n        return blacks.contains(number);\n    }\n\n  function cashOut() public {\n    address player = msg.sender;\n    uint256 amount = winnings[player];\n    require(amount > 0);\n    require(amount <= address(this).balance);\n    winnings[player] = 0;\n    payable(player).transfer(amount);\n  }\n  \n  function takeProfits() internal {\n    uint amount = address(this).balance - maxAmountAllowedInTheBank;\n    if (amount > 0) payable(address(creator)).transfer(amount);\n  }\n  \n  function creatorKill() public {\n    require(msg.sender == creator);\n    address payable payableCreator = payable(creator);\n    selfdestruct(payableCreator);\n\n  }\n\n  \n \n}\n\n\n\n\n\n",
  "sourcePath": "/Users/epushett/Desktop/solidity_proj/final/contracts/Roulette.sol",
  "compiler": {
    "name": "solc",
    "version": "0.8.17+commit.8df45f5f.Emscripten.clang"
  },
  "schemaVersion": "3.4.11",
  "updatedAt": "2023-03-30T20:10:25.057Z",
  "networkType": "ethereum",
  "devdoc": {
    "kind": "dev",
    "methods": {},
    "version": 1
  },
  "userdoc": {
    "kind": "user",
    "methods": {},
    "version": 1
  }
}