{
  "contractName": "Roulette",
  "abi": [
    {
      "inputs": [],
      "stateMutability": "payable",
      "type": "constructor",
      "payable": true
    },
    {
      "anonymous": false,
      "inputs": [
        {
          "indexed": false,
          "internalType": "uint256",
          "name": "number",
          "type": "uint256"
        }
      ],
      "name": "RandomNumber",
      "type": "event"
    },
    {
      "inputs": [
        {
          "internalType": "uint256",
          "name": "",
          "type": "uint256"
        }
      ],
      "name": "bets",
      "outputs": [
        {
          "internalType": "address",
          "name": "player",
          "type": "address"
        },
        {
          "internalType": "uint8",
          "name": "betType",
          "type": "uint8"
        },
        {
          "internalType": "uint8",
          "name": "number",
          "type": "uint8"
        },
        {
          "internalType": "uint256",
          "name": "betAmount",
          "type": "uint256"
        }
      ],
      "stateMutability": "view",
      "type": "function",
      "constant": true
    },
    {
      "inputs": [],
      "name": "latestWinningNumber",
      "outputs": [
        {
          "internalType": "uint256",
          "name": "",
          "type": "uint256"
        }
      ],
      "stateMutability": "view",
      "type": "function",
      "constant": true
    },
    {
      "inputs": [],
      "name": "numberOfWinners",
      "outputs": [
        {
          "internalType": "uint256",
          "name": "",
          "type": "uint256"
        }
      ],
      "stateMutability": "view",
      "type": "function",
      "constant": true
    },
    {
      "inputs": [
        {
          "internalType": "address",
          "name": "",
          "type": "address"
        }
      ],
      "name": "winners",
      "outputs": [
        {
          "internalType": "bool",
          "name": "",
          "type": "bool"
        }
      ],
      "stateMutability": "view",
      "type": "function",
      "constant": true
    },
    {
      "inputs": [
        {
          "internalType": "address",
          "name": "",
          "type": "address"
        }
      ],
      "name": "winnings",
      "outputs": [
        {
          "internalType": "uint256",
          "name": "",
          "type": "uint256"
        }
      ],
      "stateMutability": "view",
      "type": "function",
      "constant": true
    },
    {
      "inputs": [],
      "name": "RedBlack",
      "outputs": [],
      "stateMutability": "nonpayable",
      "type": "function"
    },
    {
      "inputs": [],
      "name": "getStatus",
      "outputs": [
        {
          "internalType": "uint256",
          "name": "",
          "type": "uint256"
        },
        {
          "internalType": "uint256",
          "name": "",
          "type": "uint256"
        },
        {
          "internalType": "uint256",
          "name": "",
          "type": "uint256"
        },
        {
          "internalType": "uint256",
          "name": "",
          "type": "uint256"
        },
        {
          "internalType": "uint256",
          "name": "",
          "type": "uint256"
        }
      ],
      "stateMutability": "view",
      "type": "function",
      "constant": true
    },
    {
      "inputs": [],
      "name": "addEther",
      "outputs": [],
      "stateMutability": "payable",
      "type": "function",
      "payable": true
    },
    {
      "inputs": [],
      "name": "getBets",
      "outputs": [
        {
          "components": [
            {
              "internalType": "address",
              "name": "player",
              "type": "address"
            },
            {
              "internalType": "uint8",
              "name": "betType",
              "type": "uint8"
            },
            {
              "internalType": "uint8",
              "name": "number",
              "type": "uint8"
            },
            {
              "internalType": "uint256",
              "name": "betAmount",
              "type": "uint256"
            }
          ],
          "internalType": "struct Roulette.Bet[]",
          "name": "",
          "type": "tuple[]"
        }
      ],
      "stateMutability": "view",
      "type": "function",
      "constant": true
    },
    {
      "inputs": [],
      "name": "getCreator",
      "outputs": [
        {
          "internalType": "address",
          "name": "",
          "type": "address"
        }
      ],
      "stateMutability": "view",
      "type": "function",
      "constant": true
    },
    {
      "inputs": [
        {
          "internalType": "uint8",
          "name": "number",
          "type": "uint8"
        },
        {
          "internalType": "uint8",
          "name": "betType",
          "type": "uint8"
        }
      ],
      "name": "bet",
      "outputs": [],
      "stateMutability": "payable",
      "type": "function",
      "payable": true
    },
    {
      "inputs": [
        {
          "internalType": "address",
          "name": "player",
          "type": "address"
        }
      ],
      "name": "getWinnings",
      "outputs": [
        {
          "internalType": "uint256",
          "name": "",
          "type": "uint256"
        }
      ],
      "stateMutability": "view",
      "type": "function",
      "constant": true
    },
    {
      "inputs": [],
      "name": "spinWheel",
      "outputs": [],
      "stateMutability": "nonpayable",
      "type": "function"
    },
    {
      "inputs": [],
      "name": "getLatestWinningNumber",
      "outputs": [
        {
          "internalType": "uint256",
          "name": "",
          "type": "uint256"
        }
      ],
      "stateMutability": "view",
      "type": "function",
      "constant": true
    },
    {
      "inputs": [],
      "name": "getWinners",
      "outputs": [
        {
          "components": [
            {
              "internalType": "address",
              "name": "winner",
              "type": "address"
            },
            {
              "internalType": "uint256",
              "name": "winnings",
              "type": "uint256"
            }
          ],
          "internalType": "struct Roulette.Winner[]",
          "name": "",
          "type": "tuple[]"
        }
      ],
      "stateMutability": "view",
      "type": "function",
      "constant": true
    },
    {
      "inputs": [
        {
          "internalType": "uint256",
          "name": "number",
          "type": "uint256"
        }
      ],
      "name": "isRed",
      "outputs": [
        {
          "internalType": "bool",
          "name": "",
          "type": "bool"
        }
      ],
      "stateMutability": "view",
      "type": "function",
      "constant": true
    },
    {
      "inputs": [
        {
          "internalType": "uint256",
          "name": "number",
          "type": "uint256"
        }
      ],
      "name": "isBlack",
      "outputs": [
        {
          "internalType": "bool",
          "name": "",
          "type": "bool"
        }
      ],
      "stateMutability": "view",
      "type": "function",
      "constant": true
    },
    {
      "inputs": [],
      "name": "cashOut",
      "outputs": [],
      "stateMutability": "nonpayable",
      "type": "function"
    },
    {
      "inputs": [],
      "name": "creatorKill",
      "outputs": [],
      "stateMutability": "nonpayable",
      "type": "function"
    }
  ],
  "bytecode": "0x608060405233600360006101000a81548173ffffffffffffffffffffffffffffffffffffffff021916908373ffffffffffffffffffffffffffffffffffffffff1602179055506000600181905550426002819055506040518060600160405280600260ff168152602001600260ff168152602001602460ff1681525060099060036200008d92919062000459565b50604051806102400160405280602060ff168152602001601360ff168152602001601560ff168152602001601960ff168152602001602260ff168152602001601b60ff168152602001602460ff168152602001601e60ff168152602001601760ff168152602001600560ff168152602001601060ff168152602001600160ff168152602001600e60ff168152602001600960ff168152602001601260ff168152602001600760ff168152602001600c60ff168152602001600360ff16815250600b9060126200015e92919062000507565b50604051806102400160405280600f60ff168152602001600460ff168152602001600260ff168152602001601160ff168152602001600660ff168152602001600d60ff168152602001600b60ff168152602001600860ff168152602001600a60ff168152602001601860ff168152602001602160ff168152602001601460ff168152602001601f60ff168152602001601660ff168152602001601d60ff168152602001601c60ff168152602001602360ff168152602001601a60ff16815250600c9060126200022f92919062000507565b50620002406200029e60201b60201c565b6040518060600160405280600160ff168152602001600160ff168152602001602460ff16815250600a9060036200027992919062000459565b50662386f26fc100006000819055506801158e460913d0000060048190555062000689565b60005b600b805490508110156200031a5762000303600b8281548110620002ca57620002c9620005d4565b5b90600052602060002090602091828204019190069054906101000a900460ff1660ff16600e6200039a60201b620013901790919060201c565b50808062000311906200063c565b915050620002a1565b5060005b600c80549050811015620003975762000380600c8281548110620003475762000346620005d4565b5b90600052602060002090602091828204019190069054906101000a900460ff1660ff1660106200039a60201b620013901790919060201c565b5080806200038e906200063c565b9150506200031e565b50565b6000620003b4836000018360001b620003bc60201b60201c565b905092915050565b6000620003d083836200043660201b60201c565b6200042b57826000018290806001815401808255809150506001900390600052602060002001600090919091909150558260000180549050836001016000848152602001908152602001600020819055506001905062000430565b600090505b92915050565b600080836001016000848152602001908152602001600020541415905092915050565b82805482825590600052602060002090601f01602090048101928215620004f45791602002820160005b83821115620004c357835183826101000a81548160ff021916908360ff160217905550926020019260010160208160000104928301926001030262000483565b8015620004f25782816101000a81549060ff0219169055600101602081600001049283019260010302620004c3565b505b509050620005039190620005b5565b5090565b82805482825590600052602060002090601f01602090048101928215620005a25791602002820160005b838211156200057157835183826101000a81548160ff021916908360ff160217905550926020019260010160208160000104928301926001030262000531565b8015620005a05782816101000a81549060ff021916905560010160208160000104928301926001030262000571565b505b509050620005b19190620005b5565b5090565b5b80821115620005d0576000816000905550600101620005b6565b5090565b7f4e487b7100000000000000000000000000000000000000000000000000000000600052603260045260246000fd5b7f4e487b7100000000000000000000000000000000000000000000000000000000600052601160045260246000fd5b6000819050919050565b6000620006498262000632565b91507fffffffffffffffffffffffffffffffffffffffffffffffffffffffffffffffff82036200067e576200067d62000603565b5b600182019050919050565b611fa180620006996000396000f3fe6080604052600436106101145760003560e01c80638894dd2b116100a0578063cac954c911610064578063cac954c914610363578063d773f46e1461038e578063df15c37e146103aa578063ea3a1499146103d5578063f2abb6a51461041257610114565b80638894dd2b146102af5780638acfaca9146102b95780638c0e554f146102e4578063a6afd5fd146102fb578063ab561c161461032657610114565b806322af00fa116100e757806322af00fa146101af5780632858eff1146101ef5780634e69d5601461022c5780636bd5450a1461025b578063793cd71e1461029857610114565b80630ee2cb10146101195780631392e54f1461014457806315ecef92146101815780631844989f14610198575b600080fd5b34801561012557600080fd5b5061012e61043d565b60405161013b91906115e2565b60405180910390f35b34801561015057600080fd5b5061016b60048036038101906101669190611638565b610467565b6040516101789190611680565b60405180910390f35b34801561018d57600080fd5b50610196610484565b005b3480156101a457600080fd5b506101ad610a11565b005b3480156101bb57600080fd5b506101d660048036038101906101d19190611638565b610af1565b6040516101e694939291906116c6565b60405180910390f35b3480156101fb57600080fd5b5061021660048036038101906102119190611737565b610b6b565b6040516102239190611764565b60405180910390f35b34801561023857600080fd5b50610241610bb4565b60405161025295949392919061177f565b60405180910390f35b34801561026757600080fd5b50610282600480360381019061027d9190611737565b610c2a565b60405161028f9190611680565b60405180910390f35b3480156102a457600080fd5b506102ad610c4a565b005b6102b7610d3d565b005b3480156102c557600080fd5b506102ce610d3f565b6040516102db9190611764565b60405180910390f35b3480156102f057600080fd5b506102f9610d45565b005b34801561030757600080fd5b50610310610ddf565b60405161031d9190611903565b60405180910390f35b34801561033257600080fd5b5061034d60048036038101906103489190611638565b610ed8565b60405161035a9190611680565b60405180910390f35b34801561036f57600080fd5b50610378610ef5565b6040516103859190611764565b60405180910390f35b6103a860048036038101906103a39190611951565b610eff565b005b3480156103b657600080fd5b506103bf6111e8565b6040516103cc9190611a6f565b60405180910390f35b3480156103e157600080fd5b506103fc60048036038101906103f79190611737565b611372565b6040516104099190611764565b60405180910390f35b34801561041e57600080fd5b5061042761138a565b6040516104349190611764565b60405180910390f35b6000600360009054906101000a900473ffffffffffffffffffffffffffffffffffffffff16905090565b600061047d8260106113aa90919063ffffffff16565b9050919050565b60006012805490501161049657600080fd5b60025442116104a457600080fd5b42600281905550600044905060006001436104bf9190611ac0565b4090506000601260016012805490506104d89190611ac0565b815481106104e9576104e8611af4565b5b90600052602060002090600202016040518060800160405290816000820160009054906101000a900473ffffffffffffffffffffffffffffffffffffffff1673ffffffffffffffffffffffffffffffffffffffff1673ffffffffffffffffffffffffffffffffffffffff1681526020016000820160149054906101000a900460ff1660ff1660ff1681526020016000820160159054906101000a900460ff1660ff1660ff1681526020016001820154815250509050600060254285858560200151866000015187604001516040516020016105c996959493929190611bed565b6040516020818303038152906040528051906020012060001c6105ec9190611c8c565b905060005b6012805490508110156109a3576000806012838154811061061557610614611af4565b5b90600052602060002090600202016040518060800160405290816000820160009054906101000a900473ffffffffffffffffffffffffffffffffffffffff1673ffffffffffffffffffffffffffffffffffffffff1673ffffffffffffffffffffffffffffffffffffffff1681526020016000820160149054906101000a900460ff1660ff1660ff1681526020016000820160159054906101000a900460ff1660ff1660ff1681526020016001820154815250509050600084036106f7576002816020015160ff161480156106f057506000816040015160ff16145b91506107c0565b6002816020015160ff16036107175783816040015160ff161491506107bf565b6001816020015160ff1603610774576000816040015160ff160361074c5760006002856107449190611c8c565b14915061076f565b6001816040015160ff160361076e57600160028561076a9190611c8c565b1491505b5b6107be565b6000816020015160ff16036107bd57610793816040015160ff16610467565b156107a157600191506107bc565b6107b1816040015160ff16610ed8565b156107bb57600191505b5b5b5b5b5b811561098e57600081600001519050600660008273ffffffffffffffffffffffffffffffffffffffff1673ffffffffffffffffffffffffffffffffffffffff16815260200190815260200160002060009054906101000a900460ff166108e75760006005600081548092919061083590611cbd565b9190505590506001600660008473ffffffffffffffffffffffffffffffffffffffff1673ffffffffffffffffffffffffffffffffffffffff16815260200190815260200160002060006101000a81548160ff021916908315150217905550816007600083815260200190815260200160002060006101000a81548173ffffffffffffffffffffffffffffffffffffffff021916908373ffffffffffffffffffffffffffffffffffffffff160217905550505b600080546009846020015160ff168154811061090657610905611af4565b5b90600052602060002090602091828204019190069054906101000a900460ff1660ff166109339190611d05565b905080600860008473ffffffffffffffffffffffffffffffffffffffff1673ffffffffffffffffffffffffffffffffffffffff16815260200190815260200160002060008282546109849190611d47565b9250508190555050505b5050808061099b90611cbd565b9150506105f1565b50601260006109b291906114df565b60006001819055506004544711156109cd576109cc6113c4565b5b7fec6cdc8e735e4069f6e89062582f3e5532a8e71373e7ef2962fa916cf2af21f2816040516109fc9190611764565b60405180910390a180600d8190555050505050565b60005b600b80549050811015610a7f57610a6b600b8281548110610a3857610a37611af4565b5b90600052602060002090602091828204019190069054906101000a900460ff1660ff16600e61139090919063ffffffff16565b508080610a7790611cbd565b915050610a14565b5060005b600c80549050811015610aee57610ada600c8281548110610aa757610aa6611af4565b5b90600052602060002090602091828204019190069054906101000a900460ff1660ff16601061139090919063ffffffff16565b508080610ae690611cbd565b915050610a83565b50565b60128181548110610b0157600080fd5b90600052602060002090600202016000915090508060000160009054906101000a900473ffffffffffffffffffffffffffffffffffffffff16908060000160149054906101000a900460ff16908060000160159054906101000a900460ff16908060010154905084565b6000600860008373ffffffffffffffffffffffffffffffffffffffff1673ffffffffffffffffffffffffffffffffffffffff168152602001908152602001600020549050919050565b6000806000806000601280549050600054601280549050610bd59190611d05565b60025447600860003373ffffffffffffffffffffffffffffffffffffffff1673ffffffffffffffffffffffffffffffffffffffff16815260200190815260200160002054945094509450945094509091929394565b60066020528060005260406000206000915054906101000a900460ff1681565b60003390506000600860008373ffffffffffffffffffffffffffffffffffffffff1673ffffffffffffffffffffffffffffffffffffffff16815260200190815260200160002054905060008111610ca057600080fd5b47811115610cad57600080fd5b6000600860008473ffffffffffffffffffffffffffffffffffffffff1673ffffffffffffffffffffffffffffffffffffffff168152602001908152602001600020819055508173ffffffffffffffffffffffffffffffffffffffff166108fc829081150290604051600060405180830381858888f19350505050158015610d38573d6000803e3d6000fd5b505050565b565b60055481565b600360009054906101000a900473ffffffffffffffffffffffffffffffffffffffff1673ffffffffffffffffffffffffffffffffffffffff163373ffffffffffffffffffffffffffffffffffffffff1614610d9f57600080fd5b6000600360009054906101000a900473ffffffffffffffffffffffffffffffffffffffff1690508073ffffffffffffffffffffffffffffffffffffffff16ff5b60606012805480602002602001604051908101604052809291908181526020016000905b82821015610ecf57838290600052602060002090600202016040518060800160405290816000820160009054906101000a900473ffffffffffffffffffffffffffffffffffffffff1673ffffffffffffffffffffffffffffffffffffffff1673ffffffffffffffffffffffffffffffffffffffff1681526020016000820160149054906101000a900460ff1660ff1660ff1681526020016000820160159054906101000a900460ff1660ff1660ff16815260200160018201548152505081526020019060010190610e03565b50505050905090565b6000610eee82600e6113aa90919063ffffffff16565b9050919050565b6000600d54905090565b6000543414610f43576040517f08c379a0000000000000000000000000000000000000000000000000000000008152600401610f3a90611dd8565b60405180910390fd5b60008160ff1610158015610f5b575060058160ff1611155b610f9a576040517f08c379a0000000000000000000000000000000000000000000000000000000008152600401610f9190611e44565b60405180910390fd5b60008260ff1610158015610fea5750600a8160ff1681548110610fc057610fbf611af4565b5b90600052602060002090602091828204019190069054906101000a900460ff1660ff168260ff1611155b611029576040517f08c379a000000000000000000000000000000000000000000000000000000000815260040161102090611eb0565b60405180910390fd5b60003460098360ff168154811061104357611042611af4565b5b90600052602060002090602091828204019190069054906101000a900460ff1660ff166110709190611d05565b90506000816001546110829190611d47565b90504781106110c6576040517f08c379a00000000000000000000000000000000000000000000000000000000081526004016110bd90611f1c565b60405180910390fd5b81600160008282546110d89190611d47565b92505081905550600060405180608001604052803373ffffffffffffffffffffffffffffffffffffffff1681526020018560ff1681526020018660ff168152602001348152509050601281908060018154018082558091505060019003906000526020600020906002020160009091909190915060008201518160000160006101000a81548173ffffffffffffffffffffffffffffffffffffffff021916908373ffffffffffffffffffffffffffffffffffffffff16021790555060208201518160000160146101000a81548160ff021916908360ff16021790555060408201518160000160156101000a81548160ff021916908360ff1602179055506060820151816001015550505050505050565b6060600060055467ffffffffffffffff81111561120857611207611f3c565b5b60405190808252806020026020018201604052801561124157816020015b61122e611503565b8152602001906001900390816112265790505b50905060005b60055481101561136a576007600082815260200190815260200160002060009054906101000a900473ffffffffffffffffffffffffffffffffffffffff1682828151811061129857611297611af4565b5b60200260200101516000019073ffffffffffffffffffffffffffffffffffffffff16908173ffffffffffffffffffffffffffffffffffffffff1681525050600860008383815181106112ed576112ec611af4565b5b60200260200101516000015173ffffffffffffffffffffffffffffffffffffffff1673ffffffffffffffffffffffffffffffffffffffff1681526020019081526020016000205482828151811061134757611346611af4565b5b60200260200101516020018181525050808061136290611cbd565b915050611247565b508091505090565b60086020528060005260406000206000915090505481565b600d5481565b60006113a2836000018360001b61144c565b905092915050565b60006113bc836000018360001b6114bc565b905092915050565b6000600454476113d49190611ac0565b9050600081111561144957600360009054906101000a900473ffffffffffffffffffffffffffffffffffffffff1673ffffffffffffffffffffffffffffffffffffffff166108fc829081150290604051600060405180830381858888f19350505050158015611447573d6000803e3d6000fd5b505b50565b600061145883836114bc565b6114b15782600001829080600181540180825580915050600190039060005260206000200160009091909190915055826000018054905083600101600084815260200190815260200160002081905550600190506114b6565b600090505b92915050565b600080836001016000848152602001908152602001600020541415905092915050565b50805460008255600202906000526020600020908101906115009190611533565b50565b6040518060400160405280600073ffffffffffffffffffffffffffffffffffffffff168152602001600081525090565b5b8082111561159d57600080820160006101000a81549073ffffffffffffffffffffffffffffffffffffffff02191690556000820160146101000a81549060ff02191690556000820160156101000a81549060ff0219169055600182016000905550600201611534565b5090565b600073ffffffffffffffffffffffffffffffffffffffff82169050919050565b60006115cc826115a1565b9050919050565b6115dc816115c1565b82525050565b60006020820190506115f760008301846115d3565b92915050565b600080fd5b6000819050919050565b61161581611602565b811461162057600080fd5b50565b6000813590506116328161160c565b92915050565b60006020828403121561164e5761164d6115fd565b5b600061165c84828501611623565b91505092915050565b60008115159050919050565b61167a81611665565b82525050565b60006020820190506116956000830184611671565b92915050565b600060ff82169050919050565b6116b18161169b565b82525050565b6116c081611602565b82525050565b60006080820190506116db60008301876115d3565b6116e860208301866116a8565b6116f560408301856116a8565b61170260608301846116b7565b95945050505050565b611714816115c1565b811461171f57600080fd5b50565b6000813590506117318161170b565b92915050565b60006020828403121561174d5761174c6115fd565b5b600061175b84828501611722565b91505092915050565b600060208201905061177960008301846116b7565b92915050565b600060a08201905061179460008301886116b7565b6117a160208301876116b7565b6117ae60408301866116b7565b6117bb60608301856116b7565b6117c860808301846116b7565b9695505050505050565b600081519050919050565b600082825260208201905092915050565b6000819050602082019050919050565b611807816115c1565b82525050565b6118168161169b565b82525050565b61182581611602565b82525050565b60808201600082015161184160008501826117fe565b506020820151611854602085018261180d565b506040820151611867604085018261180d565b50606082015161187a606085018261181c565b50505050565b600061188c838361182b565b60808301905092915050565b6000602082019050919050565b60006118b0826117d2565b6118ba81856117dd565b93506118c5836117ee565b8060005b838110156118f65781516118dd8882611880565b97506118e883611898565b9250506001810190506118c9565b5085935050505092915050565b6000602082019050818103600083015261191d81846118a5565b905092915050565b61192e8161169b565b811461193957600080fd5b50565b60008135905061194b81611925565b92915050565b60008060408385031215611968576119676115fd565b5b60006119768582860161193c565b92505060206119878582860161193c565b9150509250929050565b600081519050919050565b600082825260208201905092915050565b6000819050602082019050919050565b6040820160008201516119d360008501826117fe565b5060208201516119e6602085018261181c565b50505050565b60006119f883836119bd565b60408301905092915050565b6000602082019050919050565b6000611a1c82611991565b611a26818561199c565b9350611a31836119ad565b8060005b83811015611a62578151611a4988826119ec565b9750611a5483611a04565b925050600181019050611a35565b5085935050505092915050565b60006020820190508181036000830152611a898184611a11565b905092915050565b7f4e487b7100000000000000000000000000000000000000000000000000000000600052601160045260246000fd5b6000611acb82611602565b9150611ad683611602565b9250828203905081811115611aee57611aed611a91565b5b92915050565b7f4e487b7100000000000000000000000000000000000000000000000000000000600052603260045260246000fd5b6000819050919050565b611b3e611b3982611602565b611b23565b82525050565b6000819050919050565b6000819050919050565b611b69611b6482611b44565b611b4e565b82525050565b60008160f81b9050919050565b6000611b8782611b6f565b9050919050565b611b9f611b9a8261169b565b611b7c565b82525050565b60008160601b9050919050565b6000611bbd82611ba5565b9050919050565b6000611bcf82611bb2565b9050919050565b611be7611be2826115c1565b611bc4565b82525050565b6000611bf98289611b2d565b602082019150611c098288611b2d565b602082019150611c198287611b58565b602082019150611c298286611b8e565b600182019150611c398285611bd6565b601482019150611c498284611b8e565b600182019150819050979650505050505050565b7f4e487b7100000000000000000000000000000000000000000000000000000000600052601260045260246000fd5b6000611c9782611602565b9150611ca283611602565b925082611cb257611cb1611c5d565b5b828206905092915050565b6000611cc882611602565b91507fffffffffffffffffffffffffffffffffffffffffffffffffffffffffffffffff8203611cfa57611cf9611a91565b5b600182019050919050565b6000611d1082611602565b9150611d1b83611602565b9250828202611d2981611602565b91508282048414831517611d4057611d3f611a91565b5b5092915050565b6000611d5282611602565b9150611d5d83611602565b9250828201905080821115611d7557611d74611a91565b5b92915050565b600082825260208201905092915050565b7f496e636f72726563742062657420616d6f756e74000000000000000000000000600082015250565b6000611dc2601483611d7b565b9150611dcd82611d8c565b602082019050919050565b60006020820190508181036000830152611df181611db5565b9050919050565b7f496e76616c696420626574207479706500000000000000000000000000000000600082015250565b6000611e2e601083611d7b565b9150611e3982611df8565b602082019050919050565b60006020820190508181036000830152611e5d81611e21565b9050919050565b7f496e76616c6964206e756d626572000000000000000000000000000000000000600082015250565b6000611e9a600e83611d7b565b9150611ea582611e64565b602082019050919050565b60006020820190508181036000830152611ec981611e8d565b9050919050565b7f496e73756666696369656e742062616c616e6365000000000000000000000000600082015250565b6000611f06601483611d7b565b9150611f1182611ed0565b602082019050919050565b60006020820190508181036000830152611f3581611ef9565b9050919050565b7f4e487b7100000000000000000000000000000000000000000000000000000000600052604160045260246000fdfea264697066735822122030e415c210cf35781fd9b3014396c0a0450d30cb181e796439ecceae4b5b710664736f6c63430008110033",
  "immutableReferences": {},
  "source": "// SPDX-License-Identifier: MIT\npragma solidity >=0.4.22 <0.9.0;\nimport \"@openzeppelin/contracts/utils/structs/EnumerableSet.sol\";\n\n\ncontract Roulette {\n  \n  uint betAmount;\n  uint necessaryBalance;\n  uint nextRoundTimestamp;\n  address creator;\n  uint256 maxAmountAllowedInTheBank;\n  uint public numberOfWinners;\n  mapping(address => bool) public winners;\n  mapping(uint => address) private lutWinners;\n  mapping(address => uint) public winnings;\n  uint8[] payouts;\n  uint8[] numberRange;\n  uint8[] red;\n  uint8[] black;\n  uint256 public latestWinningNumber;\n    \n  using EnumerableSet for EnumerableSet.UintSet;\n\n    EnumerableSet.UintSet reds;\n    EnumerableSet.UintSet blacks;\n  \n  /*\n    BetTypes are as follow:\n      0: color\n      1: odd/even\n      2: number\n      \n    Depending on the BetType, number will be:\n      color: 0 for black, 1 for red\n      odd/even: 0 for even, 1 for odd\n      number: number\n  */\n  \n  struct Bet {\n    address player;\n    uint8 betType;\n    uint8 number;\n    uint256 betAmount;\n  }\n  Bet[] public bets;\n\n\n\n    struct Winner {\n    address winner;\n    uint winnings;\n}\n  \n  constructor()  payable {\n    creator = msg.sender;\n    necessaryBalance = 0;\n    nextRoundTimestamp = block.timestamp;\n    payouts = [2,2,36];\n    red = [32,19,21,25,34,27,36,30,23,5,16,1,14,9,18,7,12,3];\n    black = [15, 4, 2, 17, 6, 13, 11, 8, 10, 24, 33, 20, 31, 22, 29, 28, 35, 26];\n    RedBlack();\n    \n\n    \n    \n\n\n\n    \n\n    //times payout for each win type\n\n   numberRange = [1,1,36];\n\n    // Bet type 0: black/red (1=black, 2=red)\n    // Bet type 1: even/odd (1=odd, 2=even)\n    // Bet type 2: number (1-36)\n\n     betAmount = 10000000000000000; /* 0.01 ether */\n     maxAmountAllowedInTheBank = 20000000000000000000; /* 20 ether */\n  }\n\n  \n\n  event RandomNumber(uint256 number);\n  \n  function RedBlack() public{\n\n    for (uint i = 0; i < red.length; i++) {\n            reds.add(red[i]);\n    }\n\n    for (uint i = 0; i < black.length; i++) {\n            blacks.add(black[i]);\n    }\n\n  }\n\n  function getStatus() public view returns(uint, uint, uint, uint, uint) {\n    return (\n      bets.length,             // number of active bets\n      bets.length * betAmount, // value of active bets\n      nextRoundTimestamp,      // when can we play again\n      address(this).balance,   // roulette balance\n      winnings[msg.sender]     // winnings of player\n    ); \n  }\n\n\n  //must run when start server in order to have eth in contract  \n   function addEther() payable public {}\n\n  \n  function getBets() public view returns (Bet[] memory) {\n    return bets;\n}\n\n\nfunction getCreator() public view returns (address) {\n    return creator;\n}\n\n\n\n\n   \n  function bet(uint8 number, uint8 betType) payable public {\n\n\n       /* \n       A bet is valid when:\n       1 - the value of the bet is correct (=betAmount)\n       2 - betType is kblock.timestampn (between 0 and 5)\n       3 - the option betted is valid (don't bet on 37!)\n       4 - the bank has sufficient funds to pay the bet\n    */\n\n    require(msg.value == betAmount, \"Incorrect bet amount\"); // Check that the bet value is correct\n    require(betType >= 0 && betType <= 5, \"Invalid bet type\"); // Check that the bet type is valid\n    require(number >= 0 && number <= numberRange[betType], \"Invalid number\"); // Check that the number is valid\n    uint payoutForThisBet = payouts[betType] * msg.value;\n    uint provisionalBalance = necessaryBalance + payoutForThisBet;\n    require(provisionalBalance < address(this).balance, \"Insufficient balance\"); // Check that the bank has sufficient funds to pay the bet\n    necessaryBalance += payoutForThisBet;\n    Bet memory newBet = Bet({\n      betType: betType,\n      player: msg.sender,\n      number: number,\n      betAmount : msg.value\n    });\n    bets.push(newBet);\n  }\n\n\n  function getWinnings(address player) public view returns (uint) {\n    return winnings[player];\n}\n\n\n\n\n  function spinWheel() public {\n    /* are there any bets? */\n    require(bets.length > 0);\n    /* are we allowed to spin the wheel? */\n    require(block.timestamp > nextRoundTimestamp);\n    /* next time we are allowed to spin the wheel again */\n    nextRoundTimestamp = block.timestamp;\n    /* calculate 'random' number */\n    uint diff = block.difficulty;\n    bytes32 hash = blockhash(block.number-1);\n    Bet memory lb = bets[bets.length-1];\n    uint number = uint(keccak256(abi.encodePacked(block.timestamp, diff, hash, lb.betType, lb.player, lb.number))) % 37;\n    /* check every bet for this number */\n    for (uint i = 0; i < bets.length; i++) {\n      bool won = false;\n      Bet memory b = bets[i];\n      if (number == 0) {\n        won = (b.betType == 2 && b.number == 0);                   /* bet on 0 */\n      } else {\n        if (b.betType == 2) { \n          won = (b.number == number);                              /* bet on number */\n        } \n        else if (b.betType == 1) {\n          if (b.number == 0){ \n          won = (number % 2 == 0);\n          }              /* bet on even */\n          else if (b.number == 1){ \n          won = (number % 2 == 1);\n          }              /* bet on odd */\n         }\n          else if (b.betType == 0) {                   \n            if (isBlack(b.number)) {                     /* bet on black */\n              won = true;\n          } else {                                                 /* bet on red */\n            if (isRed(b.number)) {\n              won = true;\n          }\n        }\n      }\n    }\n  \n      /* if winning bet, add to player winnings balance */\n      if (won) \n      {\n        address winner = b.player;\n       if(!winners[winner]){\n        uint index = numberOfWinners++;\n        winners[winner] = true;\n        lutWinners[index] = winner;\n        }\n        uint payout = payouts[b.betType] * betAmount;\n       winnings[winner] += payout;\n       }\n    }\n    \n\n    /* delete all bets */\n    delete bets;\n    /* reset necessaryBalance */\n    necessaryBalance = 0;\n    /* check if to much money in the bank */\n    if (address(this).balance > maxAmountAllowedInTheBank) takeProfits();\n    /* returns 'random' number to UI */\n    emit RandomNumber(number);\n    latestWinningNumber = number;\n  }\n\n\nfunction getLatestWinningNumber() public view returns (uint256) {\n        return latestWinningNumber;\n    }\n\n\nfunction getWinners() public view returns (Winner[] memory) {\n    Winner[] memory winnerList = new Winner[](numberOfWinners);\n    for (uint i = 0; i < numberOfWinners; i++) {\n        winnerList[i].winner = lutWinners[i];\n        winnerList[i].winnings = winnings[winnerList[i].winner];\n    }\n    return winnerList;\n}\n\n  \n\n    function isRed(uint number) public view returns (bool) {\n        return reds.contains(number);\n    }\n\n    function isBlack(uint number) public view returns (bool) {\n        return blacks.contains(number);\n    }\n\n  function cashOut() public {\n    address player = msg.sender;\n    uint256 amount = winnings[player];\n    require(amount > 0);\n    require(amount <= address(this).balance);\n    winnings[player] = 0;\n    payable(player).transfer(amount);\n  }\n  \n  function takeProfits() internal {\n    uint amount = address(this).balance - maxAmountAllowedInTheBank;\n    if (amount > 0) payable(address(creator)).transfer(amount);\n  }\n  \n  function creatorKill() public {\n    require(msg.sender == creator);\n    address payable payableCreator = payable(creator);\n    selfdestruct(payableCreator);\n\n  }\n\n  \n \n}\n\n\n\n\n\n",
  "sourcePath": "/Users/epushett/Desktop/solidity_proj/final/contracts/Roulette.sol",
  "compiler": {
    "name": "solc",
    "version": "0.8.17+commit.8df45f5f.Emscripten.clang"
  },
  "schemaVersion": "3.4.11",
  "updatedAt": "2023-03-31T14:09:29.980Z",
  "networkType": "ethereum",
  "devdoc": {
    "kind": "dev",
    "methods": {},
    "version": 1
  },
  "userdoc": {
    "kind": "user",
    "methods": {},
    "version": 1
  }
}