{
  "contractName": "Roulette",
  "abi": [
    {
      "inputs": [],
      "stateMutability": "payable",
      "type": "constructor",
      "payable": true
    },
    {
      "anonymous": false,
      "inputs": [
        {
          "indexed": false,
          "internalType": "uint256",
          "name": "number",
          "type": "uint256"
        }
      ],
      "name": "RandomNumber",
      "type": "event"
    },
    {
      "inputs": [
        {
          "internalType": "uint256",
          "name": "",
          "type": "uint256"
        }
      ],
      "name": "bets",
      "outputs": [
        {
          "internalType": "address",
          "name": "player",
          "type": "address"
        },
        {
          "internalType": "uint8",
          "name": "betType",
          "type": "uint8"
        },
        {
          "internalType": "uint8",
          "name": "number",
          "type": "uint8"
        }
      ],
      "stateMutability": "view",
      "type": "function",
      "constant": true
    },
    {
      "inputs": [],
      "name": "numberOfFunders",
      "outputs": [
        {
          "internalType": "uint256",
          "name": "",
          "type": "uint256"
        }
      ],
      "stateMutability": "view",
      "type": "function",
      "constant": true
    },
    {
      "inputs": [],
      "name": "owner",
      "outputs": [
        {
          "internalType": "address",
          "name": "",
          "type": "address"
        }
      ],
      "stateMutability": "view",
      "type": "function",
      "constant": true
    },
    {
      "inputs": [],
      "name": "getStatus",
      "outputs": [
        {
          "internalType": "uint256",
          "name": "",
          "type": "uint256"
        },
        {
          "internalType": "uint256",
          "name": "",
          "type": "uint256"
        },
        {
          "internalType": "uint256",
          "name": "",
          "type": "uint256"
        },
        {
          "internalType": "uint256",
          "name": "",
          "type": "uint256"
        },
        {
          "internalType": "uint256",
          "name": "",
          "type": "uint256"
        }
      ],
      "stateMutability": "view",
      "type": "function",
      "constant": true
    },
    {
      "inputs": [],
      "name": "addEther",
      "outputs": [],
      "stateMutability": "payable",
      "type": "function",
      "payable": true
    },
    {
      "inputs": [
        {
          "internalType": "uint8",
          "name": "number",
          "type": "uint8"
        },
        {
          "internalType": "uint8",
          "name": "betType",
          "type": "uint8"
        }
      ],
      "name": "test",
      "outputs": [],
      "stateMutability": "payable",
      "type": "function",
      "payable": true
    },
    {
      "inputs": [],
      "name": "spinWheel",
      "outputs": [],
      "stateMutability": "nonpayable",
      "type": "function"
    },
    {
      "inputs": [],
      "name": "cashOut",
      "outputs": [],
      "stateMutability": "nonpayable",
      "type": "function"
    },
    {
      "inputs": [],
      "name": "creatorKill",
      "outputs": [],
      "stateMutability": "nonpayable",
      "type": "function"
    },
    {
      "inputs": [
        {
          "internalType": "address",
          "name": "newOwner",
          "type": "address"
        }
      ],
      "name": "transferOwnership",
      "outputs": [],
      "stateMutability": "nonpayable",
      "type": "function"
    },
    {
      "inputs": [],
      "name": "addFunds",
      "outputs": [],
      "stateMutability": "payable",
      "type": "function",
      "payable": true
    },
    {
      "inputs": [],
      "name": "getAllFunders",
      "outputs": [
        {
          "internalType": "address[]",
          "name": "",
          "type": "address[]"
        }
      ],
      "stateMutability": "view",
      "type": "function",
      "constant": true
    },
    {
      "inputs": [
        {
          "internalType": "uint256",
          "name": "withdrawAmount",
          "type": "uint256"
        }
      ],
      "name": "withdraw",
      "outputs": [],
      "stateMutability": "nonpayable",
      "type": "function"
    }
  ],
  "bytecode": "0x608060405233600360006101000a81548173ffffffffffffffffffffffffffffffffffffffff021916908373ffffffffffffffffffffffffffffffffffffffff1602179055506000600181905550426002819055506040518060c00160405280600260ff168152602001600360ff168152602001600360ff168152602001600260ff168152602001600260ff168152602001602460ff168152506006906006620000ab92919062000127565b506040518060c00160405280600160ff168152602001600260ff168152602001600260ff168152602001600160ff168152602001600160ff168152602001602460ff1681525060079060066200010392919062000127565b50662386f26fc10000600081905550671bc16d674ec80000600481905550620001f4565b82805482825590600052602060002090601f01602090048101928215620001c25791602002820160005b838211156200019157835183826101000a81548160ff021916908360ff160217905550926020019260010160208160000104928301926001030262000151565b8015620001c05782816101000a81549060ff021916905560010160208160000104928301926001030262000191565b505b509050620001d19190620001d5565b5090565b5b80821115620001f0576000816000905550600101620001d6565b5090565b611c4f80620002046000396000f3fe6080604052600436106100c25760003560e01c8063793cd71e1161007f5780638da5cb5b116100595780638da5cb5b146101f4578063a26759cb1461021f578063dc79a7fc14610229578063f2fde38b14610254576100c2565b8063793cd71e146101bc5780638894dd2b146101d35780638c0e554f146101dd576100c2565b806315ecef92146100c757806322af00fa146100de5780632e1a7d4d1461011d5780634e69d560146101465780635793711d146101755780636fbbb55d14610191575b600080fd5b3480156100d357600080fd5b506100dc61027d565b005b3480156100ea57600080fd5b5061010560048036038101906101009190611343565b610858565b604051610114939291906113cd565b60405180910390f35b34801561012957600080fd5b50610144600480360381019061013f9190611343565b6108c8565b005b34801561015257600080fd5b5061015b6109b5565b60405161016c959493929190611413565b60405180910390f35b61018f600480360381019061018a9190611492565b610a2b565b005b34801561019d57600080fd5b506101a6610cfa565b6040516101b39190611590565b60405180910390f35b3480156101c857600080fd5b506101d1610df4565b005b6101db610ee7565b005b3480156101e957600080fd5b506101f2610ee9565b005b34801561020057600080fd5b50610209610f83565b60405161021691906115b2565b60405180910390f35b610227610fa9565b005b34801561023557600080fd5b5061023e61111f565b60405161024b91906115cd565b60405180910390f35b34801561026057600080fd5b5061027b60048036038101906102769190611614565b611125565b005b60006008805490501161028f57600080fd5b600254421161029d57600080fd5b42600281905550600044905060006001436102b89190611670565b4090506000600860016008805490506102d19190611670565b815481106102e2576102e16116a4565b5b906000526020600020016040518060600160405290816000820160009054906101000a900473ffffffffffffffffffffffffffffffffffffffff1673ffffffffffffffffffffffffffffffffffffffff1673ffffffffffffffffffffffffffffffffffffffff1681526020016000820160149054906101000a900460ff1660ff1660ff1681526020016000820160159054906101000a900460ff1660ff1660ff16815250509050600060254285858560200151866000015187604001516040516020016103b49695949392919061179d565b6040516020818303038152906040528051906020012060001c6103d7919061183c565b905060005b6008805490508110156107f15760008060088381548110610400576103ff6116a4565b5b906000526020600020016040518060600160405290816000820160009054906101000a900473ffffffffffffffffffffffffffffffffffffffff1673ffffffffffffffffffffffffffffffffffffffff1673ffffffffffffffffffffffffffffffffffffffff1681526020016000820160149054906101000a900460ff1660ff1660ff1681526020016000820160159054906101000a900460ff1660ff1660ff16815250509050600084036104d4576005816020015160ff161480156104cd57506000816040015160ff16145b9150610731565b6005816020015160ff16036104f45783816040015160ff16149150610730565b6004816020015160ff160361054c576000816040015160ff1603610525576000600285610521919061183c565b1491505b6001816040015160ff1603610547576001600285610543919061183c565b1491505b61072f565b6003816020015160ff160361058e576000816040015160ff160361057257601284111591505b6001816040015160ff160361058957601384101591505b61072e565b6002816020015160ff16036105f2576000816040015160ff16036105b457600c84111591505b6001816040015160ff16036105d757600c841180156105d4575060188411155b91505b6002816040015160ff16036105ed576018841191505b61072d565b6001816020015160ff160361066c576000816040015160ff160361062357600160038561061f919061183c565b1491505b6001816040015160ff1603610645576002600385610641919061183c565b1491505b6002816040015160ff1603610667576000600385610663919061183c565b1491505b61072c565b6000816020015160ff160361072b576000816040015160ff16036106dc57600a841115806106a85750601484101580156106a75750601c8411155b5b156106c45760006002856106bc919061183c565b1491506106d7565b60016002856106d3919061183c565b1491505b61072a565b600a841115806106fa5750601484101580156106f95750601c8411155b5b1561071657600160028561070e919061183c565b149150610729565b6000600285610725919061183c565b1491505b5b5b5b5b5b5b5b5b81156107dc576006816020015160ff1681548110610752576107516116a4565b5b90600052602060002090602091828204019190069054906101000a900460ff1660ff16600054610782919061186d565b60056000836000015173ffffffffffffffffffffffffffffffffffffffff1673ffffffffffffffffffffffffffffffffffffffff16815260200190815260200160002060008282546107d491906118af565b925050819055505b505080806107e9906118e3565b9150506103dc565b50600860006108009190611281565b600060018190555060045447111561081b5761081a6111f9565b5b7fec6cdc8e735e4069f6e89062582f3e5532a8e71373e7ef2962fa916cf2af21f28160405161084a91906115cd565b60405180910390a150505050565b6008818154811061086857600080fd5b906000526020600020016000915090508060000160009054906101000a900473ffffffffffffffffffffffffffffffffffffffff16908060000160149054906101000a900460ff16908060000160159054906101000a900460ff16905083565b670de0b6b3a76400008110158061092c5750600d60009054906101000a900473ffffffffffffffffffffffffffffffffffffffff1673ffffffffffffffffffffffffffffffffffffffff163373ffffffffffffffffffffffffffffffffffffffff16145b61096b576040517f08c379a0000000000000000000000000000000000000000000000000000000008152600401610962906119ae565b60405180910390fd5b3373ffffffffffffffffffffffffffffffffffffffff166108fc829081150290604051600060405180830381858888f193505050501580156109b1573d6000803e3d6000fd5b5050565b60008060008060006008805490506000546008805490506109d6919061186d565b60025447600560003373ffffffffffffffffffffffffffffffffffffffff1673ffffffffffffffffffffffffffffffffffffffff16815260200190815260200160002054945094509450945094509091929394565b6000543414610a6f576040517f08c379a0000000000000000000000000000000000000000000000000000000008152600401610a6690611a1a565b60405180910390fd5b60008160ff1610158015610a87575060058160ff1611155b610ac6576040517f08c379a0000000000000000000000000000000000000000000000000000000008152600401610abd90611a86565b60405180910390fd5b60008260ff1610158015610b16575060078160ff1681548110610aec57610aeb6116a4565b5b90600052602060002090602091828204019190069054906101000a900460ff1660ff168260ff1611155b610b55576040517f08c379a0000000000000000000000000000000000000000000000000000000008152600401610b4c90611af2565b60405180910390fd5b60003460068360ff1681548110610b6f57610b6e6116a4565b5b90600052602060002090602091828204019190069054906101000a900460ff1660ff16610b9c919061186d565b9050600081600154610bae91906118af565b9050478110610bf2576040517f08c379a0000000000000000000000000000000000000000000000000000000008152600401610be990611b5e565b60405180910390fd5b8160016000828254610c0491906118af565b92505081905550600860405180606001604052803373ffffffffffffffffffffffffffffffffffffffff1681526020018560ff1681526020018660ff168152509080600181540180825580915050600190039060005260206000200160009091909190915060008201518160000160006101000a81548173ffffffffffffffffffffffffffffffffffffffff021916908373ffffffffffffffffffffffffffffffffffffffff16021790555060208201518160000160146101000a81548160ff021916908360ff16021790555060408201518160000160156101000a81548160ff021916908360ff160217905550505050505050565b6060600060095467ffffffffffffffff811115610d1a57610d19611b7e565b5b604051908082528060200260200182016040528015610d485781602001602082028036833780820191505090505b50905060005b600954811015610dec57600b600082815260200190815260200160002060009054906101000a900473ffffffffffffffffffffffffffffffffffffffff16828281518110610d9f57610d9e6116a4565b5b602002602001019073ffffffffffffffffffffffffffffffffffffffff16908173ffffffffffffffffffffffffffffffffffffffff16815250508080610de4906118e3565b915050610d4e565b508091505090565b60003390506000600560008373ffffffffffffffffffffffffffffffffffffffff1673ffffffffffffffffffffffffffffffffffffffff16815260200190815260200160002054905060008111610e4a57600080fd5b47811115610e5757600080fd5b6000600560008473ffffffffffffffffffffffffffffffffffffffff1673ffffffffffffffffffffffffffffffffffffffff168152602001908152602001600020819055508173ffffffffffffffffffffffffffffffffffffffff166108fc829081150290604051600060405180830381858888f19350505050158015610ee2573d6000803e3d6000fd5b505050565b565b600360009054906101000a900473ffffffffffffffffffffffffffffffffffffffff1673ffffffffffffffffffffffffffffffffffffffff163373ffffffffffffffffffffffffffffffffffffffff1614610f4357600080fd5b6000600360009054906101000a900473ffffffffffffffffffffffffffffffffffffffff1690508073ffffffffffffffffffffffffffffffffffffffff16ff5b600d60009054906101000a900473ffffffffffffffffffffffffffffffffffffffff1681565b6000339050600a60008273ffffffffffffffffffffffffffffffffffffffff1673ffffffffffffffffffffffffffffffffffffffff16815260200190815260200160002060009054906101000a900460ff166110c657600060096000815480929190611014906118e3565b9190505590506001600a60008473ffffffffffffffffffffffffffffffffffffffff1673ffffffffffffffffffffffffffffffffffffffff16815260200190815260200160002060006101000a81548160ff02191690831515021790555081600b600083815260200190815260200160002060006101000a81548173ffffffffffffffffffffffffffffffffffffffff021916908373ffffffffffffffffffffffffffffffffffffffff160217905550505b34600c60008373ffffffffffffffffffffffffffffffffffffffff1673ffffffffffffffffffffffffffffffffffffffff168152602001908152602001600020600082825461111591906118af565b9250508190555050565b60095481565b600d60009054906101000a900473ffffffffffffffffffffffffffffffffffffffff1673ffffffffffffffffffffffffffffffffffffffff163373ffffffffffffffffffffffffffffffffffffffff16146111b5576040517f08c379a00000000000000000000000000000000000000000000000000000000081526004016111ac90611bf9565b60405180910390fd5b80600d60006101000a81548173ffffffffffffffffffffffffffffffffffffffff021916908373ffffffffffffffffffffffffffffffffffffffff16021790555050565b6000600454476112099190611670565b9050600081111561127e57600360009054906101000a900473ffffffffffffffffffffffffffffffffffffffff1673ffffffffffffffffffffffffffffffffffffffff166108fc829081150290604051600060405180830381858888f1935050505015801561127c573d6000803e3d6000fd5b505b50565b508054600082559060005260206000209081019061129f91906112a2565b50565b5b8082111561130457600080820160006101000a81549073ffffffffffffffffffffffffffffffffffffffff02191690556000820160146101000a81549060ff02191690556000820160156101000a81549060ff0219169055506001016112a3565b5090565b600080fd5b6000819050919050565b6113208161130d565b811461132b57600080fd5b50565b60008135905061133d81611317565b92915050565b60006020828403121561135957611358611308565b5b60006113678482850161132e565b91505092915050565b600073ffffffffffffffffffffffffffffffffffffffff82169050919050565b600061139b82611370565b9050919050565b6113ab81611390565b82525050565b600060ff82169050919050565b6113c7816113b1565b82525050565b60006060820190506113e260008301866113a2565b6113ef60208301856113be565b6113fc60408301846113be565b949350505050565b61140d8161130d565b82525050565b600060a0820190506114286000830188611404565b6114356020830187611404565b6114426040830186611404565b61144f6060830185611404565b61145c6080830184611404565b9695505050505050565b61146f816113b1565b811461147a57600080fd5b50565b60008135905061148c81611466565b92915050565b600080604083850312156114a9576114a8611308565b5b60006114b78582860161147d565b92505060206114c88582860161147d565b9150509250929050565b600081519050919050565b600082825260208201905092915050565b6000819050602082019050919050565b61150781611390565b82525050565b600061151983836114fe565b60208301905092915050565b6000602082019050919050565b600061153d826114d2565b61154781856114dd565b9350611552836114ee565b8060005b8381101561158357815161156a888261150d565b975061157583611525565b925050600181019050611556565b5085935050505092915050565b600060208201905081810360008301526115aa8184611532565b905092915050565b60006020820190506115c760008301846113a2565b92915050565b60006020820190506115e26000830184611404565b92915050565b6115f181611390565b81146115fc57600080fd5b50565b60008135905061160e816115e8565b92915050565b60006020828403121561162a57611629611308565b5b6000611638848285016115ff565b91505092915050565b7f4e487b7100000000000000000000000000000000000000000000000000000000600052601160045260246000fd5b600061167b8261130d565b91506116868361130d565b925082820390508181111561169e5761169d611641565b5b92915050565b7f4e487b7100000000000000000000000000000000000000000000000000000000600052603260045260246000fd5b6000819050919050565b6116ee6116e98261130d565b6116d3565b82525050565b6000819050919050565b6000819050919050565b611719611714826116f4565b6116fe565b82525050565b60008160f81b9050919050565b60006117378261171f565b9050919050565b61174f61174a826113b1565b61172c565b82525050565b60008160601b9050919050565b600061176d82611755565b9050919050565b600061177f82611762565b9050919050565b61179761179282611390565b611774565b82525050565b60006117a982896116dd565b6020820191506117b982886116dd565b6020820191506117c98287611708565b6020820191506117d9828661173e565b6001820191506117e98285611786565b6014820191506117f9828461173e565b600182019150819050979650505050505050565b7f4e487b7100000000000000000000000000000000000000000000000000000000600052601260045260246000fd5b60006118478261130d565b91506118528361130d565b9250826118625761186161180d565b5b828206905092915050565b60006118788261130d565b91506118838361130d565b92508282026118918161130d565b915082820484148315176118a8576118a7611641565b5b5092915050565b60006118ba8261130d565b91506118c58361130d565b92508282019050808211156118dd576118dc611641565b5b92915050565b60006118ee8261130d565b91507fffffffffffffffffffffffffffffffffffffffffffffffffffffffffffffffff82036119205761191f611641565b5b600182019050919050565b600082825260208201905092915050565b7f596f752063616e6e6f74207769746864726177206d6f7265207468616e20312060008201527f4574686572000000000000000000000000000000000000000000000000000000602082015250565b600061199860258361192b565b91506119a38261193c565b604082019050919050565b600060208201905081810360008301526119c78161198b565b9050919050565b7f496e636f72726563742062657420616d6f756e74000000000000000000000000600082015250565b6000611a0460148361192b565b9150611a0f826119ce565b602082019050919050565b60006020820190508181036000830152611a33816119f7565b9050919050565b7f496e76616c696420626574207479706500000000000000000000000000000000600082015250565b6000611a7060108361192b565b9150611a7b82611a3a565b602082019050919050565b60006020820190508181036000830152611a9f81611a63565b9050919050565b7f496e76616c6964206e756d626572000000000000000000000000000000000000600082015250565b6000611adc600e8361192b565b9150611ae782611aa6565b602082019050919050565b60006020820190508181036000830152611b0b81611acf565b9050919050565b7f496e73756666696369656e742062616c616e6365000000000000000000000000600082015250565b6000611b4860148361192b565b9150611b5382611b12565b602082019050919050565b60006020820190508181036000830152611b7781611b3b565b9050919050565b7f4e487b7100000000000000000000000000000000000000000000000000000000600052604160045260246000fd5b7f4f6e6c7920746865206f776e65722063616e20646f2074686174000000000000600082015250565b6000611be3601a8361192b565b9150611bee82611bad565b602082019050919050565b60006020820190508181036000830152611c1281611bd6565b905091905056fea2646970667358221220487b457aaa788326e65a534b60dbb8bc55b75c6adf0409fa43d8f08d2342ac4764736f6c63430008110033",
  "immutableReferences": {},
  "source": "// SPDX-License-Identifier: MIT\npragma solidity >=0.4.22 <0.9.0;\n \n\n\n// contract Roulette {\n//     // uint public numberOfFunders;\n//     // mapping(address => bool) private funders;\n//     // mapping(uint => address) private lutFunders;\n//     // mapping(address => uint) private lastFundAmount;\n//     // address public owner;\n\n\n\n//     // constructor() {\n//     //     owner = msg.sender;\n//     // }  \n\n//     // modifier onlyOwner(){\n//     //     require(msg.sender==owner, \"Only the owner can do that\");\n//     //     _;\n\n//     // }   \n\n//     // function transferOwnership(address newOwner) external onlyOwner{\n//     //     owner = newOwner;\n\n                 \n//     // }           \n\n//     // function addFunds() external payable{\n//     //    address funder = msg.sender;\n//     //    if(!funders[funder]){\n//     //     uint index = numberOfFunders++;\n//     //     funders[funder] = true;\n//     //     lutFunders[index] = funder;\n//     //     }\n//     //     lastFundAmount[funder] += msg.value;\n//     // }\n//     // function getAllFunders() external view returns(address[] memory){\n//     //     address[] memory _funders = new address[](numberOfFunders);\n//     //     for(uint i=0; i<numberOfFunders; i++){\n//     //         _funders[i] = lutFunders[i];\n//     //     }\n//     // return _funders;\n//     // }\n\n\n//     // function withdraw(uint withdrawAmount) external {\n//     //     require(withdrawAmount >= 1000000000000000000 || msg.sender==owner, \"You cannot withdraw more than 1 Ether\");\n//     //     payable (msg.sender).transfer(withdrawAmount);\n//     // }\n\n\n//     address public owner;\n//     uint public balance;\n//     uint public minBet;\n    \n//     struct Bet {\n//         address player;\n//         uint amount;\n//         uint number;\n//     }\n    \n//     Bet[] public bets;\n    \n//     event Win(address indexed player, uint amount);\n//     event Lose(address indexed player, uint amount);\n    \n//     constructor() {\n//         owner = msg.sender;\n//         minBet = 1 ether;\n//         balance = 10 ether;\n//     }\n   \n//     function spinWheel(uint number) public payable {\n//         require(msg.value >= minBet, \"You must bet an amount greater than or equal to the minimum bet.\");\n        \n//         Bet memory newBet = Bet(msg.sender, msg.value, number);\n//         bets.push(newBet);\n        \n//         balance += msg.value;\n//     }\n    \n//     function payout(uint winningNumber) public {\n//         require(msg.sender == owner, \"Only the owner can trigger a payout.\");\n        \n//         uint totalWinnings = 0;\n        \n//         for(uint i = 0; i < bets.length; i++) {\n//             if(bets[i].number == winningNumber) {\n//                 uint winnings = bets[i].amount * 36;\n//                 payable(bets[i].player).transfer(winnings);\n//                 totalWinnings += winnings;\n//                 emit Win(bets[i].player, winnings);\n//             } else {\n//                 emit Lose(bets[i].player, bets[i].amount);\n//             }\n//         }\n        \n//         balance -= totalWinnings;\n//     }\n    \n//     function withdrawBalance() public {\n//         require(msg.sender == owner, \"Only the owner can withdraw the balance.\");\n        \n//         payable(owner).transfer(balance);\n//         balance = 0;\n//     }\n// }\n    \n\n\n\n//}\n//const instance = await Roulette.deployed()\n//instance.addFunds({value: \"500000000000000000\", from: accounts[0]})\n//instance.addFunds({value: \"500000000000000000\", from: accounts[1]})\n//const funds = instance.funds()\n//instance.getAllFunders()\n//instance.withdraw(\"1000000000000000000\", {from: accounts[1]})\n// pragma solidity >=0.4.22 <0.9.0;\n\ncontract Roulette {\n  \n  uint betAmount;\n  uint necessaryBalance;\n  uint nextRoundTimestamp;\n  address creator;\n  uint256 maxAmountAllowedInTheBank;\n  mapping (address => uint256) winnings;\n  uint8[] payouts;\n  uint8[] numberRange;\n  \n  /*\n    BetTypes are as follow:\n      0: color\n      1: column\n      2: dozen\n      3: eighteen\n      4: modulus\n      5: number\n      \n    Depending on the BetType, number will be:\n      color: 0 for black, 1 for red\n      column: 0 for left, 1 for middle, 2 for right\n      dozen: 0 for first, 1 for second, 2 for third\n      eighteen: 0 for low, 1 for high\n      modulus: 0 for even, 1 for odd\n      number: number\n  */\n  \n  struct Bet {\n    address player;\n    uint8 betType;\n    uint8 number;\n  }\n  Bet[] public bets;\n  \n  constructor()  payable {\n    creator = msg.sender;\n    necessaryBalance = 0;\n    nextRoundTimestamp = block.timestamp;\n    payouts = [2,3,3,2,2,36];\n\n    //times payout for each win type\n\n    numberRange = [1,2,2,1,1,36];   \n\n    // Bet type 0: black/red (1=black, 2=red)\n    // Bet type 1: column (1=left, 2=middle, 3=right)\n    // Bet type 2: dozen (1=1st dozen, 2=2nd dozen, 3=3rd dozen)\n    // Bet type 3: 18s (1=low 18s, 2=high 18s)\n    // Bet type 4: even/odd (1=odd, 2=even)\n    // Bet type 5: number (1-36)\n\n    betAmount = 10000000000000000; /* 0.01 ether */\n    maxAmountAllowedInTheBank = 2000000000000000000; /* 2 ether */\n  }\n\n  event RandomNumber(uint256 number);\n  \n  function getStatus() public view returns(uint, uint, uint, uint, uint) {\n    return (\n      bets.length,             // number of active bets\n      bets.length * betAmount, // value of active bets\n      nextRoundTimestamp,      // when can we play again\n      address(this).balance,   // roulette balance\n      winnings[msg.sender]     // winnings of player\n    ); \n  }\n\n\n    \n  function addEther() payable public {}\n\n  \n   \n  function test(uint8 number, uint8 betType) payable public {\n\n       /* \n       A bet is valid when:\n       1 - the value of the bet is correct (=betAmount)\n       2 - betType is kblock.timestampn (between 0 and 5)\n       3 - the option betted is valid (don't bet on 37!)\n       4 - the bank has sufficient funds to pay the bet\n    */\n\n    require(msg.value == betAmount, \"Incorrect bet amount\"); // Check that the bet value is correct\n    require(betType >= 0 && betType <= 5, \"Invalid bet type\"); // Check that the bet type is valid\n    require(number >= 0 && number <= numberRange[betType], \"Invalid number\"); // Check that the number is valid\n    uint payoutForThisBet = payouts[betType] * msg.value;\n    uint provisionalBalance = necessaryBalance + payoutForThisBet;\n    require(provisionalBalance < address(this).balance, \"Insufficient balance\"); // Check that the bank has sufficient funds to pay the bet\n    necessaryBalance += payoutForThisBet;\n    bets.push(Bet({\n      betType: betType,\n      player: msg.sender,\n      number: number\n    }));\n  }\n\n\n  function spinWheel() public {\n    /* are there any bets? */\n    require(bets.length > 0);\n    /* are we allowed to spin the wheel? */\n    require(block.timestamp > nextRoundTimestamp);\n    /* next time we are allowed to spin the wheel again */\n    nextRoundTimestamp = block.timestamp;\n    /* calculate 'random' number */\n    uint diff = block.difficulty;\n    bytes32 hash = blockhash(block.number-1);\n    Bet memory lb = bets[bets.length-1];\n    uint number = uint(keccak256(abi.encodePacked(block.timestamp, diff, hash, lb.betType, lb.player, lb.number))) % 37;\n    /* check every bet for this number */\n    for (uint i = 0; i < bets.length; i++) {\n      bool won = false;\n      Bet memory b = bets[i];\n      if (number == 0) {\n        won = (b.betType == 5 && b.number == 0);                   /* bet on 0 */\n      } else {\n        if (b.betType == 5) { \n          won = (b.number == number);                              /* bet on number */\n        } else if (b.betType == 4) {\n          if (b.number == 0) won = (number % 2 == 0);              /* bet on even */\n          if (b.number == 1) won = (number % 2 == 1);              /* bet on odd */\n        } else if (b.betType == 3) {            \n          if (b.number == 0) won = (number <= 18);                 /* bet on low 18s */\n          if (b.number == 1) won = (number >= 19);                 /* bet on high 18s */\n        } else if (b.betType == 2) {                               \n          if (b.number == 0) won = (number <= 12);                 /* bet on 1st dozen */\n          if (b.number == 1) won = (number > 12 && number <= 24);  /* bet on 2nd dozen */\n          if (b.number == 2) won = (number > 24);                  /* bet on 3rd dozen */\n        } else if (b.betType == 1) {               \n          if (b.number == 0) won = (number % 3 == 1);              /* bet on left column */\n          if (b.number == 1) won = (number % 3 == 2);              /* bet on middle column */\n          if (b.number == 2) won = (number % 3 == 0);              /* bet on right column */\n        } else if (b.betType == 0) {\n          if (b.number == 0) {                                     /* bet on black */\n            if (number <= 10 || (number >= 20 && number <= 28)) {\n              won = (number % 2 == 0);\n            } else {\n              won = (number % 2 == 1);\n            }\n          } else {                                                 /* bet on red */\n            if (number <= 10 || (number >= 20 && number <= 28)) {\n              won = (number % 2 == 1);\n            } else {\n              won = (number % 2 == 0);\n            }\n          }\n        }\n      }\n      /* if winning bet, add to player winnings balance */\n      if (won) {\n        winnings[b.player] += betAmount * payouts[b.betType];\n      }\n    }\n    /* delete all bets */\n    delete bets;\n    /* reset necessaryBalance */\n    necessaryBalance = 0;\n    /* check if to much money in the bank */\n    if (address(this).balance > maxAmountAllowedInTheBank) takeProfits();\n    /* returns 'random' number to UI */\n    emit RandomNumber(number);\n  }\n  \n  function cashOut() public {\n    address player = msg.sender;\n    uint256 amount = winnings[player];\n    require(amount > 0);\n    require(amount <= address(this).balance);\n    winnings[player] = 0;\n    payable(player).transfer(amount);\n  }\n  \n  function takeProfits() internal {\n    uint amount = address(this).balance - maxAmountAllowedInTheBank;\n    if (amount > 0) payable(address(creator)).transfer(amount);\n  }\n  \n  function creatorKill() public {\n    require(msg.sender == creator);\n    address payable payableCreator = payable(creator);\n    selfdestruct(payableCreator);\n\n  }\n\n  uint public numberOfFunders;\n    mapping(address => bool) private funders;\n    mapping(uint => address) private lutFunders;\n    mapping(address => uint) private lastFundAmount;\n    address public owner;\n\n\n\n    modifier onlyOwner(){\n        require(msg.sender==owner, \"Only the owner can do that\");\n        _;\n\n    }   \n\n    function transferOwnership(address newOwner) external onlyOwner{\n        owner = newOwner;\n\n                 \n    }           \n\n    function addFunds() external payable{\n       address funder = msg.sender;\n       if(!funders[funder]){\n        uint index = numberOfFunders++;\n        funders[funder] = true;\n        lutFunders[index] = funder;\n        }\n        lastFundAmount[funder] += msg.value;\n    }\n    function getAllFunders() external view returns(address[] memory){\n        address[] memory _funders = new address[](numberOfFunders);\n        for(uint i=0; i<numberOfFunders; i++){\n            _funders[i] = lutFunders[i];\n        }\n    return _funders;\n    }\n\n\n    function withdraw(uint withdrawAmount) external {\n        require(withdrawAmount >= 1000000000000000000 || msg.sender==owner, \"You cannot withdraw more than 1 Ether\");\n        payable (msg.sender).transfer(withdrawAmount);\n    }\n \n}\n\n",
  "sourcePath": "/Users/epushett/Desktop/solidity_proj/final/contracts/Roulette.sol",
  "compiler": {
    "name": "solc",
    "version": "0.8.17+commit.8df45f5f.Emscripten.clang"
  },
  "schemaVersion": "3.4.11",
  "updatedAt": "2023-03-26T07:54:40.096Z",
  "networkType": "ethereum",
  "devdoc": {
    "kind": "dev",
    "methods": {},
    "version": 1
  },
  "userdoc": {
    "kind": "user",
    "methods": {},
    "version": 1
  }
}