{
  "contractName": "Roulette",
  "abi": [
    {
      "inputs": [],
      "stateMutability": "payable",
      "type": "constructor",
      "payable": true
    },
    {
      "anonymous": false,
      "inputs": [
        {
          "indexed": false,
          "internalType": "uint256",
          "name": "number",
          "type": "uint256"
        }
      ],
      "name": "RandomNumber",
      "type": "event"
    },
    {
      "inputs": [
        {
          "internalType": "uint256",
          "name": "",
          "type": "uint256"
        }
      ],
      "name": "bets",
      "outputs": [
        {
          "internalType": "address",
          "name": "player",
          "type": "address"
        },
        {
          "internalType": "uint8",
          "name": "betType",
          "type": "uint8"
        },
        {
          "internalType": "uint8",
          "name": "number",
          "type": "uint8"
        }
      ],
      "stateMutability": "view",
      "type": "function",
      "constant": true
    },
    {
      "inputs": [],
      "name": "numberOfWinners",
      "outputs": [
        {
          "internalType": "uint256",
          "name": "",
          "type": "uint256"
        }
      ],
      "stateMutability": "view",
      "type": "function",
      "constant": true
    },
    {
      "inputs": [
        {
          "internalType": "address",
          "name": "",
          "type": "address"
        }
      ],
      "name": "winners",
      "outputs": [
        {
          "internalType": "bool",
          "name": "",
          "type": "bool"
        }
      ],
      "stateMutability": "view",
      "type": "function",
      "constant": true
    },
    {
      "inputs": [
        {
          "internalType": "address",
          "name": "",
          "type": "address"
        }
      ],
      "name": "winnings",
      "outputs": [
        {
          "internalType": "uint256",
          "name": "",
          "type": "uint256"
        }
      ],
      "stateMutability": "view",
      "type": "function",
      "constant": true
    },
    {
      "inputs": [],
      "name": "RedBlack",
      "outputs": [],
      "stateMutability": "nonpayable",
      "type": "function"
    },
    {
      "inputs": [],
      "name": "getStatus",
      "outputs": [
        {
          "internalType": "uint256",
          "name": "",
          "type": "uint256"
        },
        {
          "internalType": "uint256",
          "name": "",
          "type": "uint256"
        },
        {
          "internalType": "uint256",
          "name": "",
          "type": "uint256"
        },
        {
          "internalType": "uint256",
          "name": "",
          "type": "uint256"
        },
        {
          "internalType": "uint256",
          "name": "",
          "type": "uint256"
        }
      ],
      "stateMutability": "view",
      "type": "function",
      "constant": true
    },
    {
      "inputs": [],
      "name": "addEther",
      "outputs": [],
      "stateMutability": "payable",
      "type": "function",
      "payable": true
    },
    {
      "inputs": [
        {
          "internalType": "uint8",
          "name": "number",
          "type": "uint8"
        },
        {
          "internalType": "uint8",
          "name": "betType",
          "type": "uint8"
        }
      ],
      "name": "bet",
      "outputs": [],
      "stateMutability": "payable",
      "type": "function",
      "payable": true
    },
    {
      "inputs": [],
      "name": "spinWheel",
      "outputs": [],
      "stateMutability": "nonpayable",
      "type": "function"
    },
    {
      "inputs": [],
      "name": "getWinners",
      "outputs": [
        {
          "components": [
            {
              "internalType": "address",
              "name": "winner",
              "type": "address"
            },
            {
              "internalType": "uint256",
              "name": "winnings",
              "type": "uint256"
            }
          ],
          "internalType": "struct Roulette.Winner[]",
          "name": "",
          "type": "tuple[]"
        }
      ],
      "stateMutability": "view",
      "type": "function",
      "constant": true
    },
    {
      "inputs": [
        {
          "internalType": "uint256",
          "name": "number",
          "type": "uint256"
        }
      ],
      "name": "isRed",
      "outputs": [
        {
          "internalType": "bool",
          "name": "",
          "type": "bool"
        }
      ],
      "stateMutability": "view",
      "type": "function",
      "constant": true
    },
    {
      "inputs": [
        {
          "internalType": "uint256",
          "name": "number",
          "type": "uint256"
        }
      ],
      "name": "isBlack",
      "outputs": [
        {
          "internalType": "bool",
          "name": "",
          "type": "bool"
        }
      ],
      "stateMutability": "view",
      "type": "function",
      "constant": true
    },
    {
      "inputs": [],
      "name": "cashOut",
      "outputs": [],
      "stateMutability": "nonpayable",
      "type": "function"
    },
    {
      "inputs": [],
      "name": "creatorKill",
      "outputs": [],
      "stateMutability": "nonpayable",
      "type": "function"
    }
  ],
  "bytecode": "0x608060405233600360006101000a81548173ffffffffffffffffffffffffffffffffffffffff021916908373ffffffffffffffffffffffffffffffffffffffff1602179055506000600181905550426002819055506040518060600160405280600260ff168152602001600260ff168152602001602460ff1681525060099060036200008d92919062000750565b50604051806102400160405280602060ff168152602001601360ff168152602001601560ff168152602001601960ff168152602001602260ff168152602001601b60ff168152602001602460ff168152602001601e60ff168152602001601760ff168152602001600560ff168152602001601060ff168152602001600160ff168152602001600e60ff168152602001600960ff168152602001601260ff168152602001600760ff168152602001600c60ff168152602001600360ff16815250600b9060126200015e929190620007fe565b506200017b6001600d6200069160201b6200109f1790919060201c565b50620001986003600d6200069160201b6200109f1790919060201c565b50620001b56005600d6200069160201b6200109f1790919060201c565b50620001d26007600d6200069160201b6200109f1790919060201c565b50620001ef6009600d6200069160201b6200109f1790919060201c565b506200020c600c600d6200069160201b6200109f1790919060201c565b5062000229600e600d6200069160201b6200109f1790919060201c565b50620002466010600d6200069160201b6200109f1790919060201c565b50620002636012600d6200069160201b6200109f1790919060201c565b50620002806013600d6200069160201b6200109f1790919060201c565b506200029d6015600d6200069160201b6200109f1790919060201c565b50620002ba6017600d6200069160201b6200109f1790919060201c565b50620002d76019600d6200069160201b6200109f1790919060201c565b50620002f4601b600d6200069160201b6200109f1790919060201c565b5062000311601e600d6200069160201b6200109f1790919060201c565b506200032e6020600d6200069160201b6200109f1790919060201c565b506200034b6022600d6200069160201b6200109f1790919060201c565b50620003686024600d6200069160201b6200109f1790919060201c565b50604051806102400160405280600f60ff168152602001600460ff168152602001600260ff168152602001601160ff168152602001600660ff168152602001600d60ff168152602001600b60ff168152602001600860ff168152602001600a60ff168152602001601860ff168152602001602160ff168152602001601460ff168152602001601f60ff168152602001601660ff168152602001601d60ff168152602001601c60ff168152602001602360ff168152602001601a60ff16815250600c90601262000439929190620007fe565b50620004566002600f6200069160201b6200109f1790919060201c565b50620004736004600f6200069160201b6200109f1790919060201c565b50620004906006600f6200069160201b6200109f1790919060201c565b50620004ad6008600f6200069160201b6200109f1790919060201c565b50620004ca600a600f6200069160201b6200109f1790919060201c565b50620004e7600b600f6200069160201b6200109f1790919060201c565b5062000504600d600f6200069160201b6200109f1790919060201c565b5062000520600f806200069160201b6200109f1790919060201c565b506200053d6011600f6200069160201b6200109f1790919060201c565b506200055a6014600f6200069160201b6200109f1790919060201c565b50620005776016600f6200069160201b6200109f1790919060201c565b50620005946018600f6200069160201b6200109f1790919060201c565b50620005b1601a600f6200069160201b6200109f1790919060201c565b50620005ce601c600f6200069160201b6200109f1790919060201c565b50620005eb601d600f6200069160201b6200109f1790919060201c565b5062000608601f600f6200069160201b6200109f1790919060201c565b50620006256021600f6200069160201b6200109f1790919060201c565b50620006426023600f6200069160201b6200109f1790919060201c565b506040518060600160405280600160ff168152602001600160ff168152602001602460ff16815250600a9060036200067c92919062000750565b50662386f26fc10000600081905550620008cb565b6000620006ab836000018360001b620006b360201b60201c565b905092915050565b6000620006c783836200072d60201b60201c565b6200072257826000018290806001815401808255809150506001900390600052602060002001600090919091909150558260000180549050836001016000848152602001908152602001600020819055506001905062000727565b600090505b92915050565b600080836001016000848152602001908152602001600020541415905092915050565b82805482825590600052602060002090601f01602090048101928215620007eb5791602002820160005b83821115620007ba57835183826101000a81548160ff021916908360ff16021790555092602001926001016020816000010492830192600103026200077a565b8015620007e95782816101000a81549060ff0219169055600101602081600001049283019260010302620007ba565b505b509050620007fa9190620008ac565b5090565b82805482825590600052602060002090601f01602090048101928215620008995791602002820160005b838211156200086857835183826101000a81548160ff021916908360ff160217905550926020019260010160208160000104928301926001030262000828565b8015620008975782816101000a81549060ff021916905560010160208160000104928301926001030262000868565b505b509050620008a89190620008ac565b5090565b5b80821115620008c7576000816000905550600101620008ad565b5090565b611abf80620008db6000396000f3fe6080604052600436106100dd5760003560e01c80638894dd2b1161007f578063ab561c1611610059578063ab561c161461025b578063d773f46e14610298578063df15c37e146102b4578063ea3a1499146102df576100dd565b80638894dd2b1461020f5780638acfaca9146102195780638c0e554f14610244576100dd565b806322af00fa116100bb57806322af00fa1461014d5780634e69d5601461018c5780636bd5450a146101bb578063793cd71e146101f8576100dd565b80631392e54f146100e257806315ecef921461011f5780631844989f14610136575b600080fd5b3480156100ee57600080fd5b5061010960048036038101906101049190611258565b61031c565b60405161011691906112a0565b60405180910390f35b34801561012b57600080fd5b50610134610339565b005b34801561014257600080fd5b5061014b610890565b005b34801561015957600080fd5b50610174600480360381019061016f9190611258565b610970565b60405161018393929190611318565b60405180910390f35b34801561019857600080fd5b506101a16109e0565b6040516101b295949392919061135e565b60405180910390f35b3480156101c757600080fd5b506101e260048036038101906101dd91906113dd565b610a56565b6040516101ef91906112a0565b60405180910390f35b34801561020457600080fd5b5061020d610a76565b005b610217610b69565b005b34801561022557600080fd5b5061022e610b6b565b60405161023b919061140a565b60405180910390f35b34801561025057600080fd5b50610259610b71565b005b34801561026757600080fd5b50610282600480360381019061027d9190611258565b610c0b565b60405161028f91906112a0565b60405180910390f35b6102b260048036038101906102ad9190611451565b610c28565b005b3480156102c057600080fd5b506102c9610efd565b6040516102d6919061158d565b60405180910390f35b3480156102eb57600080fd5b50610306600480360381019061030191906113dd565b611087565b604051610313919061140a565b60405180910390f35b600061033282600f6110b990919063ffffffff16565b9050919050565b60006011805490501161034b57600080fd5b600254421161035957600080fd5b426002819055506000449050600060014361037491906115de565b40905060006011600160118054905061038d91906115de565b8154811061039e5761039d611612565b5b906000526020600020016040518060600160405290816000820160009054906101000a900473ffffffffffffffffffffffffffffffffffffffff1673ffffffffffffffffffffffffffffffffffffffff1673ffffffffffffffffffffffffffffffffffffffff1681526020016000820160149054906101000a900460ff1660ff1660ff1681526020016000820160159054906101000a900460ff1660ff1660ff16815250509050600060254285858560200151866000015187604001516040516020016104709695949392919061170b565b6040516020818303038152906040528051906020012060001c61049391906117aa565b905060005b60118054905081101561083c57600080601183815481106104bc576104bb611612565b5b906000526020600020016040518060600160405290816000820160009054906101000a900473ffffffffffffffffffffffffffffffffffffffff1673ffffffffffffffffffffffffffffffffffffffff1673ffffffffffffffffffffffffffffffffffffffff1681526020016000820160149054906101000a900460ff1660ff1660ff1681526020016000820160159054906101000a900460ff1660ff1660ff1681525050905060008403610590576002816020015160ff1614801561058957506000816040015160ff16145b9150610659565b6002816020015160ff16036105b05783816040015160ff16149150610658565b6001816020015160ff160361060d576000816040015160ff16036105e55760006002856105dd91906117aa565b149150610608565b6001816040015160ff160361060757600160028561060391906117aa565b1491505b5b610657565b6000816020015160ff16036106565761062c816040015160ff1661031c565b1561063a5760019150610655565b61064a816040015160ff16610c0b565b1561065457600191505b5b5b5b5b5b811561082757600081600001519050600660008273ffffffffffffffffffffffffffffffffffffffff1673ffffffffffffffffffffffffffffffffffffffff16815260200190815260200160002060009054906101000a900460ff16610780576000600560008154809291906106ce906117db565b9190505590506001600660008473ffffffffffffffffffffffffffffffffffffffff1673ffffffffffffffffffffffffffffffffffffffff16815260200190815260200160002060006101000a81548160ff021916908315150217905550816007600083815260200190815260200160002060006101000a81548173ffffffffffffffffffffffffffffffffffffffff021916908373ffffffffffffffffffffffffffffffffffffffff160217905550505b600080546009846020015160ff168154811061079f5761079e611612565b5b90600052602060002090602091828204019190069054906101000a900460ff1660ff166107cc9190611823565b905080600860008473ffffffffffffffffffffffffffffffffffffffff1673ffffffffffffffffffffffffffffffffffffffff168152602001908152602001600020600082825461081d9190611865565b9250508190555050505b50508080610834906117db565b915050610498565b506011600061084b9190611166565b60006001819055507fec6cdc8e735e4069f6e89062582f3e5532a8e71373e7ef2962fa916cf2af21f281604051610882919061140a565b60405180910390a150505050565b60005b600b805490508110156108fe576108ea600b82815481106108b7576108b6611612565b5b90600052602060002090602091828204019190069054906101000a900460ff1660ff16600d61109f90919063ffffffff16565b5080806108f6906117db565b915050610893565b5060005b600c8054905081101561096d57610959600c828154811061092657610925611612565b5b90600052602060002090602091828204019190069054906101000a900460ff1660ff16600f61109f90919063ffffffff16565b508080610965906117db565b915050610902565b50565b6011818154811061098057600080fd5b906000526020600020016000915090508060000160009054906101000a900473ffffffffffffffffffffffffffffffffffffffff16908060000160149054906101000a900460ff16908060000160159054906101000a900460ff16905083565b6000806000806000601180549050600054601180549050610a019190611823565b60025447600860003373ffffffffffffffffffffffffffffffffffffffff1673ffffffffffffffffffffffffffffffffffffffff16815260200190815260200160002054945094509450945094509091929394565b60066020528060005260406000206000915054906101000a900460ff1681565b60003390506000600860008373ffffffffffffffffffffffffffffffffffffffff1673ffffffffffffffffffffffffffffffffffffffff16815260200190815260200160002054905060008111610acc57600080fd5b47811115610ad957600080fd5b6000600860008473ffffffffffffffffffffffffffffffffffffffff1673ffffffffffffffffffffffffffffffffffffffff168152602001908152602001600020819055508173ffffffffffffffffffffffffffffffffffffffff166108fc829081150290604051600060405180830381858888f19350505050158015610b64573d6000803e3d6000fd5b505050565b565b60055481565b600360009054906101000a900473ffffffffffffffffffffffffffffffffffffffff1673ffffffffffffffffffffffffffffffffffffffff163373ffffffffffffffffffffffffffffffffffffffff1614610bcb57600080fd5b6000600360009054906101000a900473ffffffffffffffffffffffffffffffffffffffff1690508073ffffffffffffffffffffffffffffffffffffffff16ff5b6000610c2182600d6110b990919063ffffffff16565b9050919050565b6000543414610c6c576040517f08c379a0000000000000000000000000000000000000000000000000000000008152600401610c63906118f6565b60405180910390fd5b60008160ff1610158015610c84575060058160ff1611155b610cc3576040517f08c379a0000000000000000000000000000000000000000000000000000000008152600401610cba90611962565b60405180910390fd5b60008260ff1610158015610d135750600a8160ff1681548110610ce957610ce8611612565b5b90600052602060002090602091828204019190069054906101000a900460ff1660ff168260ff1611155b610d52576040517f08c379a0000000000000000000000000000000000000000000000000000000008152600401610d49906119ce565b60405180910390fd5b60003460098360ff1681548110610d6c57610d6b611612565b5b90600052602060002090602091828204019190069054906101000a900460ff1660ff16610d999190611823565b9050600081600154610dab9190611865565b9050478110610def576040517f08c379a0000000000000000000000000000000000000000000000000000000008152600401610de690611a3a565b60405180910390fd5b8160016000828254610e019190611865565b92505081905550600060405180606001604052803373ffffffffffffffffffffffffffffffffffffffff1681526020018560ff1681526020018660ff1681525090506011819080600181540180825580915050600190039060005260206000200160009091909190915060008201518160000160006101000a81548173ffffffffffffffffffffffffffffffffffffffff021916908373ffffffffffffffffffffffffffffffffffffffff16021790555060208201518160000160146101000a81548160ff021916908360ff16021790555060408201518160000160156101000a81548160ff021916908360ff16021790555050505050505050565b6060600060055467ffffffffffffffff811115610f1d57610f1c611a5a565b5b604051908082528060200260200182016040528015610f5657816020015b610f43611187565b815260200190600190039081610f3b5790505b50905060005b60055481101561107f576007600082815260200190815260200160002060009054906101000a900473ffffffffffffffffffffffffffffffffffffffff16828281518110610fad57610fac611612565b5b60200260200101516000019073ffffffffffffffffffffffffffffffffffffffff16908173ffffffffffffffffffffffffffffffffffffffff16815250506008600083838151811061100257611001611612565b5b60200260200101516000015173ffffffffffffffffffffffffffffffffffffffff1673ffffffffffffffffffffffffffffffffffffffff1681526020019081526020016000205482828151811061105c5761105b611612565b5b602002602001015160200181815250508080611077906117db565b915050610f5c565b508091505090565b60086020528060005260406000206000915090505481565b60006110b1836000018360001b6110d3565b905092915050565b60006110cb836000018360001b611143565b905092915050565b60006110df8383611143565b61113857826000018290806001815401808255809150506001900390600052602060002001600090919091909150558260000180549050836001016000848152602001908152602001600020819055506001905061113d565b600090505b92915050565b600080836001016000848152602001908152602001600020541415905092915050565b508054600082559060005260206000209081019061118491906111b7565b50565b6040518060400160405280600073ffffffffffffffffffffffffffffffffffffffff168152602001600081525090565b5b8082111561121957600080820160006101000a81549073ffffffffffffffffffffffffffffffffffffffff02191690556000820160146101000a81549060ff02191690556000820160156101000a81549060ff0219169055506001016111b8565b5090565b600080fd5b6000819050919050565b61123581611222565b811461124057600080fd5b50565b6000813590506112528161122c565b92915050565b60006020828403121561126e5761126d61121d565b5b600061127c84828501611243565b91505092915050565b60008115159050919050565b61129a81611285565b82525050565b60006020820190506112b56000830184611291565b92915050565b600073ffffffffffffffffffffffffffffffffffffffff82169050919050565b60006112e6826112bb565b9050919050565b6112f6816112db565b82525050565b600060ff82169050919050565b611312816112fc565b82525050565b600060608201905061132d60008301866112ed565b61133a6020830185611309565b6113476040830184611309565b949350505050565b61135881611222565b82525050565b600060a082019050611373600083018861134f565b611380602083018761134f565b61138d604083018661134f565b61139a606083018561134f565b6113a7608083018461134f565b9695505050505050565b6113ba816112db565b81146113c557600080fd5b50565b6000813590506113d7816113b1565b92915050565b6000602082840312156113f3576113f261121d565b5b6000611401848285016113c8565b91505092915050565b600060208201905061141f600083018461134f565b92915050565b61142e816112fc565b811461143957600080fd5b50565b60008135905061144b81611425565b92915050565b600080604083850312156114685761146761121d565b5b60006114768582860161143c565b92505060206114878582860161143c565b9150509250929050565b600081519050919050565b600082825260208201905092915050565b6000819050602082019050919050565b6114c6816112db565b82525050565b6114d581611222565b82525050565b6040820160008201516114f160008501826114bd565b50602082015161150460208501826114cc565b50505050565b600061151683836114db565b60408301905092915050565b6000602082019050919050565b600061153a82611491565b611544818561149c565b935061154f836114ad565b8060005b83811015611580578151611567888261150a565b975061157283611522565b925050600181019050611553565b5085935050505092915050565b600060208201905081810360008301526115a7818461152f565b905092915050565b7f4e487b7100000000000000000000000000000000000000000000000000000000600052601160045260246000fd5b60006115e982611222565b91506115f483611222565b925082820390508181111561160c5761160b6115af565b5b92915050565b7f4e487b7100000000000000000000000000000000000000000000000000000000600052603260045260246000fd5b6000819050919050565b61165c61165782611222565b611641565b82525050565b6000819050919050565b6000819050919050565b61168761168282611662565b61166c565b82525050565b60008160f81b9050919050565b60006116a58261168d565b9050919050565b6116bd6116b8826112fc565b61169a565b82525050565b60008160601b9050919050565b60006116db826116c3565b9050919050565b60006116ed826116d0565b9050919050565b611705611700826112db565b6116e2565b82525050565b6000611717828961164b565b602082019150611727828861164b565b6020820191506117378287611676565b60208201915061174782866116ac565b60018201915061175782856116f4565b60148201915061176782846116ac565b600182019150819050979650505050505050565b7f4e487b7100000000000000000000000000000000000000000000000000000000600052601260045260246000fd5b60006117b582611222565b91506117c083611222565b9250826117d0576117cf61177b565b5b828206905092915050565b60006117e682611222565b91507fffffffffffffffffffffffffffffffffffffffffffffffffffffffffffffffff8203611818576118176115af565b5b600182019050919050565b600061182e82611222565b915061183983611222565b925082820261184781611222565b9150828204841483151761185e5761185d6115af565b5b5092915050565b600061187082611222565b915061187b83611222565b9250828201905080821115611893576118926115af565b5b92915050565b600082825260208201905092915050565b7f496e636f72726563742062657420616d6f756e74000000000000000000000000600082015250565b60006118e0601483611899565b91506118eb826118aa565b602082019050919050565b6000602082019050818103600083015261190f816118d3565b9050919050565b7f496e76616c696420626574207479706500000000000000000000000000000000600082015250565b600061194c601083611899565b915061195782611916565b602082019050919050565b6000602082019050818103600083015261197b8161193f565b9050919050565b7f496e76616c6964206e756d626572000000000000000000000000000000000000600082015250565b60006119b8600e83611899565b91506119c382611982565b602082019050919050565b600060208201905081810360008301526119e7816119ab565b9050919050565b7f496e73756666696369656e742062616c616e6365000000000000000000000000600082015250565b6000611a24601483611899565b9150611a2f826119ee565b602082019050919050565b60006020820190508181036000830152611a5381611a17565b9050919050565b7f4e487b7100000000000000000000000000000000000000000000000000000000600052604160045260246000fdfea2646970667358221220f78e5b5e925220331c4eb0d0c369ef492349497482c7d4ce2c779e107145372564736f6c63430008110033",
  "immutableReferences": {},
  "source": "// SPDX-License-Identifier: MIT\npragma solidity >=0.4.22 <0.9.0;\nimport \"@openzeppelin/contracts/utils/structs/EnumerableSet.sol\";\n\n\ncontract Roulette {\n  \n  uint betAmount;\n  uint necessaryBalance;\n  uint nextRoundTimestamp;\n  address creator;\n  uint256 maxAmountAllowedInTheBank;\n  uint public numberOfWinners;\n  mapping(address => bool) public winners;\n  mapping(uint => address) private lutWinners;\n  mapping(address => uint) public winnings;\n  //mapping (address => uint256) winnings;\n  uint8[] payouts;\n  uint8[] numberRange;\n  uint8[] red;\n  uint8[] black;\n    \n  using EnumerableSet for EnumerableSet.UintSet;\n\n    EnumerableSet.UintSet reds;\n    EnumerableSet.UintSet blacks;\n  \n  /*\n    BetTypes are as follow:\n      0: color\n      1: odd/even\n      2: number\n      \n    Depending on the BetType, number will be:\n      color: 0 for black, 1 for red\n      odd/even: 0 for even, 1 for odd\n      number: number\n  */\n  \n  struct Bet {\n    address player;\n    uint8 betType;\n    uint8 number;\n  }\n  Bet[] public bets;\n\n\n\n    struct Winner {\n    address winner;\n    uint winnings;\n}\n  \n  constructor()  payable {\n    creator = msg.sender;\n    necessaryBalance = 0;\n    nextRoundTimestamp = block.timestamp;\n    payouts = [2,2,36];\n    red = [32,19,21,25,34,27,36,30,23,5,16,1,14,9,18,7,12,3];\n    reds.add(1);\n    reds.add(3);\n    reds.add(5);\n    reds.add(7);\n    reds.add(9);\n    reds.add(12);\n    reds.add(14);\n    reds.add(16);\n    reds.add(18);\n    reds.add(19);\n    reds.add(21);\n    reds.add(23);\n    reds.add(25);\n    reds.add(27);\n    reds.add(30);\n    reds.add(32);\n    reds.add(34);\n    reds.add(36);\n    black = [15, 4, 2, 17, 6, 13, 11, 8, 10, 24, 33, 20, 31, 22, 29, 28, 35, 26];\n    blacks.add(2);\n    blacks.add(4);\n    blacks.add(6);\n    blacks.add(8);\n    blacks.add(10);\n    blacks.add(11);\n    blacks.add(13);\n    blacks.add(15);\n    blacks.add(17);\n    blacks.add(20);\n    blacks.add(22);\n    blacks.add(24);\n    blacks.add(26);\n    blacks.add(28);\n    blacks.add(29);\n    blacks.add(31);\n    blacks.add(33);\n    blacks.add(35);\n\n\n    \n\n    //times payout for each win type\n\n    numberRange = [1,1,36];   \n\n    // Bet type 0: black/red (1=black, 2=red)\n    // Bet type 1: even/odd (1=odd, 2=even)\n    // Bet type 2: number (1-36)\n\n     betAmount = 10000000000000000; /* 0.01 ether */\n    // maxAmountAllowedInTheBank = 2000000000000000000; /* 2 ether */\n  }\n\n  \n\n  event RandomNumber(uint256 number);\n  \n  function RedBlack() public{\n\n    for (uint i = 0; i < red.length; i++) {\n            reds.add(red[i]);\n    }\n\n    for (uint i = 0; i < black.length; i++) {\n            blacks.add(black[i]);\n    }\n\n  }\n\n  function getStatus() public view returns(uint, uint, uint, uint, uint) {\n    return (\n      bets.length,             // number of active bets\n      bets.length * betAmount, // value of active bets\n      nextRoundTimestamp,      // when can we play again\n      address(this).balance,   // roulette balance\n      winnings[msg.sender]     // winnings of player\n    ); \n  }\n\n\n  //must run when start server in order to have eth in contract  \n  function addEther() payable public {}\n\n  \n   \n  function bet(uint8 number, uint8 betType) payable public {\n\n       /* \n       A bet is valid when:\n       1 - the value of the bet is correct (=betAmount)\n       2 - betType is kblock.timestampn (between 0 and 5)\n       3 - the option betted is valid (don't bet on 37!)\n       4 - the bank has sufficient funds to pay the bet\n    */\n\n    require(msg.value == betAmount, \"Incorrect bet amount\"); // Check that the bet value is correct\n    require(betType >= 0 && betType <= 5, \"Invalid bet type\"); // Check that the bet type is valid\n    require(number >= 0 && number <= numberRange[betType], \"Invalid number\"); // Check that the number is valid\n    uint payoutForThisBet = payouts[betType] * msg.value;\n    uint provisionalBalance = necessaryBalance + payoutForThisBet;\n    require(provisionalBalance < address(this).balance, \"Insufficient balance\"); // Check that the bank has sufficient funds to pay the bet\n    necessaryBalance += payoutForThisBet;\n    Bet memory newBet = Bet({\n      betType: betType,\n      player: msg.sender,\n      number: number\n    });\n    bets.push(newBet);\n  }\n\n\n  function spinWheel() public {\n    /* are there any bets? */\n    require(bets.length > 0);\n    /* are we allowed to spin the wheel? */\n    require(block.timestamp > nextRoundTimestamp);\n    /* next time we are allowed to spin the wheel again */\n    nextRoundTimestamp = block.timestamp;\n    /* calculate 'random' number */\n    uint diff = block.difficulty;\n    bytes32 hash = blockhash(block.number-1);\n    Bet memory lb = bets[bets.length-1];\n    uint number = uint(keccak256(abi.encodePacked(block.timestamp, diff, hash, lb.betType, lb.player, lb.number))) % 37;\n    /* check every bet for this number */\n    for (uint i = 0; i < bets.length; i++) {\n      bool won = false;\n      Bet memory b = bets[i];\n      if (number == 0) {\n        won = (b.betType == 2 && b.number == 0);                   /* bet on 0 */\n      } else {\n        if (b.betType == 2) { \n          won = (b.number == number);                              /* bet on number */\n        } \n        else if (b.betType == 1) {\n          if (b.number == 0){ \n          won = (number % 2 == 0);\n          }              /* bet on even */\n          else if (b.number == 1){ \n          won = (number % 2 == 1);\n          }              /* bet on odd */\n         }\n          else if (b.betType == 0) {                   \n            if (isBlack(b.number)) {                     /* bet on black */\n              won = true;\n          } else {                                                 /* bet on red */\n            if (isRed(b.number)) {\n              won = true;\n          }\n        }\n      }\n    }\n  \n      /* if winning bet, add to player winnings balance */\n      if (won) \n      {\n        address winner = b.player;\n       if(!winners[winner]){\n        uint index = numberOfWinners++;\n        winners[winner] = true;\n        lutWinners[index] = winner;\n        }\n        uint payout = payouts[b.betType] * betAmount;\n       winnings[winner] += payout;\n       }\n    }\n    \n\n    /* delete all bets */\n    delete bets;\n    /* reset necessaryBalance */\n    necessaryBalance = 0;\n    /* check if to much money in the bank */\n    //if (address(this).balance > maxAmountAllowedInTheBank) takeProfits();\n    /* returns 'random' number to UI */\n    emit RandomNumber(number);\n  }\n\n\n\nfunction getWinners() public view returns (Winner[] memory) {\n    Winner[] memory winnerList = new Winner[](numberOfWinners);\n    for (uint i = 0; i < numberOfWinners; i++) {\n        winnerList[i].winner = lutWinners[i];\n        winnerList[i].winnings = winnings[winnerList[i].winner];\n    }\n    return winnerList;\n}\n\n\n\n\n\n\n\n\n\n  \n  // function getWinners() public view returns (address[] memory) {\n  //       address[] memory winnerList = new address[](numberOfWinners);\n  //       for (uint i = 0; i < numberOfWinners; i++) {\n  //           winnerList[i] = lutWinners[i];\n  //       }\n  //       return winnerList;\n  //   }\n\n  \n\n    function isRed(uint number) public view returns (bool) {\n        return reds.contains(number);\n    }\n\n    function isBlack(uint number) public view returns (bool) {\n        return blacks.contains(number);\n    }\n\n  function cashOut() public {\n    address player = msg.sender;\n    uint256 amount = winnings[player];\n    require(amount > 0);\n    require(amount <= address(this).balance);\n    winnings[player] = 0;\n    payable(player).transfer(amount);\n  }\n  \n  function takeProfits() internal {\n    uint amount = address(this).balance - maxAmountAllowedInTheBank;\n    if (amount > 0) payable(address(creator)).transfer(amount);\n  }\n  \n  function creatorKill() public {\n    require(msg.sender == creator);\n    address payable payableCreator = payable(creator);\n    selfdestruct(payableCreator);\n\n  }\n\n  \n \n}\n\n\n\n\n\n// contract Roulette {\n//     // uint public numberOfFunders;\n//     // mapping(address => bool) private funders;\n//     // mapping(uint => address) private lutFunders;\n//     // mapping(address => uint) private lastFundAmount;\n//     // address public owner;\n\n\n\n//     // constructor() {\n//     //     owner = msg.sender;\n//     // }  \n\n//     // modifier onlyOwner(){\n//     //     require(msg.sender==owner, \"Only the owner can do that\");\n//     //     _;\n\n//     // }   \n\n//     // function transferOwnership(address newOwner) external onlyOwner{\n//     //     owner = newOwner;\n\n                 \n//     // }           \n\n//     // function addFunds() external payable{\n//     //    address funder = msg.sender;\n//     //    if(!funders[funder]){\n//     //     uint index = numberOfFunders++;\n//     //     funders[funder] = true;\n//     //     lutFunders[index] = funder;\n//     //     }\n//     //     lastFundAmount[funder] += msg.value;\n//     // }\n//     // function getAllFunders() external view returns(address[] memory){\n//     //     address[] memory _funders = new address[](numberOfFunders);\n//     //     for(uint i=0; i<numberOfFunders; i++){\n//     //         _funders[i] = lutFunders[i];\n//     //     }\n//     // return _funders;\n//     // }\n\n\n//     // function withdraw(uint withdrawAmount) external {\n//     //     require(withdrawAmount >= 1000000000000000000 || msg.sender==owner, \"You cannot withdraw more than 1 Ether\");\n//     //     payable (msg.sender).transfer(withdrawAmount);\n//     // }\n\n\n//     address public owner;\n//     uint public balance;\n//     uint public minBet;\n    \n//     struct Bet {\n//         address player;\n//         uint amount;\n//         uint number;\n//     }\n    \n//     Bet[] public bets;\n    \n//     event Win(address indexed player, uint amount);\n//     event Lose(address indexed player, uint amount);\n    \n//     constructor() {\n//         owner = msg.sender;\n//         minBet = 1 ether;\n//         balance = 10 ether;\n//     }\n   \n//     function spinWheel(uint number) public payable {\n//         require(msg.value >= minBet, \"You must bet an amount greater than or equal to the minimum bet.\");\n        \n//         Bet memory newBet = Bet(msg.sender, msg.value, number);\n//         bets.push(newBet);\n        \n//         balance += msg.value;\n//     }\n    \n//     function payout(uint winningNumber) public {\n//         require(msg.sender == owner, \"Only the owner can trigger a payout.\");\n        \n//         uint totalWinnings = 0;\n        \n//         for(uint i = 0; i < bets.length; i++) {\n//             if(bets[i].number == winningNumber) {\n//                 uint winnings = bets[i].amount * 36;\n//                 payable(bets[i].player).transfer(winnings);\n//                 totalWinnings += winnings;\n//                 emit Win(bets[i].player, winnings);\n//             } else {\n//                 emit Lose(bets[i].player, bets[i].amount);\n//             }\n//         }\n        \n//         balance -= totalWinnings;\n//     }\n    \n//     function withdrawBalance() public {\n//         require(msg.sender == owner, \"Only the owner can withdraw the balance.\");\n        \n//         payable(owner).transfer(balance);\n//         balance = 0;\n//     }\n// }\n    \n\n\n\n//}\n//const instance = await Roulette.deployed()\n//instance.addFunds({value: \"500000000000000000\", from: accounts[0]})\n//instance.addFunds({value: \"500000000000000000\", from: accounts[1]})\n//const funds = instance.funds()\n//instance.getAllFunders()\n//instance.withdraw(\"1000000000000000000\", {from: accounts[1]})\n// pragma solidity >=0.4.22 <0.9.0;",
  "sourcePath": "/Users/epushett/Desktop/solidity_proj/final/contracts/Roulette.sol",
  "compiler": {
    "name": "solc",
    "version": "0.8.17+commit.8df45f5f.Emscripten.clang"
  },
  "schemaVersion": "3.4.11",
  "updatedAt": "2023-03-28T16:36:43.166Z",
  "networkType": "ethereum",
  "devdoc": {
    "kind": "dev",
    "methods": {},
    "version": 1
  },
  "userdoc": {
    "kind": "user",
    "methods": {},
    "version": 1
  }
}