{
  "contractName": "Roulette",
  "abi": [
    {
      "inputs": [],
      "stateMutability": "payable",
      "type": "constructor",
      "payable": true
    },
    {
      "anonymous": false,
      "inputs": [
        {
          "indexed": false,
          "internalType": "uint256",
          "name": "number",
          "type": "uint256"
        }
      ],
      "name": "RandomNumber",
      "type": "event"
    },
    {
      "inputs": [
        {
          "internalType": "uint256",
          "name": "",
          "type": "uint256"
        }
      ],
      "name": "bets",
      "outputs": [
        {
          "internalType": "address",
          "name": "player",
          "type": "address"
        },
        {
          "internalType": "uint8",
          "name": "betType",
          "type": "uint8"
        },
        {
          "internalType": "uint8",
          "name": "number",
          "type": "uint8"
        }
      ],
      "stateMutability": "view",
      "type": "function",
      "constant": true
    },
    {
      "inputs": [],
      "name": "numberOfFunders",
      "outputs": [
        {
          "internalType": "uint256",
          "name": "",
          "type": "uint256"
        }
      ],
      "stateMutability": "view",
      "type": "function",
      "constant": true
    },
    {
      "inputs": [],
      "name": "owner",
      "outputs": [
        {
          "internalType": "address",
          "name": "",
          "type": "address"
        }
      ],
      "stateMutability": "view",
      "type": "function",
      "constant": true
    },
    {
      "inputs": [],
      "name": "getStatus",
      "outputs": [
        {
          "internalType": "uint256",
          "name": "",
          "type": "uint256"
        },
        {
          "internalType": "uint256",
          "name": "",
          "type": "uint256"
        },
        {
          "internalType": "uint256",
          "name": "",
          "type": "uint256"
        },
        {
          "internalType": "uint256",
          "name": "",
          "type": "uint256"
        },
        {
          "internalType": "uint256",
          "name": "",
          "type": "uint256"
        }
      ],
      "stateMutability": "view",
      "type": "function",
      "constant": true
    },
    {
      "inputs": [],
      "name": "getWinnings",
      "outputs": [
        {
          "internalType": "uint256",
          "name": "",
          "type": "uint256"
        }
      ],
      "stateMutability": "view",
      "type": "function",
      "constant": true
    },
    {
      "inputs": [],
      "name": "addEther",
      "outputs": [],
      "stateMutability": "payable",
      "type": "function",
      "payable": true
    },
    {
      "inputs": [
        {
          "internalType": "uint8",
          "name": "number",
          "type": "uint8"
        },
        {
          "internalType": "uint8",
          "name": "betType",
          "type": "uint8"
        }
      ],
      "name": "bet",
      "outputs": [],
      "stateMutability": "payable",
      "type": "function",
      "payable": true
    },
    {
      "inputs": [],
      "name": "spinWheel",
      "outputs": [],
      "stateMutability": "nonpayable",
      "type": "function"
    },
    {
      "inputs": [],
      "name": "cashOut",
      "outputs": [],
      "stateMutability": "nonpayable",
      "type": "function"
    },
    {
      "inputs": [],
      "name": "creatorKill",
      "outputs": [],
      "stateMutability": "nonpayable",
      "type": "function"
    },
    {
      "inputs": [
        {
          "internalType": "address",
          "name": "newOwner",
          "type": "address"
        }
      ],
      "name": "transferOwnership",
      "outputs": [],
      "stateMutability": "nonpayable",
      "type": "function"
    },
    {
      "inputs": [],
      "name": "addFunds",
      "outputs": [],
      "stateMutability": "payable",
      "type": "function",
      "payable": true
    },
    {
      "inputs": [],
      "name": "getAllFunders",
      "outputs": [
        {
          "internalType": "address[]",
          "name": "",
          "type": "address[]"
        }
      ],
      "stateMutability": "view",
      "type": "function",
      "constant": true
    },
    {
      "inputs": [
        {
          "internalType": "uint256",
          "name": "withdrawAmount",
          "type": "uint256"
        }
      ],
      "name": "withdraw",
      "outputs": [],
      "stateMutability": "nonpayable",
      "type": "function"
    }
  ],
  "bytecode": "0x608060405233600360006101000a81548173ffffffffffffffffffffffffffffffffffffffff021916908373ffffffffffffffffffffffffffffffffffffffff1602179055506000600181905550426002819055506040518060c00160405280600260ff168152602001600360ff168152602001600360ff168152602001600260ff168152602001600260ff168152602001602460ff168152506006906006620000ab92919062000127565b506040518060c00160405280600160ff168152602001600260ff168152602001600260ff168152602001600160ff168152602001600160ff168152602001602460ff1681525060079060066200010392919062000127565b50662386f26fc10000600081905550671bc16d674ec80000600481905550620001f4565b82805482825590600052602060002090601f01602090048101928215620001c25791602002820160005b838211156200019157835183826101000a81548160ff021916908360ff160217905550926020019260010160208160000104928301926001030262000151565b8015620001c05782816101000a81549060ff021916905560010160208160000104928301926001030262000191565b505b509050620001d19190620001d5565b5090565b5b80821115620001f0576000816000905550600101620001d6565b5090565b611a5480620002046000396000f3fe6080604052600436106100dd5760003560e01c80638894dd2b1161007f578063a26759cb11610059578063a26759cb14610249578063d773f46e14610253578063dc79a7fc1461026f578063f2fde38b1461029a576100dd565b80638894dd2b146101fd5780638c0e554f146102075780638da5cb5b1461021e576100dd565b80634e69d560116100bb5780634e69d560146101615780636fbbb55d1461019057806370b7596b146101bb578063793cd71e146101e6576100dd565b806315ecef92146100e257806322af00fa146100f95780632e1a7d4d14610138575b600080fd5b3480156100ee57600080fd5b506100f76102c3565b005b34801561010557600080fd5b50610120600480360381019061011b91906112f8565b61089e565b60405161012f93929190611382565b60405180910390f35b34801561014457600080fd5b5061015f600480360381019061015a91906112f8565b61090e565b005b34801561016d57600080fd5b506101766109fb565b6040516101879594939291906113c8565b60405180910390f35b34801561019c57600080fd5b506101a5610a71565b6040516101b291906114d9565b60405180910390f35b3480156101c757600080fd5b506101d0610b6b565b6040516101dd91906114fb565b60405180910390f35b3480156101f257600080fd5b506101fb610bb2565b005b610205610ca5565b005b34801561021357600080fd5b5061021c610ca7565b005b34801561022a57600080fd5b50610233610d41565b6040516102409190611516565b60405180910390f35b610251610d67565b005b61026d6004803603810190610268919061155d565b610edd565b005b34801561027b57600080fd5b506102846110d4565b60405161029191906114fb565b60405180910390f35b3480156102a657600080fd5b506102c160048036038101906102bc91906115c9565b6110da565b005b6000600880549050116102d557600080fd5b60025442116102e357600080fd5b42600281905550600044905060006001436102fe9190611625565b4090506000600860016008805490506103179190611625565b8154811061032857610327611659565b5b906000526020600020016040518060600160405290816000820160009054906101000a900473ffffffffffffffffffffffffffffffffffffffff1673ffffffffffffffffffffffffffffffffffffffff1673ffffffffffffffffffffffffffffffffffffffff1681526020016000820160149054906101000a900460ff1660ff1660ff1681526020016000820160159054906101000a900460ff1660ff1660ff16815250509050600060254285858560200151866000015187604001516040516020016103fa96959493929190611752565b6040516020818303038152906040528051906020012060001c61041d91906117f1565b905060005b600880549050811015610837576000806008838154811061044657610445611659565b5b906000526020600020016040518060600160405290816000820160009054906101000a900473ffffffffffffffffffffffffffffffffffffffff1673ffffffffffffffffffffffffffffffffffffffff1673ffffffffffffffffffffffffffffffffffffffff1681526020016000820160149054906101000a900460ff1660ff1660ff1681526020016000820160159054906101000a900460ff1660ff1660ff168152505090506000840361051a576005816020015160ff1614801561051357506000816040015160ff16145b9150610777565b6005816020015160ff160361053a5783816040015160ff16149150610776565b6004816020015160ff1603610592576000816040015160ff160361056b57600060028561056791906117f1565b1491505b6001816040015160ff160361058d57600160028561058991906117f1565b1491505b610775565b6003816020015160ff16036105d4576000816040015160ff16036105b857601284111591505b6001816040015160ff16036105cf57601384101591505b610774565b6002816020015160ff1603610638576000816040015160ff16036105fa57600c84111591505b6001816040015160ff160361061d57600c8411801561061a575060188411155b91505b6002816040015160ff1603610633576018841191505b610773565b6001816020015160ff16036106b2576000816040015160ff160361066957600160038561066591906117f1565b1491505b6001816040015160ff160361068b57600260038561068791906117f1565b1491505b6002816040015160ff16036106ad5760006003856106a991906117f1565b1491505b610772565b6000816020015160ff1603610771576000816040015160ff160361072257600a841115806106ee5750601484101580156106ed5750601c8411155b5b1561070a57600060028561070291906117f1565b14915061071d565b600160028561071991906117f1565b1491505b610770565b600a8411158061074057506014841015801561073f5750601c8411155b5b1561075c57600160028561075491906117f1565b14915061076f565b600060028561076b91906117f1565b1491505b5b5b5b5b5b5b5b5b8115610822576006816020015160ff168154811061079857610797611659565b5b90600052602060002090602091828204019190069054906101000a900460ff1660ff166000546107c89190611822565b60056000836000015173ffffffffffffffffffffffffffffffffffffffff1673ffffffffffffffffffffffffffffffffffffffff168152602001908152602001600020600082825461081a9190611864565b925050819055505b5050808061082f90611898565b915050610422565b50600860006108469190611236565b6000600181905550600454471115610861576108606111ae565b5b7fec6cdc8e735e4069f6e89062582f3e5532a8e71373e7ef2962fa916cf2af21f28160405161089091906114fb565b60405180910390a150505050565b600881815481106108ae57600080fd5b906000526020600020016000915090508060000160009054906101000a900473ffffffffffffffffffffffffffffffffffffffff16908060000160149054906101000a900460ff16908060000160159054906101000a900460ff16905083565b670de0b6b3a7640000811015806109725750600d60009054906101000a900473ffffffffffffffffffffffffffffffffffffffff1673ffffffffffffffffffffffffffffffffffffffff163373ffffffffffffffffffffffffffffffffffffffff16145b6109b1576040517f08c379a00000000000000000000000000000000000000000000000000000000081526004016109a890611963565b60405180910390fd5b3373ffffffffffffffffffffffffffffffffffffffff166108fc829081150290604051600060405180830381858888f193505050501580156109f7573d6000803e3d6000fd5b5050565b6000806000806000600880549050600054600880549050610a1c9190611822565b60025447600560003373ffffffffffffffffffffffffffffffffffffffff1673ffffffffffffffffffffffffffffffffffffffff16815260200190815260200160002054945094509450945094509091929394565b6060600060095467ffffffffffffffff811115610a9157610a90611983565b5b604051908082528060200260200182016040528015610abf5781602001602082028036833780820191505090505b50905060005b600954811015610b6357600b600082815260200190815260200160002060009054906101000a900473ffffffffffffffffffffffffffffffffffffffff16828281518110610b1657610b15611659565b5b602002602001019073ffffffffffffffffffffffffffffffffffffffff16908173ffffffffffffffffffffffffffffffffffffffff16815250508080610b5b90611898565b915050610ac5565b508091505090565b6000600560003373ffffffffffffffffffffffffffffffffffffffff1673ffffffffffffffffffffffffffffffffffffffff16815260200190815260200160002054905090565b60003390506000600560008373ffffffffffffffffffffffffffffffffffffffff1673ffffffffffffffffffffffffffffffffffffffff16815260200190815260200160002054905060008111610c0857600080fd5b47811115610c1557600080fd5b6000600560008473ffffffffffffffffffffffffffffffffffffffff1673ffffffffffffffffffffffffffffffffffffffff168152602001908152602001600020819055508173ffffffffffffffffffffffffffffffffffffffff166108fc829081150290604051600060405180830381858888f19350505050158015610ca0573d6000803e3d6000fd5b505050565b565b600360009054906101000a900473ffffffffffffffffffffffffffffffffffffffff1673ffffffffffffffffffffffffffffffffffffffff163373ffffffffffffffffffffffffffffffffffffffff1614610d0157600080fd5b6000600360009054906101000a900473ffffffffffffffffffffffffffffffffffffffff1690508073ffffffffffffffffffffffffffffffffffffffff16ff5b600d60009054906101000a900473ffffffffffffffffffffffffffffffffffffffff1681565b6000339050600a60008273ffffffffffffffffffffffffffffffffffffffff1673ffffffffffffffffffffffffffffffffffffffff16815260200190815260200160002060009054906101000a900460ff16610e8457600060096000815480929190610dd290611898565b9190505590506001600a60008473ffffffffffffffffffffffffffffffffffffffff1673ffffffffffffffffffffffffffffffffffffffff16815260200190815260200160002060006101000a81548160ff02191690831515021790555081600b600083815260200190815260200160002060006101000a81548173ffffffffffffffffffffffffffffffffffffffff021916908373ffffffffffffffffffffffffffffffffffffffff160217905550505b34600c60008373ffffffffffffffffffffffffffffffffffffffff1673ffffffffffffffffffffffffffffffffffffffff1681526020019081526020016000206000828254610ed39190611864565b9250508190555050565b6000543414610eeb57600080fd5b60008160ff1610158015610f03575060058160ff1611155b610f0c57600080fd5b60008260ff1610158015610f5c575060078160ff1681548110610f3257610f31611659565b5b90600052602060002090602091828204019190069054906101000a900460ff1660ff168260ff1611155b610f6557600080fd5b60003460068360ff1681548110610f7f57610f7e611659565b5b90600052602060002090602091828204019190069054906101000a900460ff1660ff16610fac9190611822565b9050600081600154610fbe9190611864565b9050478110610fcc57600080fd5b8160016000828254610fde9190611864565b92505081905550600860405180606001604052803373ffffffffffffffffffffffffffffffffffffffff1681526020018560ff1681526020018660ff168152509080600181540180825580915050600190039060005260206000200160009091909190915060008201518160000160006101000a81548173ffffffffffffffffffffffffffffffffffffffff021916908373ffffffffffffffffffffffffffffffffffffffff16021790555060208201518160000160146101000a81548160ff021916908360ff16021790555060408201518160000160156101000a81548160ff021916908360ff160217905550505050505050565b60095481565b600d60009054906101000a900473ffffffffffffffffffffffffffffffffffffffff1673ffffffffffffffffffffffffffffffffffffffff163373ffffffffffffffffffffffffffffffffffffffff161461116a576040517f08c379a0000000000000000000000000000000000000000000000000000000008152600401611161906119fe565b60405180910390fd5b80600d60006101000a81548173ffffffffffffffffffffffffffffffffffffffff021916908373ffffffffffffffffffffffffffffffffffffffff16021790555050565b6000600454476111be9190611625565b9050600081111561123357600360009054906101000a900473ffffffffffffffffffffffffffffffffffffffff1673ffffffffffffffffffffffffffffffffffffffff166108fc829081150290604051600060405180830381858888f19350505050158015611231573d6000803e3d6000fd5b505b50565b50805460008255906000526020600020908101906112549190611257565b50565b5b808211156112b957600080820160006101000a81549073ffffffffffffffffffffffffffffffffffffffff02191690556000820160146101000a81549060ff02191690556000820160156101000a81549060ff021916905550600101611258565b5090565b600080fd5b6000819050919050565b6112d5816112c2565b81146112e057600080fd5b50565b6000813590506112f2816112cc565b92915050565b60006020828403121561130e5761130d6112bd565b5b600061131c848285016112e3565b91505092915050565b600073ffffffffffffffffffffffffffffffffffffffff82169050919050565b600061135082611325565b9050919050565b61136081611345565b82525050565b600060ff82169050919050565b61137c81611366565b82525050565b60006060820190506113976000830186611357565b6113a46020830185611373565b6113b16040830184611373565b949350505050565b6113c2816112c2565b82525050565b600060a0820190506113dd60008301886113b9565b6113ea60208301876113b9565b6113f760408301866113b9565b61140460608301856113b9565b61141160808301846113b9565b9695505050505050565b600081519050919050565b600082825260208201905092915050565b6000819050602082019050919050565b61145081611345565b82525050565b60006114628383611447565b60208301905092915050565b6000602082019050919050565b60006114868261141b565b6114908185611426565b935061149b83611437565b8060005b838110156114cc5781516114b38882611456565b97506114be8361146e565b92505060018101905061149f565b5085935050505092915050565b600060208201905081810360008301526114f3818461147b565b905092915050565b600060208201905061151060008301846113b9565b92915050565b600060208201905061152b6000830184611357565b92915050565b61153a81611366565b811461154557600080fd5b50565b60008135905061155781611531565b92915050565b60008060408385031215611574576115736112bd565b5b600061158285828601611548565b925050602061159385828601611548565b9150509250929050565b6115a681611345565b81146115b157600080fd5b50565b6000813590506115c38161159d565b92915050565b6000602082840312156115df576115de6112bd565b5b60006115ed848285016115b4565b91505092915050565b7f4e487b7100000000000000000000000000000000000000000000000000000000600052601160045260246000fd5b6000611630826112c2565b915061163b836112c2565b9250828203905081811115611653576116526115f6565b5b92915050565b7f4e487b7100000000000000000000000000000000000000000000000000000000600052603260045260246000fd5b6000819050919050565b6116a361169e826112c2565b611688565b82525050565b6000819050919050565b6000819050919050565b6116ce6116c9826116a9565b6116b3565b82525050565b60008160f81b9050919050565b60006116ec826116d4565b9050919050565b6117046116ff82611366565b6116e1565b82525050565b60008160601b9050919050565b60006117228261170a565b9050919050565b600061173482611717565b9050919050565b61174c61174782611345565b611729565b82525050565b600061175e8289611692565b60208201915061176e8288611692565b60208201915061177e82876116bd565b60208201915061178e82866116f3565b60018201915061179e828561173b565b6014820191506117ae82846116f3565b600182019150819050979650505050505050565b7f4e487b7100000000000000000000000000000000000000000000000000000000600052601260045260246000fd5b60006117fc826112c2565b9150611807836112c2565b925082611817576118166117c2565b5b828206905092915050565b600061182d826112c2565b9150611838836112c2565b9250828202611846816112c2565b9150828204841483151761185d5761185c6115f6565b5b5092915050565b600061186f826112c2565b915061187a836112c2565b9250828201905080821115611892576118916115f6565b5b92915050565b60006118a3826112c2565b91507fffffffffffffffffffffffffffffffffffffffffffffffffffffffffffffffff82036118d5576118d46115f6565b5b600182019050919050565b600082825260208201905092915050565b7f596f752063616e6e6f74207769746864726177206d6f7265207468616e20312060008201527f4574686572000000000000000000000000000000000000000000000000000000602082015250565b600061194d6025836118e0565b9150611958826118f1565b604082019050919050565b6000602082019050818103600083015261197c81611940565b9050919050565b7f4e487b7100000000000000000000000000000000000000000000000000000000600052604160045260246000fd5b7f4f6e6c7920746865206f776e65722063616e20646f2074686174000000000000600082015250565b60006119e8601a836118e0565b91506119f3826119b2565b602082019050919050565b60006020820190508181036000830152611a17816119db565b905091905056fea264697066735822122011e376cac9c9bdfa9ca599bb3086f6a587c7fa4c82ccc60393f335dbe1d3b81c64736f6c63430008110033",
  "immutableReferences": {},
  "source": "// SPDX-License-Identifier: MIT\npragma solidity >=0.4.22 <0.9.0;\n \n\n\n// contract Roulette {\n//     // uint public numberOfFunders;\n//     // mapping(address => bool) private funders;\n//     // mapping(uint => address) private lutFunders;\n//     // mapping(address => uint) private lastFundAmount;\n//     // address public owner;\n\n\n\n//     // constructor() {\n//     //     owner = msg.sender;\n//     // }  \n\n//     // modifier onlyOwner(){\n//     //     require(msg.sender==owner, \"Only the owner can do that\");\n//     //     _;\n\n//     // }   \n\n//     // function transferOwnership(address newOwner) external onlyOwner{\n//     //     owner = newOwner;\n\n                 \n//     // }           \n\n//     // function addFunds() external payable{\n//     //    address funder = msg.sender;\n//     //    if(!funders[funder]){\n//     //     uint index = numberOfFunders++;\n//     //     funders[funder] = true;\n//     //     lutFunders[index] = funder;\n//     //     }\n//     //     lastFundAmount[funder] += msg.value;\n//     // }\n//     // function getAllFunders() external view returns(address[] memory){\n//     //     address[] memory _funders = new address[](numberOfFunders);\n//     //     for(uint i=0; i<numberOfFunders; i++){\n//     //         _funders[i] = lutFunders[i];\n//     //     }\n//     // return _funders;\n//     // }\n\n\n//     // function withdraw(uint withdrawAmount) external {\n//     //     require(withdrawAmount >= 1000000000000000000 || msg.sender==owner, \"You cannot withdraw more than 1 Ether\");\n//     //     payable (msg.sender).transfer(withdrawAmount);\n//     // }\n\n\n//     address public owner;\n//     uint public balance;\n//     uint public minBet;\n    \n//     struct Bet {\n//         address player;\n//         uint amount;\n//         uint number;\n//     }\n    \n//     Bet[] public bets;\n    \n//     event Win(address indexed player, uint amount);\n//     event Lose(address indexed player, uint amount);\n    \n//     constructor() {\n//         owner = msg.sender;\n//         minBet = 1 ether;\n//         balance = 10 ether;\n//     }\n   \n//     function spinWheel(uint number) public payable {\n//         require(msg.value >= minBet, \"You must bet an amount greater than or equal to the minimum bet.\");\n        \n//         Bet memory newBet = Bet(msg.sender, msg.value, number);\n//         bets.push(newBet);\n        \n//         balance += msg.value;\n//     }\n    \n//     function payout(uint winningNumber) public {\n//         require(msg.sender == owner, \"Only the owner can trigger a payout.\");\n        \n//         uint totalWinnings = 0;\n        \n//         for(uint i = 0; i < bets.length; i++) {\n//             if(bets[i].number == winningNumber) {\n//                 uint winnings = bets[i].amount * 36;\n//                 payable(bets[i].player).transfer(winnings);\n//                 totalWinnings += winnings;\n//                 emit Win(bets[i].player, winnings);\n//             } else {\n//                 emit Lose(bets[i].player, bets[i].amount);\n//             }\n//         }\n        \n//         balance -= totalWinnings;\n//     }\n    \n//     function withdrawBalance() public {\n//         require(msg.sender == owner, \"Only the owner can withdraw the balance.\");\n        \n//         payable(owner).transfer(balance);\n//         balance = 0;\n//     }\n// }\n    \n\n\n\n//}\n//const instance = await Roulette.deployed()\n//instance.addFunds({value: \"500000000000000000\", from: accounts[0]})\n//instance.addFunds({value: \"500000000000000000\", from: accounts[1]})\n//const funds = instance.funds()\n//instance.getAllFunders()\n//instance.withdraw(\"1000000000000000000\", {from: accounts[1]})\n// pragma solidity >=0.4.22 <0.9.0;\n\ncontract Roulette {\n  \n  uint betAmount;\n  uint necessaryBalance;\n  uint nextRoundTimestamp;\n  address creator;\n  uint256 maxAmountAllowedInTheBank;\n  mapping (address => uint256) winnings;\n  uint8[] payouts;\n  uint8[] numberRange;\n  \n  /*\n    BetTypes are as follow:\n      0: color\n      1: column\n      2: dozen\n      3: eighteen\n      4: modulus\n      5: number\n      \n    Depending on the BetType, number will be:\n      color: 0 for black, 1 for red\n      column: 0 for left, 1 for middle, 2 for right\n      dozen: 0 for first, 1 for second, 2 for third\n      eighteen: 0 for low, 1 for high\n      modulus: 0 for even, 1 for odd\n      number: number\n  */\n  \n  struct Bet {\n    address player;\n    uint8 betType;\n    uint8 number;\n  }\n  Bet[] public bets;\n  \n  constructor()  payable {\n    creator = msg.sender;\n    necessaryBalance = 0;\n    nextRoundTimestamp = block.timestamp;\n    payouts = [2,3,3,2,2,36];\n    numberRange = [1,2,2,1,1,36];\n    betAmount = 10000000000000000; /* 0.01 ether */\n    maxAmountAllowedInTheBank = 2000000000000000000; /* 2 ether */\n  }\n\n  event RandomNumber(uint256 number);\n  \n  function getStatus() public view returns(uint, uint, uint, uint, uint) {\n    return (\n      bets.length,             // number of active bets\n      bets.length * betAmount, // value of active bets\n      nextRoundTimestamp,      // when can we play again\n      address(this).balance,   // roulette balance\n      winnings[msg.sender]     // winnings of player\n    ); \n  }\n\n  function getWinnings() public view returns (uint) {\n    return winnings[msg.sender];\n}\n    \n  function addEther() payable public {}\n\n  function bet(uint8 number, uint8 betType) payable public {\n    /* \n       A bet is valid when:\n       1 - the value of the bet is correct (=betAmount)\n       2 - betType is kblock.timestampn (between 0 and 5)\n       3 - the option betted is valid (don't bet on 37!)\n       4 - the bank has sufficient funds to pay the bet\n    */\n    require(msg.value == betAmount);                               // 1\n    require(betType >= 0 && betType <= 5);                         // 2\n    require(number >= 0 && number <= numberRange[betType]);        // 3\n    uint payoutForThisBet = payouts[betType] * msg.value;\n    uint provisionalBalance = necessaryBalance + payoutForThisBet;\n    require(provisionalBalance < address(this).balance);           // 4\n    /* we are good to go */\n    necessaryBalance += payoutForThisBet;\n    bets.push(Bet({\n      betType: betType,\n      player: msg.sender,\n      number: number\n    }));\n  }\n\n  function spinWheel() public {\n    /* are there any bets? */\n    require(bets.length > 0);\n    /* are we allowed to spin the wheel? */\n    require(block.timestamp > nextRoundTimestamp);\n    /* next time we are allowed to spin the wheel again */\n    nextRoundTimestamp = block.timestamp;\n    /* calculate 'random' number */\n    uint diff = block.difficulty;\n    bytes32 hash = blockhash(block.number-1);\n    Bet memory lb = bets[bets.length-1];\n    uint number = uint(keccak256(abi.encodePacked(block.timestamp, diff, hash, lb.betType, lb.player, lb.number))) % 37;\n    /* check every bet for this number */\n    for (uint i = 0; i < bets.length; i++) {\n      bool won = false;\n      Bet memory b = bets[i];\n      if (number == 0) {\n        won = (b.betType == 5 && b.number == 0);                   /* bet on 0 */\n      } else {\n        if (b.betType == 5) { \n          won = (b.number == number);                              /* bet on number */\n        } else if (b.betType == 4) {\n          if (b.number == 0) won = (number % 2 == 0);              /* bet on even */\n          if (b.number == 1) won = (number % 2 == 1);              /* bet on odd */\n        } else if (b.betType == 3) {            \n          if (b.number == 0) won = (number <= 18);                 /* bet on low 18s */\n          if (b.number == 1) won = (number >= 19);                 /* bet on high 18s */\n        } else if (b.betType == 2) {                               \n          if (b.number == 0) won = (number <= 12);                 /* bet on 1st dozen */\n          if (b.number == 1) won = (number > 12 && number <= 24);  /* bet on 2nd dozen */\n          if (b.number == 2) won = (number > 24);                  /* bet on 3rd dozen */\n        } else if (b.betType == 1) {               \n          if (b.number == 0) won = (number % 3 == 1);              /* bet on left column */\n          if (b.number == 1) won = (number % 3 == 2);              /* bet on middle column */\n          if (b.number == 2) won = (number % 3 == 0);              /* bet on right column */\n        } else if (b.betType == 0) {\n          if (b.number == 0) {                                     /* bet on black */\n            if (number <= 10 || (number >= 20 && number <= 28)) {\n              won = (number % 2 == 0);\n            } else {\n              won = (number % 2 == 1);\n            }\n          } else {                                                 /* bet on red */\n            if (number <= 10 || (number >= 20 && number <= 28)) {\n              won = (number % 2 == 1);\n            } else {\n              won = (number % 2 == 0);\n            }\n          }\n        }\n      }\n      /* if winning bet, add to player winnings balance */\n      if (won) {\n        winnings[b.player] += betAmount * payouts[b.betType];\n      }\n    }\n    /* delete all bets */\n    delete bets;\n    /* reset necessaryBalance */\n    necessaryBalance = 0;\n    /* check if to much money in the bank */\n    if (address(this).balance > maxAmountAllowedInTheBank) takeProfits();\n    /* returns 'random' number to UI */\n    emit RandomNumber(number);\n  }\n  \n  function cashOut() public {\n    address player = msg.sender;\n    uint256 amount = winnings[player];\n    require(amount > 0);\n    require(amount <= address(this).balance);\n    winnings[player] = 0;\n    payable(player).transfer(amount);\n  }\n  \n  function takeProfits() internal {\n    uint amount = address(this).balance - maxAmountAllowedInTheBank;\n    if (amount > 0) payable(address(creator)).transfer(amount);\n  }\n  \n  function creatorKill() public {\n    require(msg.sender == creator);\n    address payable payableCreator = payable(creator);\n    selfdestruct(payableCreator);\n\n  }\n\n  uint public numberOfFunders;\n    mapping(address => bool) private funders;\n    mapping(uint => address) private lutFunders;\n    mapping(address => uint) private lastFundAmount;\n    address public owner;\n\n\n\n    modifier onlyOwner(){\n        require(msg.sender==owner, \"Only the owner can do that\");\n        _;\n\n    }   \n\n    function transferOwnership(address newOwner) external onlyOwner{\n        owner = newOwner;\n\n                 \n    }           \n\n    function addFunds() external payable{\n       address funder = msg.sender;\n       if(!funders[funder]){\n        uint index = numberOfFunders++;\n        funders[funder] = true;\n        lutFunders[index] = funder;\n        }\n        lastFundAmount[funder] += msg.value;\n    }\n    function getAllFunders() external view returns(address[] memory){\n        address[] memory _funders = new address[](numberOfFunders);\n        for(uint i=0; i<numberOfFunders; i++){\n            _funders[i] = lutFunders[i];\n        }\n    return _funders;\n    }\n\n\n    function withdraw(uint withdrawAmount) external {\n        require(withdrawAmount >= 1000000000000000000 || msg.sender==owner, \"You cannot withdraw more than 1 Ether\");\n        payable (msg.sender).transfer(withdrawAmount);\n    }\n \n}\n\n",
  "sourcePath": "/Users/epushett/Desktop/solidity_proj/final/contracts/Roulette.sol",
  "compiler": {
    "name": "solc",
    "version": "0.8.17+commit.8df45f5f.Emscripten.clang"
  },
  "schemaVersion": "3.4.11",
  "updatedAt": "2023-03-25T18:47:38.154Z",
  "networkType": "ethereum",
  "devdoc": {
    "kind": "dev",
    "methods": {},
    "version": 1
  },
  "userdoc": {
    "kind": "user",
    "methods": {},
    "version": 1
  }
}