{
  "contractName": "Roulette",
  "abi": [
    {
      "inputs": [],
      "stateMutability": "payable",
      "type": "constructor",
      "payable": true
    },
    {
      "anonymous": false,
      "inputs": [
        {
          "indexed": false,
          "internalType": "uint256",
          "name": "number",
          "type": "uint256"
        }
      ],
      "name": "RandomNumber",
      "type": "event"
    },
    {
      "inputs": [
        {
          "internalType": "uint256",
          "name": "",
          "type": "uint256"
        }
      ],
      "name": "bets",
      "outputs": [
        {
          "internalType": "address",
          "name": "player",
          "type": "address"
        },
        {
          "internalType": "uint8",
          "name": "betType",
          "type": "uint8"
        },
        {
          "internalType": "uint8",
          "name": "number",
          "type": "uint8"
        },
        {
          "internalType": "uint256",
          "name": "betAmount",
          "type": "uint256"
        }
      ],
      "stateMutability": "view",
      "type": "function",
      "constant": true
    },
    {
      "inputs": [],
      "name": "latestWinningNumber",
      "outputs": [
        {
          "internalType": "uint256",
          "name": "",
          "type": "uint256"
        }
      ],
      "stateMutability": "view",
      "type": "function",
      "constant": true
    },
    {
      "inputs": [],
      "name": "numberOfWinners",
      "outputs": [
        {
          "internalType": "uint256",
          "name": "",
          "type": "uint256"
        }
      ],
      "stateMutability": "view",
      "type": "function",
      "constant": true
    },
    {
      "inputs": [
        {
          "internalType": "uint256",
          "name": "",
          "type": "uint256"
        }
      ],
      "name": "spinWinners",
      "outputs": [
        {
          "internalType": "address",
          "name": "winner",
          "type": "address"
        },
        {
          "internalType": "uint256",
          "name": "winnings",
          "type": "uint256"
        }
      ],
      "stateMutability": "view",
      "type": "function",
      "constant": true
    },
    {
      "inputs": [
        {
          "internalType": "address",
          "name": "",
          "type": "address"
        }
      ],
      "name": "winners",
      "outputs": [
        {
          "internalType": "bool",
          "name": "",
          "type": "bool"
        }
      ],
      "stateMutability": "view",
      "type": "function",
      "constant": true
    },
    {
      "inputs": [
        {
          "internalType": "address",
          "name": "",
          "type": "address"
        }
      ],
      "name": "winnings",
      "outputs": [
        {
          "internalType": "uint256",
          "name": "",
          "type": "uint256"
        }
      ],
      "stateMutability": "view",
      "type": "function",
      "constant": true
    },
    {
      "inputs": [],
      "name": "RedBlack",
      "outputs": [],
      "stateMutability": "nonpayable",
      "type": "function"
    },
    {
      "inputs": [],
      "name": "getStatus",
      "outputs": [
        {
          "internalType": "uint256",
          "name": "",
          "type": "uint256"
        },
        {
          "internalType": "uint256",
          "name": "",
          "type": "uint256"
        },
        {
          "internalType": "uint256",
          "name": "",
          "type": "uint256"
        },
        {
          "internalType": "uint256",
          "name": "",
          "type": "uint256"
        },
        {
          "internalType": "uint256",
          "name": "",
          "type": "uint256"
        }
      ],
      "stateMutability": "view",
      "type": "function",
      "constant": true
    },
    {
      "inputs": [],
      "name": "addEther",
      "outputs": [],
      "stateMutability": "payable",
      "type": "function",
      "payable": true
    },
    {
      "inputs": [],
      "name": "getBets",
      "outputs": [
        {
          "components": [
            {
              "internalType": "address",
              "name": "player",
              "type": "address"
            },
            {
              "internalType": "uint8",
              "name": "betType",
              "type": "uint8"
            },
            {
              "internalType": "uint8",
              "name": "number",
              "type": "uint8"
            },
            {
              "internalType": "uint256",
              "name": "betAmount",
              "type": "uint256"
            }
          ],
          "internalType": "struct Roulette.Bet[]",
          "name": "",
          "type": "tuple[]"
        }
      ],
      "stateMutability": "view",
      "type": "function",
      "constant": true
    },
    {
      "inputs": [],
      "name": "getCreator",
      "outputs": [
        {
          "internalType": "address",
          "name": "",
          "type": "address"
        }
      ],
      "stateMutability": "view",
      "type": "function",
      "constant": true
    },
    {
      "inputs": [],
      "name": "getMaxBet",
      "outputs": [
        {
          "internalType": "uint256",
          "name": "",
          "type": "uint256"
        }
      ],
      "stateMutability": "view",
      "type": "function",
      "constant": true
    },
    {
      "inputs": [
        {
          "internalType": "uint8",
          "name": "number",
          "type": "uint8"
        },
        {
          "internalType": "uint8",
          "name": "betType",
          "type": "uint8"
        }
      ],
      "name": "bet",
      "outputs": [],
      "stateMutability": "payable",
      "type": "function",
      "payable": true
    },
    {
      "inputs": [
        {
          "internalType": "address",
          "name": "player",
          "type": "address"
        }
      ],
      "name": "getWinnings",
      "outputs": [
        {
          "internalType": "uint256",
          "name": "",
          "type": "uint256"
        }
      ],
      "stateMutability": "view",
      "type": "function",
      "constant": true
    },
    {
      "inputs": [],
      "name": "spinWheel",
      "outputs": [],
      "stateMutability": "nonpayable",
      "type": "function"
    },
    {
      "inputs": [],
      "name": "getLatestWinningNumber",
      "outputs": [
        {
          "internalType": "uint256",
          "name": "",
          "type": "uint256"
        }
      ],
      "stateMutability": "view",
      "type": "function",
      "constant": true
    },
    {
      "inputs": [],
      "name": "getWinners",
      "outputs": [
        {
          "components": [
            {
              "internalType": "address",
              "name": "winner",
              "type": "address"
            },
            {
              "internalType": "uint256",
              "name": "winnings",
              "type": "uint256"
            }
          ],
          "internalType": "struct Roulette.Winner[]",
          "name": "",
          "type": "tuple[]"
        }
      ],
      "stateMutability": "view",
      "type": "function",
      "constant": true
    },
    {
      "inputs": [
        {
          "internalType": "uint256",
          "name": "number",
          "type": "uint256"
        }
      ],
      "name": "isRed",
      "outputs": [
        {
          "internalType": "bool",
          "name": "",
          "type": "bool"
        }
      ],
      "stateMutability": "view",
      "type": "function",
      "constant": true
    },
    {
      "inputs": [
        {
          "internalType": "uint256",
          "name": "number",
          "type": "uint256"
        }
      ],
      "name": "isBlack",
      "outputs": [
        {
          "internalType": "bool",
          "name": "",
          "type": "bool"
        }
      ],
      "stateMutability": "view",
      "type": "function",
      "constant": true
    },
    {
      "inputs": [],
      "name": "cashOut",
      "outputs": [],
      "stateMutability": "nonpayable",
      "type": "function"
    }
  ],
  "bytecode": "0x608060405233600360006101000a81548173ffffffffffffffffffffffffffffffffffffffff021916908373ffffffffffffffffffffffffffffffffffffffff160217905550600060018190555042600281905550604051806102400160405280602060ff168152602001601360ff168152602001601560ff168152602001601960ff168152602001602260ff168152602001601b60ff168152602001602460ff168152602001601e60ff168152602001601760ff168152602001600560ff168152602001601060ff168152602001600160ff168152602001600e60ff168152602001600960ff168152602001601260ff168152602001600760ff168152602001600c60ff168152602001600360ff16815250600b906012620001249291906200044b565b50604051806102400160405280600f60ff168152602001600460ff168152602001600260ff168152602001601160ff168152602001600660ff168152602001600d60ff168152602001600b60ff168152602001600860ff168152602001600a60ff168152602001601860ff168152602001602160ff168152602001601460ff168152602001601f60ff168152602001601660ff168152602001601d60ff168152602001601c60ff168152602001602360ff168152602001601a60ff16815250600c906012620001f59291906200044b565b50620002066200029060201b60201c565b6040518060600160405280600260ff168152602001600260ff168152602001602460ff1681525060099060036200023f929190620004f9565b506040518060600160405280600160ff168152602001600160ff168152602001602460ff16815250600a90600362000279929190620004f9565b506801a055690d9db800006004819055506200067b565b60005b600b805490508110156200030c57620002f5600b8281548110620002bc57620002bb620005c6565b5b90600052602060002090602091828204019190069054906101000a900460ff1660ff16600e6200038c60201b620013851790919060201c565b50808062000303906200062e565b91505062000293565b5060005b600c80549050811015620003895762000372600c8281548110620003395762000338620005c6565b5b90600052602060002090602091828204019190069054906101000a900460ff1660ff1660106200038c60201b620013851790919060201c565b50808062000380906200062e565b91505062000310565b50565b6000620003a6836000018360001b620003ae60201b60201c565b905092915050565b6000620003c283836200042860201b60201c565b6200041d57826000018290806001815401808255809150506001900390600052602060002001600090919091909150558260000180549050836001016000848152602001908152602001600020819055506001905062000422565b600090505b92915050565b600080836001016000848152602001908152602001600020541415905092915050565b82805482825590600052602060002090601f01602090048101928215620004e65791602002820160005b83821115620004b557835183826101000a81548160ff021916908360ff160217905550926020019260010160208160000104928301926001030262000475565b8015620004e45782816101000a81549060ff0219169055600101602081600001049283019260010302620004b5565b505b509050620004f59190620005a7565b5090565b82805482825590600052602060002090601f01602090048101928215620005945791602002820160005b838211156200056357835183826101000a81548160ff021916908360ff160217905550926020019260010160208160000104928301926001030262000523565b8015620005925782816101000a81549060ff021916905560010160208160000104928301926001030262000563565b505b509050620005a39190620005a7565b5090565b5b80821115620005c2576000816000905550600101620005a8565b5090565b7f4e487b7100000000000000000000000000000000000000000000000000000000600052603260045260246000fd5b7f4e487b7100000000000000000000000000000000000000000000000000000000600052601160045260246000fd5b6000819050919050565b60006200063b8262000624565b91507fffffffffffffffffffffffffffffffffffffffffffffffffffffffffffffffff820362000670576200066f620005f5565b5b600182019050919050565b611f5e806200068b6000396000f3fe60806040526004361061011f5760003560e01c8063793cd71e116100a0578063cac954c911610064578063cac954c9146103c0578063d773f46e146103eb578063df15c37e14610407578063ea3a149914610432578063f2abb6a51461046f5761011f565b8063793cd71e1461030c5780638894dd2b146103235780638acfaca91461032d578063a6afd5fd14610358578063ab561c16146103835761011f565b806322af00fa116100e757806322af00fa146101f85780632858eff1146102385780634e69d56014610275578063646668b6146102a45780636bd5450a146102cf5761011f565b80630dfcff62146101245780630ee2cb10146101625780631392e54f1461018d57806315ecef92146101ca5780631844989f146101e1575b600080fd5b34801561013057600080fd5b5061014b6004803603810190610146919061160b565b61049a565b604051610159929190611688565b60405180910390f35b34801561016e57600080fd5b506101776104ee565b60405161018491906116b1565b60405180910390f35b34801561019957600080fd5b506101b460048036038101906101af919061160b565b610518565b6040516101c191906116e7565b60405180910390f35b3480156101d657600080fd5b506101df610535565b005b3480156101ed57600080fd5b506101f6610ba6565b005b34801561020457600080fd5b5061021f600480360381019061021a919061160b565b610c86565b60405161022f949392919061171e565b60405180910390f35b34801561024457600080fd5b5061025f600480360381019061025a919061178f565b610d00565b60405161026c91906117bc565b60405180910390f35b34801561028157600080fd5b5061028a610d49565b60405161029b9594939291906117d7565b60405180910390f35b3480156102b057600080fd5b506102b9610dbf565b6040516102c691906117bc565b60405180910390f35b3480156102db57600080fd5b506102f660048036038101906102f1919061178f565b610dc8565b60405161030391906116e7565b60405180910390f35b34801561031857600080fd5b50610321610de8565b005b61032b610edb565b005b34801561033957600080fd5b50610342610edd565b60405161034f91906117bc565b60405180910390f35b34801561036457600080fd5b5061036d610ee3565b60405161037a919061195b565b60405180910390f35b34801561038f57600080fd5b506103aa60048036038101906103a5919061160b565b610fdc565b6040516103b791906116e7565b60405180910390f35b3480156103cc57600080fd5b506103d5610ff9565b6040516103e291906117bc565b60405180910390f35b610405600480360381019061040091906119a9565b611003565b005b34801561041357600080fd5b5061041c6112a8565b6040516104299190611ac7565b60405180910390f35b34801561043e57600080fd5b506104596004803603810190610454919061178f565b611367565b60405161046691906117bc565b60405180910390f35b34801561047b57600080fd5b5061048461137f565b60405161049191906117bc565b60405180910390f35b601381815481106104aa57600080fd5b90600052602060002090600202016000915090508060000160009054906101000a900473ffffffffffffffffffffffffffffffffffffffff16908060010154905082565b6000600360009054906101000a900473ffffffffffffffffffffffffffffffffffffffff16905090565b600061052e82601061139f90919063ffffffff16565b9050919050565b60006012805490501161054757600080fd5b600254421161055557600080fd5b603c426105629190611b18565b6002819055506013600061057691906114d4565b6000449050600060014361058a9190611b4c565b4090506000601260016012805490506105a39190611b4c565b815481106105b4576105b3611b80565b5b90600052602060002090600202016040518060800160405290816000820160009054906101000a900473ffffffffffffffffffffffffffffffffffffffff1673ffffffffffffffffffffffffffffffffffffffff1673ffffffffffffffffffffffffffffffffffffffff1681526020016000820160149054906101000a900460ff1660ff1660ff1681526020016000820160159054906101000a900460ff1660ff1660ff16815260200160018201548152505090506000602542858585602001518660000151876040015160405160200161069496959493929190611c79565b6040516020818303038152906040528051906020012060001c6106b79190611d18565b905060005b601280549050811015610b3857600080601283815481106106e0576106df611b80565b5b90600052602060002090600202016040518060800160405290816000820160009054906101000a900473ffffffffffffffffffffffffffffffffffffffff1673ffffffffffffffffffffffffffffffffffffffff1673ffffffffffffffffffffffffffffffffffffffff1681526020016000820160149054906101000a900460ff1660ff1660ff1681526020016000820160159054906101000a900460ff1660ff1660ff1681526020016001820154815250509050600084036107c2576002816020015160ff161480156107bb57506000816040015160ff16145b91506108a3565b6002816020015160ff16036107e25783816040015160ff161491506108a2565b6001816020015160ff160361083f576000816040015160ff160361081757600060028561080f9190611d18565b14915061083a565b6001816040015160ff16036108395760016002856108359190611d18565b1491505b5b6108a1565b6000816020015160ff16036108a0576000816040015160ff1614801561086a575061086984610518565b5b15610878576001915061089f565b6001816040015160ff16148015610894575061089384610fdc565b5b1561089e57600191505b5b5b5b5b5b8115610b2357600081600001519050600660008273ffffffffffffffffffffffffffffffffffffffff1673ffffffffffffffffffffffffffffffffffffffff16815260200190815260200160002060009054906101000a900460ff166109ca5760006005600081548092919061091890611d49565b9190505590506001600660008473ffffffffffffffffffffffffffffffffffffffff1673ffffffffffffffffffffffffffffffffffffffff16815260200190815260200160002060006101000a81548160ff021916908315150217905550816007600083815260200190815260200160002060006101000a81548173ffffffffffffffffffffffffffffffffffffffff021916908373ffffffffffffffffffffffffffffffffffffffff160217905550505b600082606001516009846020015160ff16815481106109ec576109eb611b80565b5b90600052602060002090602091828204019190069054906101000a900460ff1660ff16610a199190611d91565b905080600860008473ffffffffffffffffffffffffffffffffffffffff1673ffffffffffffffffffffffffffffffffffffffff1681526020019081526020016000206000828254610a6a9190611b18565b92505081905550600060405180604001604052808473ffffffffffffffffffffffffffffffffffffffff168152602001838152509050601381908060018154018082558091505060019003906000526020600020906002020160009091909190915060008201518160000160006101000a81548173ffffffffffffffffffffffffffffffffffffffff021916908373ffffffffffffffffffffffffffffffffffffffff1602179055506020820151816001015550505050505b50508080610b3090611d49565b9150506106bc565b5060126000610b4791906114f8565b6000600181905550600454471115610b6257610b616113b9565b5b7fec6cdc8e735e4069f6e89062582f3e5532a8e71373e7ef2962fa916cf2af21f281604051610b9191906117bc565b60405180910390a180600d8190555050505050565b60005b600b80549050811015610c1457610c00600b8281548110610bcd57610bcc611b80565b5b90600052602060002090602091828204019190069054906101000a900460ff1660ff16600e61138590919063ffffffff16565b508080610c0c90611d49565b915050610ba9565b5060005b600c80549050811015610c8357610c6f600c8281548110610c3c57610c3b611b80565b5b90600052602060002090602091828204019190069054906101000a900460ff1660ff16601061138590919063ffffffff16565b508080610c7b90611d49565b915050610c18565b50565b60128181548110610c9657600080fd5b90600052602060002090600202016000915090508060000160009054906101000a900473ffffffffffffffffffffffffffffffffffffffff16908060000160149054906101000a900460ff16908060000160159054906101000a900460ff16908060010154905084565b6000600860008373ffffffffffffffffffffffffffffffffffffffff1673ffffffffffffffffffffffffffffffffffffffff168152602001908152602001600020549050919050565b6000806000806000601280549050600054601280549050610d6a9190611d91565b60025447600860003373ffffffffffffffffffffffffffffffffffffffff1673ffffffffffffffffffffffffffffffffffffffff16815260200190815260200160002054945094509450945094509091929394565b60008054905090565b60066020528060005260406000206000915054906101000a900460ff1681565b60003390506000600860008373ffffffffffffffffffffffffffffffffffffffff1673ffffffffffffffffffffffffffffffffffffffff16815260200190815260200160002054905060008111610e3e57600080fd5b47811115610e4b57600080fd5b6000600860008473ffffffffffffffffffffffffffffffffffffffff1673ffffffffffffffffffffffffffffffffffffffff168152602001908152602001600020819055508173ffffffffffffffffffffffffffffffffffffffff166108fc829081150290604051600060405180830381858888f19350505050158015610ed6573d6000803e3d6000fd5b505050565b565b60055481565b60606012805480602002602001604051908101604052809291908181526020016000905b82821015610fd357838290600052602060002090600202016040518060800160405290816000820160009054906101000a900473ffffffffffffffffffffffffffffffffffffffff1673ffffffffffffffffffffffffffffffffffffffff1673ffffffffffffffffffffffffffffffffffffffff1681526020016000820160149054906101000a900460ff1660ff1660ff1681526020016000820160159054906101000a900460ff1660ff1660ff16815260200160018201548152505081526020019060010190610f07565b50505050905090565b6000610ff282600e61139f90919063ffffffff16565b9050919050565b6000600d54905090565b60008160ff161015801561101b575060028160ff1611155b61105a576040517f08c379a000000000000000000000000000000000000000000000000000000000815260040161105190611e30565b60405180910390fd5b60008260ff16101580156110aa5750600a8160ff16815481106110805761107f611b80565b5b90600052602060002090602091828204019190069054906101000a900460ff1660ff168260ff1611155b6110e9576040517f08c379a00000000000000000000000000000000000000000000000000000000081526004016110e090611e9c565b60405180910390fd5b60003460098360ff168154811061110357611102611b80565b5b90600052602060002090602091828204019190069054906101000a900460ff1660ff166111309190611d91565b90506000816001546111429190611b18565b9050478110611186576040517f08c379a000000000000000000000000000000000000000000000000000000000815260040161117d90611f08565b60405180910390fd5b81600160008282546111989190611b18565b92505081905550600060405180608001604052803373ffffffffffffffffffffffffffffffffffffffff1681526020018560ff1681526020018660ff168152602001348152509050601281908060018154018082558091505060019003906000526020600020906002020160009091909190915060008201518160000160006101000a81548173ffffffffffffffffffffffffffffffffffffffff021916908373ffffffffffffffffffffffffffffffffffffffff16021790555060208201518160000160146101000a81548160ff021916908360ff16021790555060408201518160000160156101000a81548160ff021916908360ff1602179055506060820151816001015550505050505050565b60606013805480602002602001604051908101604052809291908181526020016000905b8282101561135e57838290600052602060002090600202016040518060400160405290816000820160009054906101000a900473ffffffffffffffffffffffffffffffffffffffff1673ffffffffffffffffffffffffffffffffffffffff1673ffffffffffffffffffffffffffffffffffffffff168152602001600182015481525050815260200190600101906112cc565b50505050905090565b60086020528060005260406000206000915090505481565b600d5481565b6000611397836000018360001b611441565b905092915050565b60006113b1836000018360001b6114b1565b905092915050565b6000600454476113c99190611b4c565b9050600081111561143e57600360009054906101000a900473ffffffffffffffffffffffffffffffffffffffff1673ffffffffffffffffffffffffffffffffffffffff166108fc829081150290604051600060405180830381858888f1935050505015801561143c573d6000803e3d6000fd5b505b50565b600061144d83836114b1565b6114a65782600001829080600181540180825580915050600190039060005260206000200160009091909190915055826000018054905083600101600084815260200190815260200160002081905550600190506114ab565b600090505b92915050565b600080836001016000848152602001908152602001600020541415905092915050565b50805460008255600202906000526020600020908101906114f5919061151c565b50565b50805460008255600202906000526020600020908101906115199190611562565b50565b5b8082111561155e57600080820160006101000a81549073ffffffffffffffffffffffffffffffffffffffff021916905560018201600090555060020161151d565b5090565b5b808211156115cc57600080820160006101000a81549073ffffffffffffffffffffffffffffffffffffffff02191690556000820160146101000a81549060ff02191690556000820160156101000a81549060ff0219169055600182016000905550600201611563565b5090565b600080fd5b6000819050919050565b6115e8816115d5565b81146115f357600080fd5b50565b600081359050611605816115df565b92915050565b600060208284031215611621576116206115d0565b5b600061162f848285016115f6565b91505092915050565b600073ffffffffffffffffffffffffffffffffffffffff82169050919050565b600061166382611638565b9050919050565b61167381611658565b82525050565b611682816115d5565b82525050565b600060408201905061169d600083018561166a565b6116aa6020830184611679565b9392505050565b60006020820190506116c6600083018461166a565b92915050565b60008115159050919050565b6116e1816116cc565b82525050565b60006020820190506116fc60008301846116d8565b92915050565b600060ff82169050919050565b61171881611702565b82525050565b6000608082019050611733600083018761166a565b611740602083018661170f565b61174d604083018561170f565b61175a6060830184611679565b95945050505050565b61176c81611658565b811461177757600080fd5b50565b60008135905061178981611763565b92915050565b6000602082840312156117a5576117a46115d0565b5b60006117b38482850161177a565b91505092915050565b60006020820190506117d16000830184611679565b92915050565b600060a0820190506117ec6000830188611679565b6117f96020830187611679565b6118066040830186611679565b6118136060830185611679565b6118206080830184611679565b9695505050505050565b600081519050919050565b600082825260208201905092915050565b6000819050602082019050919050565b61185f81611658565b82525050565b61186e81611702565b82525050565b61187d816115d5565b82525050565b6080820160008201516118996000850182611856565b5060208201516118ac6020850182611865565b5060408201516118bf6040850182611865565b5060608201516118d26060850182611874565b50505050565b60006118e48383611883565b60808301905092915050565b6000602082019050919050565b60006119088261182a565b6119128185611835565b935061191d83611846565b8060005b8381101561194e57815161193588826118d8565b9750611940836118f0565b925050600181019050611921565b5085935050505092915050565b6000602082019050818103600083015261197581846118fd565b905092915050565b61198681611702565b811461199157600080fd5b50565b6000813590506119a38161197d565b92915050565b600080604083850312156119c0576119bf6115d0565b5b60006119ce85828601611994565b92505060206119df85828601611994565b9150509250929050565b600081519050919050565b600082825260208201905092915050565b6000819050602082019050919050565b604082016000820151611a2b6000850182611856565b506020820151611a3e6020850182611874565b50505050565b6000611a508383611a15565b60408301905092915050565b6000602082019050919050565b6000611a74826119e9565b611a7e81856119f4565b9350611a8983611a05565b8060005b83811015611aba578151611aa18882611a44565b9750611aac83611a5c565b925050600181019050611a8d565b5085935050505092915050565b60006020820190508181036000830152611ae18184611a69565b905092915050565b7f4e487b7100000000000000000000000000000000000000000000000000000000600052601160045260246000fd5b6000611b23826115d5565b9150611b2e836115d5565b9250828201905080821115611b4657611b45611ae9565b5b92915050565b6000611b57826115d5565b9150611b62836115d5565b9250828203905081811115611b7a57611b79611ae9565b5b92915050565b7f4e487b7100000000000000000000000000000000000000000000000000000000600052603260045260246000fd5b6000819050919050565b611bca611bc5826115d5565b611baf565b82525050565b6000819050919050565b6000819050919050565b611bf5611bf082611bd0565b611bda565b82525050565b60008160f81b9050919050565b6000611c1382611bfb565b9050919050565b611c2b611c2682611702565b611c08565b82525050565b60008160601b9050919050565b6000611c4982611c31565b9050919050565b6000611c5b82611c3e565b9050919050565b611c73611c6e82611658565b611c50565b82525050565b6000611c858289611bb9565b602082019150611c958288611bb9565b602082019150611ca58287611be4565b602082019150611cb58286611c1a565b600182019150611cc58285611c62565b601482019150611cd58284611c1a565b600182019150819050979650505050505050565b7f4e487b7100000000000000000000000000000000000000000000000000000000600052601260045260246000fd5b6000611d23826115d5565b9150611d2e836115d5565b925082611d3e57611d3d611ce9565b5b828206905092915050565b6000611d54826115d5565b91507fffffffffffffffffffffffffffffffffffffffffffffffffffffffffffffffff8203611d8657611d85611ae9565b5b600182019050919050565b6000611d9c826115d5565b9150611da7836115d5565b9250828202611db5816115d5565b91508282048414831517611dcc57611dcb611ae9565b5b5092915050565b600082825260208201905092915050565b7f496e76616c696420626574207479706500000000000000000000000000000000600082015250565b6000611e1a601083611dd3565b9150611e2582611de4565b602082019050919050565b60006020820190508181036000830152611e4981611e0d565b9050919050565b7f496e76616c6964206e756d626572000000000000000000000000000000000000600082015250565b6000611e86600e83611dd3565b9150611e9182611e50565b602082019050919050565b60006020820190508181036000830152611eb581611e79565b9050919050565b7f496e73756666696369656e742062616c616e6365000000000000000000000000600082015250565b6000611ef2601483611dd3565b9150611efd82611ebc565b602082019050919050565b60006020820190508181036000830152611f2181611ee5565b905091905056fea26469706673582212204575bdb55f3c4c30c040c51e048672b037c54da35e4bfea1d7f4decac627378064736f6c63430008110033",
  "immutableReferences": {},
  "source": "// SPDX-License-Identifier: MIT\npragma solidity >=0.4.22 <0.9.0;\nimport \"@openzeppelin/contracts/utils/structs/EnumerableSet.sol\";\n\n\ncontract Roulette {\n  \n  uint256 betAmount;\n  uint necessaryBalance;\n  uint nextRoundTimestamp;\n  address creator;\n  uint256 maxAmountAllowedInTheBank;\n  uint public numberOfWinners;\n  mapping(address => bool) public winners;\n  mapping(uint => address) private lutWinners;\n  mapping(address => uint) public winnings;\n  uint8[] payouts;\n  uint8[] numberRange;\n  uint8[] red;\n  uint8[] black;\n  uint256 public latestWinningNumber;\n    \n  using EnumerableSet for EnumerableSet.UintSet;\n\n    EnumerableSet.UintSet reds;\n    EnumerableSet.UintSet blacks;\n  \n  /*\n    BetTypes are as follow:\n      0: color\n      1: odd/even\n      2: number\n      \n    Depending on the BetType, number will be:\n      color: 0 for black, 1 for red\n      odd/even: 0 for even, 1 for odd\n      number: number\n  */\n  \n  struct Bet {\n    address player;\n    uint8 betType;\n    uint8 number;\n    uint256 betAmount;\n  }\n  Bet[] public bets;\n\n\n\n    struct Winner {\n    address winner;\n    uint winnings;\n}\n\nWinner[] public spinWinners;\n  \n  constructor()  payable {\n    creator = msg.sender;\n    necessaryBalance = 0;\n    nextRoundTimestamp = block.timestamp;\n    red = [32,19,21,25,34,27,36,30,23,5,16,1,14,9,18,7,12,3];\n    black = [15, 4, 2, 17, 6, 13, 11, 8, 10, 24, 33, 20, 31, 22, 29, 28, 35, 26];\n    RedBlack();\n    payouts = [2,2,36];\n    //times payout for each win type\n   numberRange = [1,1,36];\n    // Bet type 0: black/red (1=black, 2=red)\n    // Bet type 1: even/odd (1=odd, 2=even)\n    // Bet type 2: number (1-36)\n     maxAmountAllowedInTheBank = 30000000000000000000; /* 30 ether */\n  }\n\n  \n\n  event RandomNumber(uint256 number);\n  \n  function RedBlack() public{\n\n    for (uint i = 0; i < red.length; i++) {\n            reds.add(red[i]);\n    }\n\n    for (uint i = 0; i < black.length; i++) {\n            blacks.add(black[i]);\n    }\n\n  }\n\n  function getStatus() public view returns(uint, uint, uint, uint, uint) {\n    return (\n      bets.length,             // number of active bets\n      bets.length * betAmount, // value of active bets\n      nextRoundTimestamp,      // when can we play again\n      address(this).balance,   // roulette balance\n      winnings[msg.sender]     // winnings of player\n    ); \n  }\n\n\n  //must run when start server in order to have eth in contract  \n   function addEther() payable public {}\n\n\n  \n  function getBets() public view returns (Bet[] memory) {\n    return bets;\n}\n\n\nfunction getCreator() public view returns (address) {\n    return creator;\n}\n\n\nfunction getMaxBet() public view returns (uint) {\n        return betAmount;\n    }\n\n\n\n   \n  function bet(uint8 number, uint8 betType) payable public {\n\n\n       /* \n       A bet is valid when:\n       1 - the value of the bet is correct (=betAmount)\n       2 - betType is kblock.timestampn (between 0 and 2)\n       3 - the option betted is valid (don't bet on 37!)\n       4 - the bank has sufficient funds to pay the bet\n    */\n\n    \n    require(betType >= 0 && betType <= 2, \"Invalid bet type\"); // Check that the bet type is valid\n    require(number >= 0 && number <= numberRange[betType], \"Invalid number\"); // Check that the number is valid\n    uint payoutForThisBet = payouts[betType] * msg.value;\n    uint provisionalBalance = necessaryBalance + payoutForThisBet;\n    require(provisionalBalance < address(this).balance, \"Insufficient balance\"); // Check that the bank has sufficient funds to pay the bet\n    necessaryBalance += payoutForThisBet;\n    Bet memory newBet = Bet({\n      betType: betType,\n      player: msg.sender,\n      number: number,\n      betAmount : msg.value\n    });\n    bets.push(newBet);\n  }\n\n\n  function getWinnings(address player) public view returns (uint) {\n    return winnings[player];\n}\n\n\n\n\n  function spinWheel() public {\n    /* are there any bets? */\n    require(bets.length > 0);\n    /* are we allowed to spin the wheel? */\n    require(block.timestamp > nextRoundTimestamp);\n    /* next time we are allowed to spin the wheel again */\n    nextRoundTimestamp = block.timestamp + 1 minutes;\n    /* delete privious spin list of winners*/\n    delete spinWinners;\n    /* calculate 'random' number */\n    uint diff = block.difficulty;\n    bytes32 hash = blockhash(block.number-1);\n    Bet memory lb = bets[bets.length-1];\n    uint number = uint(keccak256(abi.encodePacked(block.timestamp, diff, hash, lb.betType, lb.player, lb.number))) % 37;\n    /* check every bet for this number */\n    for (uint i = 0; i < bets.length; i++) {\n      bool won = false;\n      Bet memory b = bets[i];\n      if (number == 0) {\n        won = (b.betType == 2 && b.number == 0);                   /* bet on 0 */\n      } else {\n        if (b.betType == 2) { \n          won = (b.number == number);                              /* bet on number */\n        } \n        else if (b.betType == 1) {\n          if (b.number == 0){ \n          won = (number % 2 == 0);\n          }              /* bet on even */\n          else if (b.number == 1){ \n          won = (number % 2 == 1);\n          }              /* bet on odd */\n         }\n          else if (b.betType == 0) {  \n            if (b.number == 0 && isBlack(number))    /* bet on black */\n            {                    \n              won = true;\n          } else if (b.number == 1 && isRed(number)){                                                 /* bet on red */\n              won = true;\n        }\n      }\n    }\n  \n      /* if winning bet, add to player winnings balance */\n      if (won) \n      {\n        address winner = b.player;\n       if(!winners[winner]){\n        uint index = numberOfWinners++;\n\n        winners[winner] = true;\n        lutWinners[index] = winner;\n\n        }\n        uint payout = payouts[b.betType] * b.betAmount;\n        winnings[winner] += payout;\n        Winner memory newWinner = Winner({\n          winner : winner,\n          winnings : payout\n          });\n          spinWinners.push(newWinner);\n        }\n    }\n    \n\n    /* delete all bets */\n    delete bets;\n    /* reset necessaryBalance */\n    necessaryBalance = 0;\n    /* check if to much money in the bank */\n    if (address(this).balance > maxAmountAllowedInTheBank) takeProfits();\n    /* returns 'random' number to UI */\n    emit RandomNumber(number);\n    latestWinningNumber = number;\n  }\n\n\nfunction getLatestWinningNumber() public view returns (uint256) {\n        return latestWinningNumber;\n    }\n\n\nfunction getWinners() public view returns (Winner[] memory) {\n\n    return spinWinners;\n}\n\n  \n\n    function isRed(uint number) public view returns (bool) {\n        return reds.contains(number);\n    }\n\n    function isBlack(uint number) public view returns (bool) {\n        return blacks.contains(number);\n    }\n\n  function cashOut() public {\n    address player = msg.sender;\n    uint256 amount = winnings[player];\n    require(amount > 0);\n    require(amount <= address(this).balance);\n    winnings[player] = 0;\n    payable(player).transfer(amount);\n  }\n  \n  function takeProfits() internal {\n    uint amount = address(this).balance - maxAmountAllowedInTheBank;\n    if (amount > 0) payable(address(creator)).transfer(amount);\n  }\n  \n\n\n  \n \n}\n\n\n\n\n\n",
  "sourcePath": "/Users/epushett/Desktop/solidity_proj/final/contracts/Roulette.sol",
  "compiler": {
    "name": "solc",
    "version": "0.8.17+commit.8df45f5f.Emscripten.clang"
  },
  "schemaVersion": "3.4.11",
  "updatedAt": "2023-04-17T10:51:23.206Z",
  "networkType": "ethereum",
  "devdoc": {
    "kind": "dev",
    "methods": {},
    "version": 1
  },
  "userdoc": {
    "kind": "user",
    "methods": {},
    "version": 1
  }
}